{
  "contracts/AaveStrategy.sol": {
    "AaveStrategy": {
      "abi": [
        {
          "inputs": [
            {
              "internalType": "contract IVault",
              "name": "vault",
              "type": "address"
            },
            {
              "internalType": "contract IERC20",
              "name": "token",
              "type": "address"
            },
            {
              "internalType": "contract IERC20",
              "name": "aToken",
              "type": "address"
            },
            {
              "internalType": "contract ILendingPool",
              "name": "lendingPool",
              "type": "address"
            },
            {
              "internalType": "uint256",
              "name": "slippage",
              "type": "uint256"
            },
            {
              "internalType": "string",
              "name": "metadataURI",
              "type": "string"
            }
          ],
          "stateMutability": "nonpayable",
          "type": "constructor"
        },
        {
          "anonymous": false,
          "inputs": [
            {
              "indexed": true,
              "internalType": "address",
              "name": "previousOwner",
              "type": "address"
            },
            {
              "indexed": true,
              "internalType": "address",
              "name": "newOwner",
              "type": "address"
            }
          ],
          "name": "OwnershipTransferred",
          "type": "event"
        },
        {
          "anonymous": false,
          "inputs": [
            {
              "indexed": false,
              "internalType": "string",
              "name": "metadataURI",
              "type": "string"
            }
          ],
          "name": "SetMetadataURI",
          "type": "event"
        },
        {
          "inputs": [],
          "name": "getAToken",
          "outputs": [
            {
              "internalType": "address",
              "name": "",
              "type": "address"
            }
          ],
          "stateMutability": "view",
          "type": "function"
        },
        {
          "inputs": [],
          "name": "getLendingPool",
          "outputs": [
            {
              "internalType": "address",
              "name": "",
              "type": "address"
            }
          ],
          "stateMutability": "view",
          "type": "function"
        },
        {
          "inputs": [],
          "name": "getMetadataURI",
          "outputs": [
            {
              "internalType": "string",
              "name": "",
              "type": "string"
            }
          ],
          "stateMutability": "view",
          "type": "function"
        },
        {
          "inputs": [],
          "name": "getSlippage",
          "outputs": [
            {
              "internalType": "uint256",
              "name": "",
              "type": "uint256"
            }
          ],
          "stateMutability": "view",
          "type": "function"
        },
        {
          "inputs": [],
          "name": "getToken",
          "outputs": [
            {
              "internalType": "address",
              "name": "",
              "type": "address"
            }
          ],
          "stateMutability": "view",
          "type": "function"
        },
        {
          "inputs": [],
          "name": "getTotalValue",
          "outputs": [
            {
              "internalType": "uint256",
              "name": "",
              "type": "uint256"
            }
          ],
          "stateMutability": "view",
          "type": "function"
        },
        {
          "inputs": [],
          "name": "getValueRate",
          "outputs": [
            {
              "internalType": "uint256",
              "name": "",
              "type": "uint256"
            }
          ],
          "stateMutability": "pure",
          "type": "function"
        },
        {
          "inputs": [],
          "name": "getVault",
          "outputs": [
            {
              "internalType": "address",
              "name": "",
              "type": "address"
            }
          ],
          "stateMutability": "view",
          "type": "function"
        },
        {
          "inputs": [
            {
              "internalType": "contract IERC20",
              "name": "token",
              "type": "address"
            }
          ],
          "name": "invest",
          "outputs": [],
          "stateMutability": "nonpayable",
          "type": "function"
        },
        {
          "inputs": [
            {
              "internalType": "uint256",
              "name": "ratio",
              "type": "uint256"
            },
            {
              "internalType": "bool",
              "name": "emergency",
              "type": "bool"
            },
            {
              "internalType": "bytes",
              "name": "",
              "type": "bytes"
            }
          ],
          "name": "onExit",
          "outputs": [
            {
              "internalType": "address",
              "name": "token",
              "type": "address"
            },
            {
              "internalType": "uint256",
              "name": "amount",
              "type": "uint256"
            },
            {
              "internalType": "uint256",
              "name": "value",
              "type": "uint256"
            },
            {
              "internalType": "uint256",
              "name": "totalValue",
              "type": "uint256"
            }
          ],
          "stateMutability": "nonpayable",
          "type": "function"
        },
        {
          "inputs": [
            {
              "internalType": "uint256",
              "name": "amount",
              "type": "uint256"
            },
            {
              "internalType": "bytes",
              "name": "",
              "type": "bytes"
            }
          ],
          "name": "onJoin",
          "outputs": [
            {
              "internalType": "uint256",
              "name": "value",
              "type": "uint256"
            },
            {
              "internalType": "uint256",
              "name": "totalValue",
              "type": "uint256"
            }
          ],
          "stateMutability": "nonpayable",
          "type": "function"
        },
        {
          "inputs": [],
          "name": "owner",
          "outputs": [
            {
              "internalType": "address",
              "name": "",
              "type": "address"
            }
          ],
          "stateMutability": "view",
          "type": "function"
        },
        {
          "inputs": [],
          "name": "renounceOwnership",
          "outputs": [],
          "stateMutability": "nonpayable",
          "type": "function"
        },
        {
          "inputs": [
            {
              "internalType": "string",
              "name": "metadataURI",
              "type": "string"
            }
          ],
          "name": "setMetadataURI",
          "outputs": [],
          "stateMutability": "nonpayable",
          "type": "function"
        },
        {
          "inputs": [
            {
              "internalType": "address",
              "name": "newOwner",
              "type": "address"
            }
          ],
          "name": "transferOwnership",
          "outputs": [],
          "stateMutability": "nonpayable",
          "type": "function"
        },
        {
          "inputs": [
            {
              "internalType": "contract IERC20",
              "name": "token",
              "type": "address"
            },
            {
              "internalType": "address",
              "name": "recipient",
              "type": "address"
            }
          ],
          "name": "withdraw",
          "outputs": [],
          "stateMutability": "nonpayable",
          "type": "function"
        }
      ],
      "evm": {
        "bytecode": {
          "linkReferences": {},
          "object": "6101406040523480156200001257600080fd5b5060405162002ac838038062002ac88339810160408190526200003591620002d9565b60006200004162000116565b600080546001600160a01b0319166001600160a01b0383169081178255604051929350917f8be0079c531659141344cd1fd0a4f28419497f9722a3daafe3b4186f6b6457e0908290a350670de0b6b3a7640000821115620000bf5760405162461bcd60e51b8152600401620000b69062000447565b60405180910390fd5b6001600160601b0319606087811b821660805286811b821660a05285811b821660e05284901b166101005260c0829052620000fa816200011a565b62000105856200016c565b6101205250620006b7945050505050565b3390565b80516200012f90600190602084019062000233565b507f8d2df192dd17edf92a7964b78aa322f3d717b2ab9de00651bee32bbc4c5da63a8160405162000161919062000412565b60405180910390a150565b600080826001600160a01b031663313ce5676040518163ffffffff1660e01b815260040160206040518083038186803b158015620001a957600080fd5b505afa158015620001be573d6000803e3d6000fd5b505050506040513d601f19601f82011682018060405250810190620001e49190620003e8565b60ff16905060128111156200020d5760405162461bcd60e51b8152600401620000b6906200047e565b60006200021c826012620005e8565b90506200022b81600a62000500565b949350505050565b828054620002419062000635565b90600052602060002090601f016020900481019282620002655760008555620002b0565b82601f106200028057805160ff1916838001178555620002b0565b82800160010185558215620002b0579182015b82811115620002b057825182559160200191906001019062000293565b50620002be929150620002c2565b5090565b5b80821115620002be5760008155600101620002c3565b60008060008060008060c08789031215620002f2578182fd5b8651620002ff816200069e565b602088015190965062000312816200069e565b604088015190955062000325816200069e565b606088015190945062000338816200069e565b608088015160a089015191945092506001600160401b03808211156200035c578283fd5b818901915089601f83011262000370578283fd5b81518181111562000385576200038562000688565b604051601f8201601f191681016020018381118282101715620003ac57620003ac62000688565b6040528181528382016020018c1015620003c4578485fd5b620003d782602083016020870162000602565b809450505050509295509295509295565b600060208284031215620003fa578081fd5b815160ff811681146200040b578182fd5b9392505050565b60006020825282518060208401526200043381604085016020870162000602565b601f01601f19169190910160400192915050565b60208082526015908201527f535741505f534c4950504147455f41424f56455f310000000000000000000000604082015260600190565b6020808252818101527f544f4b454e5f574f524b535f574954485f4249474745525f444543494d414c53604082015260600190565b80825b6001808611620004c75750620004f7565b818704821115620004dc57620004dc62000672565b80861615620004ea57918102915b9490941c938002620004b6565b94509492505050565b60006200040b60001984846000826200051c575060016200040b565b816200052b575060006200040b565b81600181146200054457600281146200054f5762000583565b60019150506200040b565b60ff84111562000563576200056362000672565b6001841b9150848211156200057c576200057c62000672565b506200040b565b5060208310610133831016604e8410600b8410161715620005bb575081810a83811115620005b557620005b562000672565b6200040b565b620005ca8484846001620004b3565b808604821115620005df57620005df62000672565b02949350505050565b600082821015620005fd57620005fd62000672565b500390565b60005b838110156200061f57818101518382015260200162000605565b838111156200062f576000848401525b50505050565b6002810460018216806200064a57607f821691505b602082108114156200066c57634e487b7160e01b600052602260045260246000fd5b50919050565b634e487b7160e01b600052601160045260246000fd5b634e487b7160e01b600052604160045260246000fd5b6001600160a01b0381168114620006b457600080fd5b50565b60805160601c60a05160601c60c05160e05160601c6101005160601c61012051612306620007c2600039600081816106a7015281816106d3015281816108f10152610c4f015260008181610219015281816104bc015281816105690152610ac301526000818161023d015281816108c001528181610d2c015261141901526000610ea201526000818161033801528181610375015281816103d70152818161048f01528181610596015281816105ff0152818161067101528181610a4901528181610af001528181610b9f01528181610c840152610cef0152600081816106260152818161088d015281816109f901528181610bcc01528181610f0c015261156e01526123066000f3fe608060405234801561001057600080fd5b50600436106101005760003560e01c80638d928af811610097578063f2fde38b11610066578063f2fde38b146101c6578063f35bb2e0146101d9578063f940e385146101fc578063fc9cee3c1461020f57610100565b80638d928af8146101a65780638da5cb5b146101ae578063b29c55bc146101b6578063caa648b4146101be57610100565b806352f6bb45116100d357806352f6bb4514610161578063715018a614610176578063750521f51461017e57806386a92af71461019157610100565b80630261bf8b1461010557806303f9c7931461012357806321df0da7146101385780633aafc2b614610140575b600080fd5b61010d610217565b60405161011a9190611cc0565b60405180910390f35b610136610131366004611abb565b61023b565b005b61010d6105fd565b61015361014e366004611bfc565b610621565b60405161011a92919061211c565b610169610701565b60405161011a9190612113565b61013661070d565b61013661018c366004611b47565b6107ae565b6101996107f9565b60405161011a9190611deb565b61010d61088b565b61010d6108af565b61010d6108be565b6101696108e2565b6101366101d4366004611abb565b61091a565b6101ec6101e7366004611ba5565b6109f2565b60405161011a9493929190611dc5565b61013661020a366004611b0f565b610cae565b610169610ea0565b7f000000000000000000000000000000000000000000000000000000000000000090565b7f00000000000000000000000000000000000000000000000000000000000000006001600160a01b0316816001600160a01b031614156102965760405162461bcd60e51b815260040161028d90611e35565b60405180910390fd5b6040517f70a082310000000000000000000000000000000000000000000000000000000081526000906001600160a01b038316906370a08231906102de903090600401611cc0565b60206040518083038186803b1580156102f657600080fd5b505afa15801561030a573d6000803e3d6000fd5b505050506040513d601f19601f8201168201806040525081019061032e9190611b8d565b905080156105f9577f00000000000000000000000000000000000000000000000000000000000000006001600160a01b0316826001600160a01b0316146103a4576103a2827f00000000000000000000000000000000000000000000000000000000000000008361039d610ea0565b610ec4565b505b6040517f70a082310000000000000000000000000000000000000000000000000000000081526000906001600160a01b037f000000000000000000000000000000000000000000000000000000000000000016906370a082319061040c903090600401611cc0565b60206040518083038186803b15801561042457600080fd5b505afa158015610438573d6000803e3d6000fd5b505050506040513d601f19601f8201168201806040525081019061045c9190611b8d565b6040517f095ea7b30000000000000000000000000000000000000000000000000000000081529091506001600160a01b037f0000000000000000000000000000000000000000000000000000000000000000169063095ea7b3906104e6907f0000000000000000000000000000000000000000000000000000000000000000908590600401611d5c565b602060405180830381600087803b15801561050057600080fd5b505af1158015610514573d6000803e3d6000fd5b505050506040513d601f19601f820116820180604052508101906105389190611af3565b506040517fe8eda9df0000000000000000000000000000000000000000000000000000000081526001600160a01b037f0000000000000000000000000000000000000000000000000000000000000000169063e8eda9df906105c5907f00000000000000000000000000000000000000000000000000000000000000009085903090600090600401611d98565b600060405180830381600087803b1580156105df57600080fd5b505af11580156105f3573d6000803e3d6000fd5b50505050505b5050565b7f000000000000000000000000000000000000000000000000000000000000000090565b6000807f00000000000000000000000000000000000000000000000000000000000000006001600160a01b0316331461066c5760405162461bcd60e51b815260040161028d906120a5565b6106957f000000000000000000000000000000000000000000000000000000000000000061023b565b600061069f6113e6565b90506106cb857f000000000000000000000000000000000000000000000000000000000000000061149e565b92506106f7817f000000000000000000000000000000000000000000000000000000000000000061149e565b9150509250929050565b670de0b6b3a764000090565b6107156114b1565b6001600160a01b03166107266108af565b6001600160a01b03161461074c5760405162461bcd60e51b815260040161028d90611f00565b600080546040516001600160a01b03909116907f8be0079c531659141344cd1fd0a4f28419497f9722a3daafe3b4186f6b6457e0908390a3600080547fffffffffffffffffffffffff0000000000000000000000000000000000000000169055565b6107b66114b1565b6001600160a01b03166107c76108af565b6001600160a01b0316146107ed5760405162461bcd60e51b815260040161028d90611f00565b6107f6816114b5565b50565b606060018054610808906121fb565b80601f0160208091040260200160405190810160405280929190818152602001828054610834906121fb565b80156108815780601f1061085657610100808354040283529160200191610881565b820191906000526020600020905b81548152906001019060200180831161086457829003601f168201915b5050505050905090565b7f000000000000000000000000000000000000000000000000000000000000000090565b6000546001600160a01b031690565b7f000000000000000000000000000000000000000000000000000000000000000090565b60006109156108ef6113e6565b7f000000000000000000000000000000000000000000000000000000000000000061149e565b905090565b6109226114b1565b6001600160a01b03166109336108af565b6001600160a01b0316146109595760405162461bcd60e51b815260040161028d90611f00565b6001600160a01b03811661097f5760405162461bcd60e51b815260040161028d90611e6c565b600080546040516001600160a01b03808516939216917f8be0079c531659141344cd1fd0a4f28419497f9722a3daafe3b4186f6b6457e091a3600080547fffffffffffffffffffffffff0000000000000000000000000000000000000000166001600160a01b0392909216919091179055565b60008080807f00000000000000000000000000000000000000000000000000000000000000006001600160a01b03163314610a3f5760405162461bcd60e51b815260040161028d906120a5565b85610a6d57610a6d7f000000000000000000000000000000000000000000000000000000000000000061023b565b610a90610a8288610a7c6113e6565b90611503565b670de0b6b3a764000061155d565b6040517f69328dec0000000000000000000000000000000000000000000000000000000081529093506001600160a01b037f000000000000000000000000000000000000000000000000000000000000000016906369328dec90610b1c907f00000000000000000000000000000000000000000000000000000000000000009087903090600401611d75565b602060405180830381600087803b158015610b3657600080fd5b505af1158015610b4a573d6000803e3d6000fd5b505050506040513d601f19601f82011682018060405250810190610b6e9190611b8d565b506040517f095ea7b30000000000000000000000000000000000000000000000000000000081526001600160a01b037f0000000000000000000000000000000000000000000000000000000000000000169063095ea7b390610bf6907f0000000000000000000000000000000000000000000000000000000000000000908790600401611d5c565b602060405180830381600087803b158015610c1057600080fd5b505af1158015610c24573d6000803e3d6000fd5b505050506040513d601f19601f82011682018060405250810190610c489190611af3565b50610c73837f000000000000000000000000000000000000000000000000000000000000000061149e565b9150610c806108ef6113e6565b90507f0000000000000000000000000000000000000000000000000000000000000000935093509350935093565b610cb66114b1565b6001600160a01b0316610cc76108af565b6001600160a01b031614610ced5760405162461bcd60e51b815260040161028d90611f00565b7f00000000000000000000000000000000000000000000000000000000000000006001600160a01b0316826001600160a01b031614158015610d6157507f00000000000000000000000000000000000000000000000000000000000000006001600160a01b0316826001600160a01b031614155b156105f9576040517f70a082310000000000000000000000000000000000000000000000000000000081526000906001600160a01b038416906370a0823190610dae903090600401611cc0565b60206040518083038186803b158015610dc657600080fd5b505afa158015610dda573d6000803e3d6000fd5b505050506040513d601f19601f82011682018060405250810190610dfe9190611b8d565b6040517fa9059cbb0000000000000000000000000000000000000000000000000000000081529091506001600160a01b0384169063a9059cbb90610e489085908590600401611d5c565b602060405180830381600087803b158015610e6257600080fd5b505af1158015610e76573d6000803e3d6000fd5b505050506040513d601f19601f82011682018060405250810190610e9a9190611af3565b50505050565b7f000000000000000000000000000000000000000000000000000000000000000090565b6000836001600160a01b0316856001600160a01b03161415610ef85760405162461bcd60e51b815260040161028d90611f6c565b6000610f0686868686611569565b905060007f00000000000000000000000000000000000000000000000000000000000000006001600160a01b03166318f51fea6040518163ffffffff1660e01b815260040160206040518083038186803b158015610f6357600080fd5b505afa158015610f77573d6000803e3d6000fd5b505050506040513d601f19601f82011682018060405250810190610f9b9190611ad7565b90506000816001600160a01b0316634aa066528989896040518463ffffffff1660e01b8152600401610fcf93929190611cee565b60206040518083038186803b158015610fe757600080fd5b505afa158015610ffb573d6000803e3d6000fd5b505050506040513d601f19601f8201168201806040525081019061101f9190611b8d565b9050828110156110415760405162461bcd60e51b815260040161028d90612011565b851561105b5761105b6001600160a01b03891683886116ab565b6040517f70a082310000000000000000000000000000000000000000000000000000000081526000906001600160a01b038a16906370a08231906110a3903090600401611cc0565b60206040518083038186803b1580156110bb57600080fd5b505afa1580156110cf573d6000803e3d6000fd5b505050506040513d601f19601f820116820180604052508101906110f39190611b8d565b90506000886001600160a01b03166370a08231306040518263ffffffff1660e01b81526004016111239190611cc0565b60206040518083038186803b15801561113b57600080fd5b505afa15801561114f573d6000803e3d6000fd5b505050506040513d601f19601f820116820180604052508101906111739190611b8d565b90506000806001600160a01b03861663167257878d8d8d8b42876040519080825280601f01601f1916602001820160405280156111b7576020820181803683370190505b506040518763ffffffff1660e01b81526004016111d996959493929190611d12565b6040805180830381600087803b1580156111f257600080fd5b505af1158015611206573d6000803e3d6000fd5b505050506040513d601f19601f8201168201806040525081019061122a9190611c37565b915091508681101561124e5760405162461bcd60e51b815260040161028d90611dfe565b6040517f70a082310000000000000000000000000000000000000000000000000000000081526000906001600160a01b038e16906370a0823190611296903090600401611cc0565b60206040518083038186803b1580156112ae57600080fd5b505afa1580156112c2573d6000803e3d6000fd5b505050506040513d601f19601f820116820180604052508101906112e69190611b8d565b90506112f28584611751565b8110156113115760405162461bcd60e51b815260040161028d90611ec9565b6040517f70a082310000000000000000000000000000000000000000000000000000000081526000906001600160a01b038e16906370a0823190611359903090600401611cc0565b60206040518083038186803b15801561137157600080fd5b505afa158015611385573d6000803e3d6000fd5b505050506040513d601f19601f820116820180604052508101906113a99190611b8d565b90506113b58584611751565b8110156113d45760405162461bcd60e51b815260040161028d90611fda565b50909c9b505050505050505050505050565b6040517f70a082310000000000000000000000000000000000000000000000000000000081526000906001600160a01b037f000000000000000000000000000000000000000000000000000000000000000016906370a082319061144e903090600401611cc0565b60206040518083038186803b15801561146657600080fd5b505afa15801561147a573d6000803e3d6000fd5b505050506040513d601f19601f820116820180604052508101906109159190611b8d565b60006114aa828461217b565b9392505050565b3390565b80516114c8906001906020840190611975565b507f8d2df192dd17edf92a7964b78aa322f3d717b2ab9de00651bee32bbc4c5da63a816040516114f89190611deb565b60405180910390a150565b600080611510838561217b565b90508315806115275750826115258583612142565b145b6115435760405162461bcd60e51b815260040161028d906120dc565b611555670de0b6b3a764000082612142565b949350505050565b60006114aa8284612142565b6000807f00000000000000000000000000000000000000000000000000000000000000006001600160a01b0316632630c12f6040518163ffffffff1660e01b815260040160206040518083038186803b1580156115c557600080fd5b505afa1580156115d9573d6000803e3d6000fd5b505050506040513d601f19601f820116820180604052508101906115fd9190611ad7565b6001600160a01b031663afa9986086886040518363ffffffff1660e01b815260040161162a929190611cd4565b60206040518083038186803b15801561164257600080fd5b505afa158015611656573d6000803e3d6000fd5b505050506040513d601f19601f8201168201806040525081019061167a9190611b8d565b90506116a161169184670de0b6b3a76400006121b8565b61169b8684611780565b90611780565b9695505050505050565b61174c8363a9059cbb60e01b84846040516024016116ca929190611d5c565b604080517fffffffffffffffffffffffffffffffffffffffffffffffffffffffffffffffe08184030181529190526020810180517bffffffffffffffffffffffffffffffffffffffffffffffffffffffff167fffffffff00000000000000000000000000000000000000000000000000000000909316929092179091526117fe565b505050565b60008061175e838561212a565b9050838110156114aa5760405162461bcd60e51b815260040161028d90611f35565b60008061178d838561217b565b90508315806117a45750826117a28583612142565b145b6117c05760405162461bcd60e51b815260040161028d906120dc565b80156117f457670de0b6b3a76400006117da6001836121b8565b6117e49190612142565b6117ef90600161212a565b611555565b5060009392505050565b6000611853826040518060400160405280602081526020017f5361666545524332303a206c6f772d6c6576656c2063616c6c206661696c6564815250856001600160a01b031661188d9092919063ffffffff16565b80519091501561174c57808060200190518101906118719190611af3565b61174c5760405162461bcd60e51b815260040161028d90612048565b60606115558484600085856118a185611936565b6118bd5760405162461bcd60e51b815260040161028d90611fa3565b600080866001600160a01b031685876040516118d99190611ca4565b60006040518083038185875af1925050503d8060008114611916576040519150601f19603f3d011682016040523d82523d6000602084013e61191b565b606091505b509150915061192b82828661193c565b979650505050505050565b3b151590565b6060831561194b5750816114aa565b82511561195b5782518084602001fd5b8160405162461bcd60e51b815260040161028d9190611deb565b828054611981906121fb565b90600052602060002090601f0160209004810192826119a357600085556119e9565b82601f106119bc57805160ff19168380011785556119e9565b828001600101855582156119e9579182015b828111156119e95782518255916020019190600101906119ce565b506119f59291506119f9565b5090565b5b808211156119f557600081556001016119fa565b600067ffffffffffffffff80841115611a2957611a2961227e565b60405160207fffffffffffffffffffffffffffffffffffffffffffffffffffffffffffffffe0601f8701168201018181108382111715611a6b57611a6b61227e565b604052848152915081838501861015611a8357600080fd5b8484602083013760006020868301015250509392505050565b600082601f830112611aac578081fd5b6114aa83833560208501611a0e565b600060208284031215611acc578081fd5b81356114aa816122ad565b600060208284031215611ae8578081fd5b81516114aa816122ad565b600060208284031215611b04578081fd5b81516114aa816122c2565b60008060408385031215611b21578081fd5b8235611b2c816122ad565b91506020830135611b3c816122ad565b809150509250929050565b600060208284031215611b58578081fd5b813567ffffffffffffffff811115611b6e578182fd5b8201601f81018413611b7e578182fd5b61155584823560208401611a0e565b600060208284031215611b9e578081fd5b5051919050565b600080600060608486031215611bb9578081fd5b833592506020840135611bcb816122c2565b9150604084013567ffffffffffffffff811115611be6578182fd5b611bf286828701611a9c565b9150509250925092565b60008060408385031215611c0e578182fd5b82359150602083013567ffffffffffffffff811115611c2b578182fd5b6106f785828601611a9c565b60008060408385031215611c49578182fd5b505080516020909101519092909150565b60008151808452611c728160208601602086016121cf565b601f017fffffffffffffffffffffffffffffffffffffffffffffffffffffffffffffffe0169290920160200192915050565b60008251611cb68184602087016121cf565b9190910192915050565b6001600160a01b0391909116815260200190565b6001600160a01b0392831681529116602082015260400190565b6001600160a01b039384168152919092166020820152604081019190915260600190565b60006001600160a01b03808916835280881660208401525085604083015284606083015283608083015260c060a0830152611d5060c0830184611c5a565b98975050505050505050565b6001600160a01b03929092168252602082015260400190565b6001600160a01b0393841681526020810192909252909116604082015260600190565b6001600160a01b03948516815260208101939093529216604082015261ffff909116606082015260800190565b6001600160a01b0394909416845260208401929092526040830152606082015260800190565b6000602082526114aa6020830184611c5a565b6020808252600f908201527f535741505f4d494e5f414d4f554e540000000000000000000000000000000000604082015260600190565b60208082526013908201527f414156455f494e5445524e414c5f544f4b454e00000000000000000000000000604082015260600190565b60208082526026908201527f4f776e61626c653a206e6577206f776e657220697320746865207a65726f206160408201527f6464726573730000000000000000000000000000000000000000000000000000606082015260800190565b60208082526019908201527f535741505f494e56414c49445f52454d41494e494e475f494e00000000000000604082015260600190565b6020808252818101527f4f776e61626c653a2063616c6c6572206973206e6f7420746865206f776e6572604082015260600190565b6020808252600c908201527f4144445f4f564552464c4f570000000000000000000000000000000000000000604082015260600190565b6020808252600f908201527f535741505f53414d455f544f4b454e0000000000000000000000000000000000604082015260600190565b6020808252601d908201527f416464726573733a2063616c6c20746f206e6f6e2d636f6e7472616374000000604082015260600190565b60208082526017908201527f535741505f494e56414c49445f414d4f554e545f4f5554000000000000000000604082015260600190565b60208082526018908201527f45585045435445445f535741505f4d494e5f414d4f554e540000000000000000604082015260600190565b6020808252602a908201527f5361666545524332303a204552433230206f7065726174696f6e20646964206e60408201527f6f74207375636365656400000000000000000000000000000000000000000000606082015260800190565b60208082526013908201527f43414c4c45525f49535f4e4f545f5641554c5400000000000000000000000000604082015260600190565b6020808252600c908201527f4d554c5f4f564552464c4f570000000000000000000000000000000000000000604082015260600190565b90815260200190565b918252602082015260400190565b6000821982111561213d5761213d61224f565b500190565b600082612176577f4e487b710000000000000000000000000000000000000000000000000000000081526012600452602481fd5b500490565b6000817fffffffffffffffffffffffffffffffffffffffffffffffffffffffffffffffff04831182151516156121b3576121b361224f565b500290565b6000828210156121ca576121ca61224f565b500390565b60005b838110156121ea5781810151838201526020016121d2565b83811115610e9a5750506000910152565b60028104600182168061220f57607f821691505b60208210811415612249577f4e487b7100000000000000000000000000000000000000000000000000000000600052602260045260246000fd5b50919050565b7f4e487b7100000000000000000000000000000000000000000000000000000000600052601160045260246000fd5b7f4e487b7100000000000000000000000000000000000000000000000000000000600052604160045260246000fd5b6001600160a01b03811681146107f657600080fd5b80151581146107f657600080fdfea2646970667358221220b09ae06c3660f1522f1d4fc3ddece314ed06c942b638cbd499a5e860f5ab6c2764736f6c63430008000033",
          "opcodes": "PUSH2 0x140 PUSH1 0x40 MSTORE CALLVALUE DUP1 ISZERO PUSH3 0x12 JUMPI PUSH1 0x0 DUP1 REVERT JUMPDEST POP PUSH1 0x40 MLOAD PUSH3 0x2AC8 CODESIZE SUB DUP1 PUSH3 0x2AC8 DUP4 CODECOPY DUP2 ADD PUSH1 0x40 DUP2 SWAP1 MSTORE PUSH3 0x35 SWAP2 PUSH3 0x2D9 JUMP JUMPDEST PUSH1 0x0 PUSH3 0x41 PUSH3 0x116 JUMP JUMPDEST PUSH1 0x0 DUP1 SLOAD PUSH1 0x1 PUSH1 0x1 PUSH1 0xA0 SHL SUB NOT AND PUSH1 0x1 PUSH1 0x1 PUSH1 0xA0 SHL SUB DUP4 AND SWAP1 DUP2 OR DUP3 SSTORE PUSH1 0x40 MLOAD SWAP3 SWAP4 POP SWAP2 PUSH32 0x8BE0079C531659141344CD1FD0A4F28419497F9722A3DAAFE3B4186F6B6457E0 SWAP1 DUP3 SWAP1 LOG3 POP PUSH8 0xDE0B6B3A7640000 DUP3 GT ISZERO PUSH3 0xBF JUMPI PUSH1 0x40 MLOAD PUSH3 0x461BCD PUSH1 0xE5 SHL DUP2 MSTORE PUSH1 0x4 ADD PUSH3 0xB6 SWAP1 PUSH3 0x447 JUMP JUMPDEST PUSH1 0x40 MLOAD DUP1 SWAP2 SUB SWAP1 REVERT JUMPDEST PUSH1 0x1 PUSH1 0x1 PUSH1 0x60 SHL SUB NOT PUSH1 0x60 DUP8 DUP2 SHL DUP3 AND PUSH1 0x80 MSTORE DUP7 DUP2 SHL DUP3 AND PUSH1 0xA0 MSTORE DUP6 DUP2 SHL DUP3 AND PUSH1 0xE0 MSTORE DUP5 SWAP1 SHL AND PUSH2 0x100 MSTORE PUSH1 0xC0 DUP3 SWAP1 MSTORE PUSH3 0xFA DUP2 PUSH3 0x11A JUMP JUMPDEST PUSH3 0x105 DUP6 PUSH3 0x16C JUMP JUMPDEST PUSH2 0x120 MSTORE POP PUSH3 0x6B7 SWAP5 POP POP POP POP POP JUMP JUMPDEST CALLER SWAP1 JUMP JUMPDEST DUP1 MLOAD PUSH3 0x12F SWAP1 PUSH1 0x1 SWAP1 PUSH1 0x20 DUP5 ADD SWAP1 PUSH3 0x233 JUMP JUMPDEST POP PUSH32 0x8D2DF192DD17EDF92A7964B78AA322F3D717B2AB9DE00651BEE32BBC4C5DA63A DUP2 PUSH1 0x40 MLOAD PUSH3 0x161 SWAP2 SWAP1 PUSH3 0x412 JUMP JUMPDEST PUSH1 0x40 MLOAD DUP1 SWAP2 SUB SWAP1 LOG1 POP JUMP JUMPDEST PUSH1 0x0 DUP1 DUP3 PUSH1 0x1 PUSH1 0x1 PUSH1 0xA0 SHL SUB AND PUSH4 0x313CE567 PUSH1 0x40 MLOAD DUP2 PUSH4 0xFFFFFFFF AND PUSH1 0xE0 SHL DUP2 MSTORE PUSH1 0x4 ADD PUSH1 0x20 PUSH1 0x40 MLOAD DUP1 DUP4 SUB DUP2 DUP7 DUP1 EXTCODESIZE ISZERO DUP1 ISZERO PUSH3 0x1A9 JUMPI PUSH1 0x0 DUP1 REVERT JUMPDEST POP GAS STATICCALL ISZERO DUP1 ISZERO PUSH3 0x1BE JUMPI RETURNDATASIZE PUSH1 0x0 DUP1 RETURNDATACOPY RETURNDATASIZE PUSH1 0x0 REVERT JUMPDEST POP POP POP POP PUSH1 0x40 MLOAD RETURNDATASIZE PUSH1 0x1F NOT PUSH1 0x1F DUP3 ADD AND DUP3 ADD DUP1 PUSH1 0x40 MSTORE POP DUP2 ADD SWAP1 PUSH3 0x1E4 SWAP2 SWAP1 PUSH3 0x3E8 JUMP JUMPDEST PUSH1 0xFF AND SWAP1 POP PUSH1 0x12 DUP2 GT ISZERO PUSH3 0x20D JUMPI PUSH1 0x40 MLOAD PUSH3 0x461BCD PUSH1 0xE5 SHL DUP2 MSTORE PUSH1 0x4 ADD PUSH3 0xB6 SWAP1 PUSH3 0x47E JUMP JUMPDEST PUSH1 0x0 PUSH3 0x21C DUP3 PUSH1 0x12 PUSH3 0x5E8 JUMP JUMPDEST SWAP1 POP PUSH3 0x22B DUP2 PUSH1 0xA PUSH3 0x500 JUMP JUMPDEST SWAP5 SWAP4 POP POP POP POP JUMP JUMPDEST DUP3 DUP1 SLOAD PUSH3 0x241 SWAP1 PUSH3 0x635 JUMP JUMPDEST SWAP1 PUSH1 0x0 MSTORE PUSH1 0x20 PUSH1 0x0 KECCAK256 SWAP1 PUSH1 0x1F ADD PUSH1 0x20 SWAP1 DIV DUP2 ADD SWAP3 DUP3 PUSH3 0x265 JUMPI PUSH1 0x0 DUP6 SSTORE PUSH3 0x2B0 JUMP JUMPDEST DUP3 PUSH1 0x1F LT PUSH3 0x280 JUMPI DUP1 MLOAD PUSH1 0xFF NOT AND DUP4 DUP1 ADD OR DUP6 SSTORE PUSH3 0x2B0 JUMP JUMPDEST DUP3 DUP1 ADD PUSH1 0x1 ADD DUP6 SSTORE DUP3 ISZERO PUSH3 0x2B0 JUMPI SWAP2 DUP3 ADD JUMPDEST DUP3 DUP2 GT ISZERO PUSH3 0x2B0 JUMPI DUP3 MLOAD DUP3 SSTORE SWAP2 PUSH1 0x20 ADD SWAP2 SWAP1 PUSH1 0x1 ADD SWAP1 PUSH3 0x293 JUMP JUMPDEST POP PUSH3 0x2BE SWAP3 SWAP2 POP PUSH3 0x2C2 JUMP JUMPDEST POP SWAP1 JUMP JUMPDEST JUMPDEST DUP1 DUP3 GT ISZERO PUSH3 0x2BE JUMPI PUSH1 0x0 DUP2 SSTORE PUSH1 0x1 ADD PUSH3 0x2C3 JUMP JUMPDEST PUSH1 0x0 DUP1 PUSH1 0x0 DUP1 PUSH1 0x0 DUP1 PUSH1 0xC0 DUP8 DUP10 SUB SLT ISZERO PUSH3 0x2F2 JUMPI DUP2 DUP3 REVERT JUMPDEST DUP7 MLOAD PUSH3 0x2FF DUP2 PUSH3 0x69E JUMP JUMPDEST PUSH1 0x20 DUP9 ADD MLOAD SWAP1 SWAP7 POP PUSH3 0x312 DUP2 PUSH3 0x69E JUMP JUMPDEST PUSH1 0x40 DUP9 ADD MLOAD SWAP1 SWAP6 POP PUSH3 0x325 DUP2 PUSH3 0x69E JUMP JUMPDEST PUSH1 0x60 DUP9 ADD MLOAD SWAP1 SWAP5 POP PUSH3 0x338 DUP2 PUSH3 0x69E JUMP JUMPDEST PUSH1 0x80 DUP9 ADD MLOAD PUSH1 0xA0 DUP10 ADD MLOAD SWAP2 SWAP5 POP SWAP3 POP PUSH1 0x1 PUSH1 0x1 PUSH1 0x40 SHL SUB DUP1 DUP3 GT ISZERO PUSH3 0x35C JUMPI DUP3 DUP4 REVERT JUMPDEST DUP2 DUP10 ADD SWAP2 POP DUP10 PUSH1 0x1F DUP4 ADD SLT PUSH3 0x370 JUMPI DUP3 DUP4 REVERT JUMPDEST DUP2 MLOAD DUP2 DUP2 GT ISZERO PUSH3 0x385 JUMPI PUSH3 0x385 PUSH3 0x688 JUMP JUMPDEST PUSH1 0x40 MLOAD PUSH1 0x1F DUP3 ADD PUSH1 0x1F NOT AND DUP2 ADD PUSH1 0x20 ADD DUP4 DUP2 GT DUP3 DUP3 LT OR ISZERO PUSH3 0x3AC JUMPI PUSH3 0x3AC PUSH3 0x688 JUMP JUMPDEST PUSH1 0x40 MSTORE DUP2 DUP2 MSTORE DUP4 DUP3 ADD PUSH1 0x20 ADD DUP13 LT ISZERO PUSH3 0x3C4 JUMPI DUP5 DUP6 REVERT JUMPDEST PUSH3 0x3D7 DUP3 PUSH1 0x20 DUP4 ADD PUSH1 0x20 DUP8 ADD PUSH3 0x602 JUMP JUMPDEST DUP1 SWAP5 POP POP POP POP POP SWAP3 SWAP6 POP SWAP3 SWAP6 POP SWAP3 SWAP6 JUMP JUMPDEST PUSH1 0x0 PUSH1 0x20 DUP3 DUP5 SUB SLT ISZERO PUSH3 0x3FA JUMPI DUP1 DUP2 REVERT JUMPDEST DUP2 MLOAD PUSH1 0xFF DUP2 AND DUP2 EQ PUSH3 0x40B JUMPI DUP2 DUP3 REVERT JUMPDEST SWAP4 SWAP3 POP POP POP JUMP JUMPDEST PUSH1 0x0 PUSH1 0x20 DUP3 MSTORE DUP3 MLOAD DUP1 PUSH1 0x20 DUP5 ADD MSTORE PUSH3 0x433 DUP2 PUSH1 0x40 DUP6 ADD PUSH1 0x20 DUP8 ADD PUSH3 0x602 JUMP JUMPDEST PUSH1 0x1F ADD PUSH1 0x1F NOT AND SWAP2 SWAP1 SWAP2 ADD PUSH1 0x40 ADD SWAP3 SWAP2 POP POP JUMP JUMPDEST PUSH1 0x20 DUP1 DUP3 MSTORE PUSH1 0x15 SWAP1 DUP3 ADD MSTORE PUSH32 0x535741505F534C4950504147455F41424F56455F310000000000000000000000 PUSH1 0x40 DUP3 ADD MSTORE PUSH1 0x60 ADD SWAP1 JUMP JUMPDEST PUSH1 0x20 DUP1 DUP3 MSTORE DUP2 DUP2 ADD MSTORE PUSH32 0x544F4B454E5F574F524B535F574954485F4249474745525F444543494D414C53 PUSH1 0x40 DUP3 ADD MSTORE PUSH1 0x60 ADD SWAP1 JUMP JUMPDEST DUP1 DUP3 JUMPDEST PUSH1 0x1 DUP1 DUP7 GT PUSH3 0x4C7 JUMPI POP PUSH3 0x4F7 JUMP JUMPDEST DUP2 DUP8 DIV DUP3 GT ISZERO PUSH3 0x4DC JUMPI PUSH3 0x4DC PUSH3 0x672 JUMP JUMPDEST DUP1 DUP7 AND ISZERO PUSH3 0x4EA JUMPI SWAP2 DUP2 MUL SWAP2 JUMPDEST SWAP5 SWAP1 SWAP5 SHR SWAP4 DUP1 MUL PUSH3 0x4B6 JUMP JUMPDEST SWAP5 POP SWAP5 SWAP3 POP POP POP JUMP JUMPDEST PUSH1 0x0 PUSH3 0x40B PUSH1 0x0 NOT DUP5 DUP5 PUSH1 0x0 DUP3 PUSH3 0x51C JUMPI POP PUSH1 0x1 PUSH3 0x40B JUMP JUMPDEST DUP2 PUSH3 0x52B JUMPI POP PUSH1 0x0 PUSH3 0x40B JUMP JUMPDEST DUP2 PUSH1 0x1 DUP2 EQ PUSH3 0x544 JUMPI PUSH1 0x2 DUP2 EQ PUSH3 0x54F JUMPI PUSH3 0x583 JUMP JUMPDEST PUSH1 0x1 SWAP2 POP POP PUSH3 0x40B JUMP JUMPDEST PUSH1 0xFF DUP5 GT ISZERO PUSH3 0x563 JUMPI PUSH3 0x563 PUSH3 0x672 JUMP JUMPDEST PUSH1 0x1 DUP5 SHL SWAP2 POP DUP5 DUP3 GT ISZERO PUSH3 0x57C JUMPI PUSH3 0x57C PUSH3 0x672 JUMP JUMPDEST POP PUSH3 0x40B JUMP JUMPDEST POP PUSH1 0x20 DUP4 LT PUSH2 0x133 DUP4 LT AND PUSH1 0x4E DUP5 LT PUSH1 0xB DUP5 LT AND OR ISZERO PUSH3 0x5BB JUMPI POP DUP2 DUP2 EXP DUP4 DUP2 GT ISZERO PUSH3 0x5B5 JUMPI PUSH3 0x5B5 PUSH3 0x672 JUMP JUMPDEST PUSH3 0x40B JUMP JUMPDEST PUSH3 0x5CA DUP5 DUP5 DUP5 PUSH1 0x1 PUSH3 0x4B3 JUMP JUMPDEST DUP1 DUP7 DIV DUP3 GT ISZERO PUSH3 0x5DF JUMPI PUSH3 0x5DF PUSH3 0x672 JUMP JUMPDEST MUL SWAP5 SWAP4 POP POP POP POP JUMP JUMPDEST PUSH1 0x0 DUP3 DUP3 LT ISZERO PUSH3 0x5FD JUMPI PUSH3 0x5FD PUSH3 0x672 JUMP JUMPDEST POP SUB SWAP1 JUMP JUMPDEST PUSH1 0x0 JUMPDEST DUP4 DUP2 LT ISZERO PUSH3 0x61F JUMPI DUP2 DUP2 ADD MLOAD DUP4 DUP3 ADD MSTORE PUSH1 0x20 ADD PUSH3 0x605 JUMP JUMPDEST DUP4 DUP2 GT ISZERO PUSH3 0x62F JUMPI PUSH1 0x0 DUP5 DUP5 ADD MSTORE JUMPDEST POP POP POP POP JUMP JUMPDEST PUSH1 0x2 DUP2 DIV PUSH1 0x1 DUP3 AND DUP1 PUSH3 0x64A JUMPI PUSH1 0x7F DUP3 AND SWAP2 POP JUMPDEST PUSH1 0x20 DUP3 LT DUP2 EQ ISZERO PUSH3 0x66C JUMPI PUSH4 0x4E487B71 PUSH1 0xE0 SHL PUSH1 0x0 MSTORE PUSH1 0x22 PUSH1 0x4 MSTORE PUSH1 0x24 PUSH1 0x0 REVERT JUMPDEST POP SWAP2 SWAP1 POP JUMP JUMPDEST PUSH4 0x4E487B71 PUSH1 0xE0 SHL PUSH1 0x0 MSTORE PUSH1 0x11 PUSH1 0x4 MSTORE PUSH1 0x24 PUSH1 0x0 REVERT JUMPDEST PUSH4 0x4E487B71 PUSH1 0xE0 SHL PUSH1 0x0 MSTORE PUSH1 0x41 PUSH1 0x4 MSTORE PUSH1 0x24 PUSH1 0x0 REVERT JUMPDEST PUSH1 0x1 PUSH1 0x1 PUSH1 0xA0 SHL SUB DUP2 AND DUP2 EQ PUSH3 0x6B4 JUMPI PUSH1 0x0 DUP1 REVERT JUMPDEST POP JUMP JUMPDEST PUSH1 0x80 MLOAD PUSH1 0x60 SHR PUSH1 0xA0 MLOAD PUSH1 0x60 SHR PUSH1 0xC0 MLOAD PUSH1 0xE0 MLOAD PUSH1 0x60 SHR PUSH2 0x100 MLOAD PUSH1 0x60 SHR PUSH2 0x120 MLOAD PUSH2 0x2306 PUSH3 0x7C2 PUSH1 0x0 CODECOPY PUSH1 0x0 DUP2 DUP2 PUSH2 0x6A7 ADD MSTORE DUP2 DUP2 PUSH2 0x6D3 ADD MSTORE DUP2 DUP2 PUSH2 0x8F1 ADD MSTORE PUSH2 0xC4F ADD MSTORE PUSH1 0x0 DUP2 DUP2 PUSH2 0x219 ADD MSTORE DUP2 DUP2 PUSH2 0x4BC ADD MSTORE DUP2 DUP2 PUSH2 0x569 ADD MSTORE PUSH2 0xAC3 ADD MSTORE PUSH1 0x0 DUP2 DUP2 PUSH2 0x23D ADD MSTORE DUP2 DUP2 PUSH2 0x8C0 ADD MSTORE DUP2 DUP2 PUSH2 0xD2C ADD MSTORE PUSH2 0x1419 ADD MSTORE PUSH1 0x0 PUSH2 0xEA2 ADD MSTORE PUSH1 0x0 DUP2 DUP2 PUSH2 0x338 ADD MSTORE DUP2 DUP2 PUSH2 0x375 ADD MSTORE DUP2 DUP2 PUSH2 0x3D7 ADD MSTORE DUP2 DUP2 PUSH2 0x48F ADD MSTORE DUP2 DUP2 PUSH2 0x596 ADD MSTORE DUP2 DUP2 PUSH2 0x5FF ADD MSTORE DUP2 DUP2 PUSH2 0x671 ADD MSTORE DUP2 DUP2 PUSH2 0xA49 ADD MSTORE DUP2 DUP2 PUSH2 0xAF0 ADD MSTORE DUP2 DUP2 PUSH2 0xB9F ADD MSTORE DUP2 DUP2 PUSH2 0xC84 ADD MSTORE PUSH2 0xCEF ADD MSTORE PUSH1 0x0 DUP2 DUP2 PUSH2 0x626 ADD MSTORE DUP2 DUP2 PUSH2 0x88D ADD MSTORE DUP2 DUP2 PUSH2 0x9F9 ADD MSTORE DUP2 DUP2 PUSH2 0xBCC ADD MSTORE DUP2 DUP2 PUSH2 0xF0C ADD MSTORE PUSH2 0x156E ADD MSTORE PUSH2 0x2306 PUSH1 0x0 RETURN INVALID PUSH1 0x80 PUSH1 0x40 MSTORE CALLVALUE DUP1 ISZERO PUSH2 0x10 JUMPI PUSH1 0x0 DUP1 REVERT JUMPDEST POP PUSH1 0x4 CALLDATASIZE LT PUSH2 0x100 JUMPI PUSH1 0x0 CALLDATALOAD PUSH1 0xE0 SHR DUP1 PUSH4 0x8D928AF8 GT PUSH2 0x97 JUMPI DUP1 PUSH4 0xF2FDE38B GT PUSH2 0x66 JUMPI DUP1 PUSH4 0xF2FDE38B EQ PUSH2 0x1C6 JUMPI DUP1 PUSH4 0xF35BB2E0 EQ PUSH2 0x1D9 JUMPI DUP1 PUSH4 0xF940E385 EQ PUSH2 0x1FC JUMPI DUP1 PUSH4 0xFC9CEE3C EQ PUSH2 0x20F JUMPI PUSH2 0x100 JUMP JUMPDEST DUP1 PUSH4 0x8D928AF8 EQ PUSH2 0x1A6 JUMPI DUP1 PUSH4 0x8DA5CB5B EQ PUSH2 0x1AE JUMPI DUP1 PUSH4 0xB29C55BC EQ PUSH2 0x1B6 JUMPI DUP1 PUSH4 0xCAA648B4 EQ PUSH2 0x1BE JUMPI PUSH2 0x100 JUMP JUMPDEST DUP1 PUSH4 0x52F6BB45 GT PUSH2 0xD3 JUMPI DUP1 PUSH4 0x52F6BB45 EQ PUSH2 0x161 JUMPI DUP1 PUSH4 0x715018A6 EQ PUSH2 0x176 JUMPI DUP1 PUSH4 0x750521F5 EQ PUSH2 0x17E JUMPI DUP1 PUSH4 0x86A92AF7 EQ PUSH2 0x191 JUMPI PUSH2 0x100 JUMP JUMPDEST DUP1 PUSH4 0x261BF8B EQ PUSH2 0x105 JUMPI DUP1 PUSH4 0x3F9C793 EQ PUSH2 0x123 JUMPI DUP1 PUSH4 0x21DF0DA7 EQ PUSH2 0x138 JUMPI DUP1 PUSH4 0x3AAFC2B6 EQ PUSH2 0x140 JUMPI JUMPDEST PUSH1 0x0 DUP1 REVERT JUMPDEST PUSH2 0x10D PUSH2 0x217 JUMP JUMPDEST PUSH1 0x40 MLOAD PUSH2 0x11A SWAP2 SWAP1 PUSH2 0x1CC0 JUMP JUMPDEST PUSH1 0x40 MLOAD DUP1 SWAP2 SUB SWAP1 RETURN JUMPDEST PUSH2 0x136 PUSH2 0x131 CALLDATASIZE PUSH1 0x4 PUSH2 0x1ABB JUMP JUMPDEST PUSH2 0x23B JUMP JUMPDEST STOP JUMPDEST PUSH2 0x10D PUSH2 0x5FD JUMP JUMPDEST PUSH2 0x153 PUSH2 0x14E CALLDATASIZE PUSH1 0x4 PUSH2 0x1BFC JUMP JUMPDEST PUSH2 0x621 JUMP JUMPDEST PUSH1 0x40 MLOAD PUSH2 0x11A SWAP3 SWAP2 SWAP1 PUSH2 0x211C JUMP JUMPDEST PUSH2 0x169 PUSH2 0x701 JUMP JUMPDEST PUSH1 0x40 MLOAD PUSH2 0x11A SWAP2 SWAP1 PUSH2 0x2113 JUMP JUMPDEST PUSH2 0x136 PUSH2 0x70D JUMP JUMPDEST PUSH2 0x136 PUSH2 0x18C CALLDATASIZE PUSH1 0x4 PUSH2 0x1B47 JUMP JUMPDEST PUSH2 0x7AE JUMP JUMPDEST PUSH2 0x199 PUSH2 0x7F9 JUMP JUMPDEST PUSH1 0x40 MLOAD PUSH2 0x11A SWAP2 SWAP1 PUSH2 0x1DEB JUMP JUMPDEST PUSH2 0x10D PUSH2 0x88B JUMP JUMPDEST PUSH2 0x10D PUSH2 0x8AF JUMP JUMPDEST PUSH2 0x10D PUSH2 0x8BE JUMP JUMPDEST PUSH2 0x169 PUSH2 0x8E2 JUMP JUMPDEST PUSH2 0x136 PUSH2 0x1D4 CALLDATASIZE PUSH1 0x4 PUSH2 0x1ABB JUMP JUMPDEST PUSH2 0x91A JUMP JUMPDEST PUSH2 0x1EC PUSH2 0x1E7 CALLDATASIZE PUSH1 0x4 PUSH2 0x1BA5 JUMP JUMPDEST PUSH2 0x9F2 JUMP JUMPDEST PUSH1 0x40 MLOAD PUSH2 0x11A SWAP5 SWAP4 SWAP3 SWAP2 SWAP1 PUSH2 0x1DC5 JUMP JUMPDEST PUSH2 0x136 PUSH2 0x20A CALLDATASIZE PUSH1 0x4 PUSH2 0x1B0F JUMP JUMPDEST PUSH2 0xCAE JUMP JUMPDEST PUSH2 0x169 PUSH2 0xEA0 JUMP JUMPDEST PUSH32 0x0 SWAP1 JUMP JUMPDEST PUSH32 0x0 PUSH1 0x1 PUSH1 0x1 PUSH1 0xA0 SHL SUB AND DUP2 PUSH1 0x1 PUSH1 0x1 PUSH1 0xA0 SHL SUB AND EQ ISZERO PUSH2 0x296 JUMPI PUSH1 0x40 MLOAD PUSH3 0x461BCD PUSH1 0xE5 SHL DUP2 MSTORE PUSH1 0x4 ADD PUSH2 0x28D SWAP1 PUSH2 0x1E35 JUMP JUMPDEST PUSH1 0x40 MLOAD DUP1 SWAP2 SUB SWAP1 REVERT JUMPDEST PUSH1 0x40 MLOAD PUSH32 0x70A0823100000000000000000000000000000000000000000000000000000000 DUP2 MSTORE PUSH1 0x0 SWAP1 PUSH1 0x1 PUSH1 0x1 PUSH1 0xA0 SHL SUB DUP4 AND SWAP1 PUSH4 0x70A08231 SWAP1 PUSH2 0x2DE SWAP1 ADDRESS SWAP1 PUSH1 0x4 ADD PUSH2 0x1CC0 JUMP JUMPDEST PUSH1 0x20 PUSH1 0x40 MLOAD DUP1 DUP4 SUB DUP2 DUP7 DUP1 EXTCODESIZE ISZERO DUP1 ISZERO PUSH2 0x2F6 JUMPI PUSH1 0x0 DUP1 REVERT JUMPDEST POP GAS STATICCALL ISZERO DUP1 ISZERO PUSH2 0x30A JUMPI RETURNDATASIZE PUSH1 0x0 DUP1 RETURNDATACOPY RETURNDATASIZE PUSH1 0x0 REVERT JUMPDEST POP POP POP POP PUSH1 0x40 MLOAD RETURNDATASIZE PUSH1 0x1F NOT PUSH1 0x1F DUP3 ADD AND DUP3 ADD DUP1 PUSH1 0x40 MSTORE POP DUP2 ADD SWAP1 PUSH2 0x32E SWAP2 SWAP1 PUSH2 0x1B8D JUMP JUMPDEST SWAP1 POP DUP1 ISZERO PUSH2 0x5F9 JUMPI PUSH32 0x0 PUSH1 0x1 PUSH1 0x1 PUSH1 0xA0 SHL SUB AND DUP3 PUSH1 0x1 PUSH1 0x1 PUSH1 0xA0 SHL SUB AND EQ PUSH2 0x3A4 JUMPI PUSH2 0x3A2 DUP3 PUSH32 0x0 DUP4 PUSH2 0x39D PUSH2 0xEA0 JUMP JUMPDEST PUSH2 0xEC4 JUMP JUMPDEST POP JUMPDEST PUSH1 0x40 MLOAD PUSH32 0x70A0823100000000000000000000000000000000000000000000000000000000 DUP2 MSTORE PUSH1 0x0 SWAP1 PUSH1 0x1 PUSH1 0x1 PUSH1 0xA0 SHL SUB PUSH32 0x0 AND SWAP1 PUSH4 0x70A08231 SWAP1 PUSH2 0x40C SWAP1 ADDRESS SWAP1 PUSH1 0x4 ADD PUSH2 0x1CC0 JUMP JUMPDEST PUSH1 0x20 PUSH1 0x40 MLOAD DUP1 DUP4 SUB DUP2 DUP7 DUP1 EXTCODESIZE ISZERO DUP1 ISZERO PUSH2 0x424 JUMPI PUSH1 0x0 DUP1 REVERT JUMPDEST POP GAS STATICCALL ISZERO DUP1 ISZERO PUSH2 0x438 JUMPI RETURNDATASIZE PUSH1 0x0 DUP1 RETURNDATACOPY RETURNDATASIZE PUSH1 0x0 REVERT JUMPDEST POP POP POP POP PUSH1 0x40 MLOAD RETURNDATASIZE PUSH1 0x1F NOT PUSH1 0x1F DUP3 ADD AND DUP3 ADD DUP1 PUSH1 0x40 MSTORE POP DUP2 ADD SWAP1 PUSH2 0x45C SWAP2 SWAP1 PUSH2 0x1B8D JUMP JUMPDEST PUSH1 0x40 MLOAD PUSH32 0x95EA7B300000000000000000000000000000000000000000000000000000000 DUP2 MSTORE SWAP1 SWAP2 POP PUSH1 0x1 PUSH1 0x1 PUSH1 0xA0 SHL SUB PUSH32 0x0 AND SWAP1 PUSH4 0x95EA7B3 SWAP1 PUSH2 0x4E6 SWAP1 PUSH32 0x0 SWAP1 DUP6 SWAP1 PUSH1 0x4 ADD PUSH2 0x1D5C JUMP JUMPDEST PUSH1 0x20 PUSH1 0x40 MLOAD DUP1 DUP4 SUB DUP2 PUSH1 0x0 DUP8 DUP1 EXTCODESIZE ISZERO DUP1 ISZERO PUSH2 0x500 JUMPI PUSH1 0x0 DUP1 REVERT JUMPDEST POP GAS CALL ISZERO DUP1 ISZERO PUSH2 0x514 JUMPI RETURNDATASIZE PUSH1 0x0 DUP1 RETURNDATACOPY RETURNDATASIZE PUSH1 0x0 REVERT JUMPDEST POP POP POP POP PUSH1 0x40 MLOAD RETURNDATASIZE PUSH1 0x1F NOT PUSH1 0x1F DUP3 ADD AND DUP3 ADD DUP1 PUSH1 0x40 MSTORE POP DUP2 ADD SWAP1 PUSH2 0x538 SWAP2 SWAP1 PUSH2 0x1AF3 JUMP JUMPDEST POP PUSH1 0x40 MLOAD PUSH32 0xE8EDA9DF00000000000000000000000000000000000000000000000000000000 DUP2 MSTORE PUSH1 0x1 PUSH1 0x1 PUSH1 0xA0 SHL SUB PUSH32 0x0 AND SWAP1 PUSH4 0xE8EDA9DF SWAP1 PUSH2 0x5C5 SWAP1 PUSH32 0x0 SWAP1 DUP6 SWAP1 ADDRESS SWAP1 PUSH1 0x0 SWAP1 PUSH1 0x4 ADD PUSH2 0x1D98 JUMP JUMPDEST PUSH1 0x0 PUSH1 0x40 MLOAD DUP1 DUP4 SUB DUP2 PUSH1 0x0 DUP8 DUP1 EXTCODESIZE ISZERO DUP1 ISZERO PUSH2 0x5DF JUMPI PUSH1 0x0 DUP1 REVERT JUMPDEST POP GAS CALL ISZERO DUP1 ISZERO PUSH2 0x5F3 JUMPI RETURNDATASIZE PUSH1 0x0 DUP1 RETURNDATACOPY RETURNDATASIZE PUSH1 0x0 REVERT JUMPDEST POP POP POP POP POP JUMPDEST POP POP JUMP JUMPDEST PUSH32 0x0 SWAP1 JUMP JUMPDEST PUSH1 0x0 DUP1 PUSH32 0x0 PUSH1 0x1 PUSH1 0x1 PUSH1 0xA0 SHL SUB AND CALLER EQ PUSH2 0x66C JUMPI PUSH1 0x40 MLOAD PUSH3 0x461BCD PUSH1 0xE5 SHL DUP2 MSTORE PUSH1 0x4 ADD PUSH2 0x28D SWAP1 PUSH2 0x20A5 JUMP JUMPDEST PUSH2 0x695 PUSH32 0x0 PUSH2 0x23B JUMP JUMPDEST PUSH1 0x0 PUSH2 0x69F PUSH2 0x13E6 JUMP JUMPDEST SWAP1 POP PUSH2 0x6CB DUP6 PUSH32 0x0 PUSH2 0x149E JUMP JUMPDEST SWAP3 POP PUSH2 0x6F7 DUP2 PUSH32 0x0 PUSH2 0x149E JUMP JUMPDEST SWAP2 POP POP SWAP3 POP SWAP3 SWAP1 POP JUMP JUMPDEST PUSH8 0xDE0B6B3A7640000 SWAP1 JUMP JUMPDEST PUSH2 0x715 PUSH2 0x14B1 JUMP JUMPDEST PUSH1 0x1 PUSH1 0x1 PUSH1 0xA0 SHL SUB AND PUSH2 0x726 PUSH2 0x8AF JUMP JUMPDEST PUSH1 0x1 PUSH1 0x1 PUSH1 0xA0 SHL SUB AND EQ PUSH2 0x74C JUMPI PUSH1 0x40 MLOAD PUSH3 0x461BCD PUSH1 0xE5 SHL DUP2 MSTORE PUSH1 0x4 ADD PUSH2 0x28D SWAP1 PUSH2 0x1F00 JUMP JUMPDEST PUSH1 0x0 DUP1 SLOAD PUSH1 0x40 MLOAD PUSH1 0x1 PUSH1 0x1 PUSH1 0xA0 SHL SUB SWAP1 SWAP2 AND SWAP1 PUSH32 0x8BE0079C531659141344CD1FD0A4F28419497F9722A3DAAFE3B4186F6B6457E0 SWAP1 DUP4 SWAP1 LOG3 PUSH1 0x0 DUP1 SLOAD PUSH32 0xFFFFFFFFFFFFFFFFFFFFFFFF0000000000000000000000000000000000000000 AND SWAP1 SSTORE JUMP JUMPDEST PUSH2 0x7B6 PUSH2 0x14B1 JUMP JUMPDEST PUSH1 0x1 PUSH1 0x1 PUSH1 0xA0 SHL SUB AND PUSH2 0x7C7 PUSH2 0x8AF JUMP JUMPDEST PUSH1 0x1 PUSH1 0x1 PUSH1 0xA0 SHL SUB AND EQ PUSH2 0x7ED JUMPI PUSH1 0x40 MLOAD PUSH3 0x461BCD PUSH1 0xE5 SHL DUP2 MSTORE PUSH1 0x4 ADD PUSH2 0x28D SWAP1 PUSH2 0x1F00 JUMP JUMPDEST PUSH2 0x7F6 DUP2 PUSH2 0x14B5 JUMP JUMPDEST POP JUMP JUMPDEST PUSH1 0x60 PUSH1 0x1 DUP1 SLOAD PUSH2 0x808 SWAP1 PUSH2 0x21FB JUMP JUMPDEST DUP1 PUSH1 0x1F ADD PUSH1 0x20 DUP1 SWAP2 DIV MUL PUSH1 0x20 ADD PUSH1 0x40 MLOAD SWAP1 DUP2 ADD PUSH1 0x40 MSTORE DUP1 SWAP3 SWAP2 SWAP1 DUP2 DUP2 MSTORE PUSH1 0x20 ADD DUP3 DUP1 SLOAD PUSH2 0x834 SWAP1 PUSH2 0x21FB JUMP JUMPDEST DUP1 ISZERO PUSH2 0x881 JUMPI DUP1 PUSH1 0x1F LT PUSH2 0x856 JUMPI PUSH2 0x100 DUP1 DUP4 SLOAD DIV MUL DUP4 MSTORE SWAP2 PUSH1 0x20 ADD SWAP2 PUSH2 0x881 JUMP JUMPDEST DUP3 ADD SWAP2 SWAP1 PUSH1 0x0 MSTORE PUSH1 0x20 PUSH1 0x0 KECCAK256 SWAP1 JUMPDEST DUP2 SLOAD DUP2 MSTORE SWAP1 PUSH1 0x1 ADD SWAP1 PUSH1 0x20 ADD DUP1 DUP4 GT PUSH2 0x864 JUMPI DUP3 SWAP1 SUB PUSH1 0x1F AND DUP3 ADD SWAP2 JUMPDEST POP POP POP POP POP SWAP1 POP SWAP1 JUMP JUMPDEST PUSH32 0x0 SWAP1 JUMP JUMPDEST PUSH1 0x0 SLOAD PUSH1 0x1 PUSH1 0x1 PUSH1 0xA0 SHL SUB AND SWAP1 JUMP JUMPDEST PUSH32 0x0 SWAP1 JUMP JUMPDEST PUSH1 0x0 PUSH2 0x915 PUSH2 0x8EF PUSH2 0x13E6 JUMP JUMPDEST PUSH32 0x0 PUSH2 0x149E JUMP JUMPDEST SWAP1 POP SWAP1 JUMP JUMPDEST PUSH2 0x922 PUSH2 0x14B1 JUMP JUMPDEST PUSH1 0x1 PUSH1 0x1 PUSH1 0xA0 SHL SUB AND PUSH2 0x933 PUSH2 0x8AF JUMP JUMPDEST PUSH1 0x1 PUSH1 0x1 PUSH1 0xA0 SHL SUB AND EQ PUSH2 0x959 JUMPI PUSH1 0x40 MLOAD PUSH3 0x461BCD PUSH1 0xE5 SHL DUP2 MSTORE PUSH1 0x4 ADD PUSH2 0x28D SWAP1 PUSH2 0x1F00 JUMP JUMPDEST PUSH1 0x1 PUSH1 0x1 PUSH1 0xA0 SHL SUB DUP2 AND PUSH2 0x97F JUMPI PUSH1 0x40 MLOAD PUSH3 0x461BCD PUSH1 0xE5 SHL DUP2 MSTORE PUSH1 0x4 ADD PUSH2 0x28D SWAP1 PUSH2 0x1E6C JUMP JUMPDEST PUSH1 0x0 DUP1 SLOAD PUSH1 0x40 MLOAD PUSH1 0x1 PUSH1 0x1 PUSH1 0xA0 SHL SUB DUP1 DUP6 AND SWAP4 SWAP3 AND SWAP2 PUSH32 0x8BE0079C531659141344CD1FD0A4F28419497F9722A3DAAFE3B4186F6B6457E0 SWAP2 LOG3 PUSH1 0x0 DUP1 SLOAD PUSH32 0xFFFFFFFFFFFFFFFFFFFFFFFF0000000000000000000000000000000000000000 AND PUSH1 0x1 PUSH1 0x1 PUSH1 0xA0 SHL SUB SWAP3 SWAP1 SWAP3 AND SWAP2 SWAP1 SWAP2 OR SWAP1 SSTORE JUMP JUMPDEST PUSH1 0x0 DUP1 DUP1 DUP1 PUSH32 0x0 PUSH1 0x1 PUSH1 0x1 PUSH1 0xA0 SHL SUB AND CALLER EQ PUSH2 0xA3F JUMPI PUSH1 0x40 MLOAD PUSH3 0x461BCD PUSH1 0xE5 SHL DUP2 MSTORE PUSH1 0x4 ADD PUSH2 0x28D SWAP1 PUSH2 0x20A5 JUMP JUMPDEST DUP6 PUSH2 0xA6D JUMPI PUSH2 0xA6D PUSH32 0x0 PUSH2 0x23B JUMP JUMPDEST PUSH2 0xA90 PUSH2 0xA82 DUP9 PUSH2 0xA7C PUSH2 0x13E6 JUMP JUMPDEST SWAP1 PUSH2 0x1503 JUMP JUMPDEST PUSH8 0xDE0B6B3A7640000 PUSH2 0x155D JUMP JUMPDEST PUSH1 0x40 MLOAD PUSH32 0x69328DEC00000000000000000000000000000000000000000000000000000000 DUP2 MSTORE SWAP1 SWAP4 POP PUSH1 0x1 PUSH1 0x1 PUSH1 0xA0 SHL SUB PUSH32 0x0 AND SWAP1 PUSH4 0x69328DEC SWAP1 PUSH2 0xB1C SWAP1 PUSH32 0x0 SWAP1 DUP8 SWAP1 ADDRESS SWAP1 PUSH1 0x4 ADD PUSH2 0x1D75 JUMP JUMPDEST PUSH1 0x20 PUSH1 0x40 MLOAD DUP1 DUP4 SUB DUP2 PUSH1 0x0 DUP8 DUP1 EXTCODESIZE ISZERO DUP1 ISZERO PUSH2 0xB36 JUMPI PUSH1 0x0 DUP1 REVERT JUMPDEST POP GAS CALL ISZERO DUP1 ISZERO PUSH2 0xB4A JUMPI RETURNDATASIZE PUSH1 0x0 DUP1 RETURNDATACOPY RETURNDATASIZE PUSH1 0x0 REVERT JUMPDEST POP POP POP POP PUSH1 0x40 MLOAD RETURNDATASIZE PUSH1 0x1F NOT PUSH1 0x1F DUP3 ADD AND DUP3 ADD DUP1 PUSH1 0x40 MSTORE POP DUP2 ADD SWAP1 PUSH2 0xB6E SWAP2 SWAP1 PUSH2 0x1B8D JUMP JUMPDEST POP PUSH1 0x40 MLOAD PUSH32 0x95EA7B300000000000000000000000000000000000000000000000000000000 DUP2 MSTORE PUSH1 0x1 PUSH1 0x1 PUSH1 0xA0 SHL SUB PUSH32 0x0 AND SWAP1 PUSH4 0x95EA7B3 SWAP1 PUSH2 0xBF6 SWAP1 PUSH32 0x0 SWAP1 DUP8 SWAP1 PUSH1 0x4 ADD PUSH2 0x1D5C JUMP JUMPDEST PUSH1 0x20 PUSH1 0x40 MLOAD DUP1 DUP4 SUB DUP2 PUSH1 0x0 DUP8 DUP1 EXTCODESIZE ISZERO DUP1 ISZERO PUSH2 0xC10 JUMPI PUSH1 0x0 DUP1 REVERT JUMPDEST POP GAS CALL ISZERO DUP1 ISZERO PUSH2 0xC24 JUMPI RETURNDATASIZE PUSH1 0x0 DUP1 RETURNDATACOPY RETURNDATASIZE PUSH1 0x0 REVERT JUMPDEST POP POP POP POP PUSH1 0x40 MLOAD RETURNDATASIZE PUSH1 0x1F NOT PUSH1 0x1F DUP3 ADD AND DUP3 ADD DUP1 PUSH1 0x40 MSTORE POP DUP2 ADD SWAP1 PUSH2 0xC48 SWAP2 SWAP1 PUSH2 0x1AF3 JUMP JUMPDEST POP PUSH2 0xC73 DUP4 PUSH32 0x0 PUSH2 0x149E JUMP JUMPDEST SWAP2 POP PUSH2 0xC80 PUSH2 0x8EF PUSH2 0x13E6 JUMP JUMPDEST SWAP1 POP PUSH32 0x0 SWAP4 POP SWAP4 POP SWAP4 POP SWAP4 POP SWAP4 JUMP JUMPDEST PUSH2 0xCB6 PUSH2 0x14B1 JUMP JUMPDEST PUSH1 0x1 PUSH1 0x1 PUSH1 0xA0 SHL SUB AND PUSH2 0xCC7 PUSH2 0x8AF JUMP JUMPDEST PUSH1 0x1 PUSH1 0x1 PUSH1 0xA0 SHL SUB AND EQ PUSH2 0xCED JUMPI PUSH1 0x40 MLOAD PUSH3 0x461BCD PUSH1 0xE5 SHL DUP2 MSTORE PUSH1 0x4 ADD PUSH2 0x28D SWAP1 PUSH2 0x1F00 JUMP JUMPDEST PUSH32 0x0 PUSH1 0x1 PUSH1 0x1 PUSH1 0xA0 SHL SUB AND DUP3 PUSH1 0x1 PUSH1 0x1 PUSH1 0xA0 SHL SUB AND EQ ISZERO DUP1 ISZERO PUSH2 0xD61 JUMPI POP PUSH32 0x0 PUSH1 0x1 PUSH1 0x1 PUSH1 0xA0 SHL SUB AND DUP3 PUSH1 0x1 PUSH1 0x1 PUSH1 0xA0 SHL SUB AND EQ ISZERO JUMPDEST ISZERO PUSH2 0x5F9 JUMPI PUSH1 0x40 MLOAD PUSH32 0x70A0823100000000000000000000000000000000000000000000000000000000 DUP2 MSTORE PUSH1 0x0 SWAP1 PUSH1 0x1 PUSH1 0x1 PUSH1 0xA0 SHL SUB DUP5 AND SWAP1 PUSH4 0x70A08231 SWAP1 PUSH2 0xDAE SWAP1 ADDRESS SWAP1 PUSH1 0x4 ADD PUSH2 0x1CC0 JUMP JUMPDEST PUSH1 0x20 PUSH1 0x40 MLOAD DUP1 DUP4 SUB DUP2 DUP7 DUP1 EXTCODESIZE ISZERO DUP1 ISZERO PUSH2 0xDC6 JUMPI PUSH1 0x0 DUP1 REVERT JUMPDEST POP GAS STATICCALL ISZERO DUP1 ISZERO PUSH2 0xDDA JUMPI RETURNDATASIZE PUSH1 0x0 DUP1 RETURNDATACOPY RETURNDATASIZE PUSH1 0x0 REVERT JUMPDEST POP POP POP POP PUSH1 0x40 MLOAD RETURNDATASIZE PUSH1 0x1F NOT PUSH1 0x1F DUP3 ADD AND DUP3 ADD DUP1 PUSH1 0x40 MSTORE POP DUP2 ADD SWAP1 PUSH2 0xDFE SWAP2 SWAP1 PUSH2 0x1B8D JUMP JUMPDEST PUSH1 0x40 MLOAD PUSH32 0xA9059CBB00000000000000000000000000000000000000000000000000000000 DUP2 MSTORE SWAP1 SWAP2 POP PUSH1 0x1 PUSH1 0x1 PUSH1 0xA0 SHL SUB DUP5 AND SWAP1 PUSH4 0xA9059CBB SWAP1 PUSH2 0xE48 SWAP1 DUP6 SWAP1 DUP6 SWAP1 PUSH1 0x4 ADD PUSH2 0x1D5C JUMP JUMPDEST PUSH1 0x20 PUSH1 0x40 MLOAD DUP1 DUP4 SUB DUP2 PUSH1 0x0 DUP8 DUP1 EXTCODESIZE ISZERO DUP1 ISZERO PUSH2 0xE62 JUMPI PUSH1 0x0 DUP1 REVERT JUMPDEST POP GAS CALL ISZERO DUP1 ISZERO PUSH2 0xE76 JUMPI RETURNDATASIZE PUSH1 0x0 DUP1 RETURNDATACOPY RETURNDATASIZE PUSH1 0x0 REVERT JUMPDEST POP POP POP POP PUSH1 0x40 MLOAD RETURNDATASIZE PUSH1 0x1F NOT PUSH1 0x1F DUP3 ADD AND DUP3 ADD DUP1 PUSH1 0x40 MSTORE POP DUP2 ADD SWAP1 PUSH2 0xE9A SWAP2 SWAP1 PUSH2 0x1AF3 JUMP JUMPDEST POP POP POP POP JUMP JUMPDEST PUSH32 0x0 SWAP1 JUMP JUMPDEST PUSH1 0x0 DUP4 PUSH1 0x1 PUSH1 0x1 PUSH1 0xA0 SHL SUB AND DUP6 PUSH1 0x1 PUSH1 0x1 PUSH1 0xA0 SHL SUB AND EQ ISZERO PUSH2 0xEF8 JUMPI PUSH1 0x40 MLOAD PUSH3 0x461BCD PUSH1 0xE5 SHL DUP2 MSTORE PUSH1 0x4 ADD PUSH2 0x28D SWAP1 PUSH2 0x1F6C JUMP JUMPDEST PUSH1 0x0 PUSH2 0xF06 DUP7 DUP7 DUP7 DUP7 PUSH2 0x1569 JUMP JUMPDEST SWAP1 POP PUSH1 0x0 PUSH32 0x0 PUSH1 0x1 PUSH1 0x1 PUSH1 0xA0 SHL SUB AND PUSH4 0x18F51FEA PUSH1 0x40 MLOAD DUP2 PUSH4 0xFFFFFFFF AND PUSH1 0xE0 SHL DUP2 MSTORE PUSH1 0x4 ADD PUSH1 0x20 PUSH1 0x40 MLOAD DUP1 DUP4 SUB DUP2 DUP7 DUP1 EXTCODESIZE ISZERO DUP1 ISZERO PUSH2 0xF63 JUMPI PUSH1 0x0 DUP1 REVERT JUMPDEST POP GAS STATICCALL ISZERO DUP1 ISZERO PUSH2 0xF77 JUMPI RETURNDATASIZE PUSH1 0x0 DUP1 RETURNDATACOPY RETURNDATASIZE PUSH1 0x0 REVERT JUMPDEST POP POP POP POP PUSH1 0x40 MLOAD RETURNDATASIZE PUSH1 0x1F NOT PUSH1 0x1F DUP3 ADD AND DUP3 ADD DUP1 PUSH1 0x40 MSTORE POP DUP2 ADD SWAP1 PUSH2 0xF9B SWAP2 SWAP1 PUSH2 0x1AD7 JUMP JUMPDEST SWAP1 POP PUSH1 0x0 DUP2 PUSH1 0x1 PUSH1 0x1 PUSH1 0xA0 SHL SUB AND PUSH4 0x4AA06652 DUP10 DUP10 DUP10 PUSH1 0x40 MLOAD DUP5 PUSH4 0xFFFFFFFF AND PUSH1 0xE0 SHL DUP2 MSTORE PUSH1 0x4 ADD PUSH2 0xFCF SWAP4 SWAP3 SWAP2 SWAP1 PUSH2 0x1CEE JUMP JUMPDEST PUSH1 0x20 PUSH1 0x40 MLOAD DUP1 DUP4 SUB DUP2 DUP7 DUP1 EXTCODESIZE ISZERO DUP1 ISZERO PUSH2 0xFE7 JUMPI PUSH1 0x0 DUP1 REVERT JUMPDEST POP GAS STATICCALL ISZERO DUP1 ISZERO PUSH2 0xFFB JUMPI RETURNDATASIZE PUSH1 0x0 DUP1 RETURNDATACOPY RETURNDATASIZE PUSH1 0x0 REVERT JUMPDEST POP POP POP POP PUSH1 0x40 MLOAD RETURNDATASIZE PUSH1 0x1F NOT PUSH1 0x1F DUP3 ADD AND DUP3 ADD DUP1 PUSH1 0x40 MSTORE POP DUP2 ADD SWAP1 PUSH2 0x101F SWAP2 SWAP1 PUSH2 0x1B8D JUMP JUMPDEST SWAP1 POP DUP3 DUP2 LT ISZERO PUSH2 0x1041 JUMPI PUSH1 0x40 MLOAD PUSH3 0x461BCD PUSH1 0xE5 SHL DUP2 MSTORE PUSH1 0x4 ADD PUSH2 0x28D SWAP1 PUSH2 0x2011 JUMP JUMPDEST DUP6 ISZERO PUSH2 0x105B JUMPI PUSH2 0x105B PUSH1 0x1 PUSH1 0x1 PUSH1 0xA0 SHL SUB DUP10 AND DUP4 DUP9 PUSH2 0x16AB JUMP JUMPDEST PUSH1 0x40 MLOAD PUSH32 0x70A0823100000000000000000000000000000000000000000000000000000000 DUP2 MSTORE PUSH1 0x0 SWAP1 PUSH1 0x1 PUSH1 0x1 PUSH1 0xA0 SHL SUB DUP11 AND SWAP1 PUSH4 0x70A08231 SWAP1 PUSH2 0x10A3 SWAP1 ADDRESS SWAP1 PUSH1 0x4 ADD PUSH2 0x1CC0 JUMP JUMPDEST PUSH1 0x20 PUSH1 0x40 MLOAD DUP1 DUP4 SUB DUP2 DUP7 DUP1 EXTCODESIZE ISZERO DUP1 ISZERO PUSH2 0x10BB JUMPI PUSH1 0x0 DUP1 REVERT JUMPDEST POP GAS STATICCALL ISZERO DUP1 ISZERO PUSH2 0x10CF JUMPI RETURNDATASIZE PUSH1 0x0 DUP1 RETURNDATACOPY RETURNDATASIZE PUSH1 0x0 REVERT JUMPDEST POP POP POP POP PUSH1 0x40 MLOAD RETURNDATASIZE PUSH1 0x1F NOT PUSH1 0x1F DUP3 ADD AND DUP3 ADD DUP1 PUSH1 0x40 MSTORE POP DUP2 ADD SWAP1 PUSH2 0x10F3 SWAP2 SWAP1 PUSH2 0x1B8D JUMP JUMPDEST SWAP1 POP PUSH1 0x0 DUP9 PUSH1 0x1 PUSH1 0x1 PUSH1 0xA0 SHL SUB AND PUSH4 0x70A08231 ADDRESS PUSH1 0x40 MLOAD DUP3 PUSH4 0xFFFFFFFF AND PUSH1 0xE0 SHL DUP2 MSTORE PUSH1 0x4 ADD PUSH2 0x1123 SWAP2 SWAP1 PUSH2 0x1CC0 JUMP JUMPDEST PUSH1 0x20 PUSH1 0x40 MLOAD DUP1 DUP4 SUB DUP2 DUP7 DUP1 EXTCODESIZE ISZERO DUP1 ISZERO PUSH2 0x113B JUMPI PUSH1 0x0 DUP1 REVERT JUMPDEST POP GAS STATICCALL ISZERO DUP1 ISZERO PUSH2 0x114F JUMPI RETURNDATASIZE PUSH1 0x0 DUP1 RETURNDATACOPY RETURNDATASIZE PUSH1 0x0 REVERT JUMPDEST POP POP POP POP PUSH1 0x40 MLOAD RETURNDATASIZE PUSH1 0x1F NOT PUSH1 0x1F DUP3 ADD AND DUP3 ADD DUP1 PUSH1 0x40 MSTORE POP DUP2 ADD SWAP1 PUSH2 0x1173 SWAP2 SWAP1 PUSH2 0x1B8D JUMP JUMPDEST SWAP1 POP PUSH1 0x0 DUP1 PUSH1 0x1 PUSH1 0x1 PUSH1 0xA0 SHL SUB DUP7 AND PUSH4 0x16725787 DUP14 DUP14 DUP14 DUP12 TIMESTAMP DUP8 PUSH1 0x40 MLOAD SWAP1 DUP1 DUP3 MSTORE DUP1 PUSH1 0x1F ADD PUSH1 0x1F NOT AND PUSH1 0x20 ADD DUP3 ADD PUSH1 0x40 MSTORE DUP1 ISZERO PUSH2 0x11B7 JUMPI PUSH1 0x20 DUP3 ADD DUP2 DUP1 CALLDATASIZE DUP4 CALLDATACOPY ADD SWAP1 POP JUMPDEST POP PUSH1 0x40 MLOAD DUP8 PUSH4 0xFFFFFFFF AND PUSH1 0xE0 SHL DUP2 MSTORE PUSH1 0x4 ADD PUSH2 0x11D9 SWAP7 SWAP6 SWAP5 SWAP4 SWAP3 SWAP2 SWAP1 PUSH2 0x1D12 JUMP JUMPDEST PUSH1 0x40 DUP1 MLOAD DUP1 DUP4 SUB DUP2 PUSH1 0x0 DUP8 DUP1 EXTCODESIZE ISZERO DUP1 ISZERO PUSH2 0x11F2 JUMPI PUSH1 0x0 DUP1 REVERT JUMPDEST POP GAS CALL ISZERO DUP1 ISZERO PUSH2 0x1206 JUMPI RETURNDATASIZE PUSH1 0x0 DUP1 RETURNDATACOPY RETURNDATASIZE PUSH1 0x0 REVERT JUMPDEST POP POP POP POP PUSH1 0x40 MLOAD RETURNDATASIZE PUSH1 0x1F NOT PUSH1 0x1F DUP3 ADD AND DUP3 ADD DUP1 PUSH1 0x40 MSTORE POP DUP2 ADD SWAP1 PUSH2 0x122A SWAP2 SWAP1 PUSH2 0x1C37 JUMP JUMPDEST SWAP2 POP SWAP2 POP DUP7 DUP2 LT ISZERO PUSH2 0x124E JUMPI PUSH1 0x40 MLOAD PUSH3 0x461BCD PUSH1 0xE5 SHL DUP2 MSTORE PUSH1 0x4 ADD PUSH2 0x28D SWAP1 PUSH2 0x1DFE JUMP JUMPDEST PUSH1 0x40 MLOAD PUSH32 0x70A0823100000000000000000000000000000000000000000000000000000000 DUP2 MSTORE PUSH1 0x0 SWAP1 PUSH1 0x1 PUSH1 0x1 PUSH1 0xA0 SHL SUB DUP15 AND SWAP1 PUSH4 0x70A08231 SWAP1 PUSH2 0x1296 SWAP1 ADDRESS SWAP1 PUSH1 0x4 ADD PUSH2 0x1CC0 JUMP JUMPDEST PUSH1 0x20 PUSH1 0x40 MLOAD DUP1 DUP4 SUB DUP2 DUP7 DUP1 EXTCODESIZE ISZERO DUP1 ISZERO PUSH2 0x12AE JUMPI PUSH1 0x0 DUP1 REVERT JUMPDEST POP GAS STATICCALL ISZERO DUP1 ISZERO PUSH2 0x12C2 JUMPI RETURNDATASIZE PUSH1 0x0 DUP1 RETURNDATACOPY RETURNDATASIZE PUSH1 0x0 REVERT JUMPDEST POP POP POP POP PUSH1 0x40 MLOAD RETURNDATASIZE PUSH1 0x1F NOT PUSH1 0x1F DUP3 ADD AND DUP3 ADD DUP1 PUSH1 0x40 MSTORE POP DUP2 ADD SWAP1 PUSH2 0x12E6 SWAP2 SWAP1 PUSH2 0x1B8D JUMP JUMPDEST SWAP1 POP PUSH2 0x12F2 DUP6 DUP5 PUSH2 0x1751 JUMP JUMPDEST DUP2 LT ISZERO PUSH2 0x1311 JUMPI PUSH1 0x40 MLOAD PUSH3 0x461BCD PUSH1 0xE5 SHL DUP2 MSTORE PUSH1 0x4 ADD PUSH2 0x28D SWAP1 PUSH2 0x1EC9 JUMP JUMPDEST PUSH1 0x40 MLOAD PUSH32 0x70A0823100000000000000000000000000000000000000000000000000000000 DUP2 MSTORE PUSH1 0x0 SWAP1 PUSH1 0x1 PUSH1 0x1 PUSH1 0xA0 SHL SUB DUP15 AND SWAP1 PUSH4 0x70A08231 SWAP1 PUSH2 0x1359 SWAP1 ADDRESS SWAP1 PUSH1 0x4 ADD PUSH2 0x1CC0 JUMP JUMPDEST PUSH1 0x20 PUSH1 0x40 MLOAD DUP1 DUP4 SUB DUP2 DUP7 DUP1 EXTCODESIZE ISZERO DUP1 ISZERO PUSH2 0x1371 JUMPI PUSH1 0x0 DUP1 REVERT JUMPDEST POP GAS STATICCALL ISZERO DUP1 ISZERO PUSH2 0x1385 JUMPI RETURNDATASIZE PUSH1 0x0 DUP1 RETURNDATACOPY RETURNDATASIZE PUSH1 0x0 REVERT JUMPDEST POP POP POP POP PUSH1 0x40 MLOAD RETURNDATASIZE PUSH1 0x1F NOT PUSH1 0x1F DUP3 ADD AND DUP3 ADD DUP1 PUSH1 0x40 MSTORE POP DUP2 ADD SWAP1 PUSH2 0x13A9 SWAP2 SWAP1 PUSH2 0x1B8D JUMP JUMPDEST SWAP1 POP PUSH2 0x13B5 DUP6 DUP5 PUSH2 0x1751 JUMP JUMPDEST DUP2 LT ISZERO PUSH2 0x13D4 JUMPI PUSH1 0x40 MLOAD PUSH3 0x461BCD PUSH1 0xE5 SHL DUP2 MSTORE PUSH1 0x4 ADD PUSH2 0x28D SWAP1 PUSH2 0x1FDA JUMP JUMPDEST POP SWAP1 SWAP13 SWAP12 POP POP POP POP POP POP POP POP POP POP POP POP JUMP JUMPDEST PUSH1 0x40 MLOAD PUSH32 0x70A0823100000000000000000000000000000000000000000000000000000000 DUP2 MSTORE PUSH1 0x0 SWAP1 PUSH1 0x1 PUSH1 0x1 PUSH1 0xA0 SHL SUB PUSH32 0x0 AND SWAP1 PUSH4 0x70A08231 SWAP1 PUSH2 0x144E SWAP1 ADDRESS SWAP1 PUSH1 0x4 ADD PUSH2 0x1CC0 JUMP JUMPDEST PUSH1 0x20 PUSH1 0x40 MLOAD DUP1 DUP4 SUB DUP2 DUP7 DUP1 EXTCODESIZE ISZERO DUP1 ISZERO PUSH2 0x1466 JUMPI PUSH1 0x0 DUP1 REVERT JUMPDEST POP GAS STATICCALL ISZERO DUP1 ISZERO PUSH2 0x147A JUMPI RETURNDATASIZE PUSH1 0x0 DUP1 RETURNDATACOPY RETURNDATASIZE PUSH1 0x0 REVERT JUMPDEST POP POP POP POP PUSH1 0x40 MLOAD RETURNDATASIZE PUSH1 0x1F NOT PUSH1 0x1F DUP3 ADD AND DUP3 ADD DUP1 PUSH1 0x40 MSTORE POP DUP2 ADD SWAP1 PUSH2 0x915 SWAP2 SWAP1 PUSH2 0x1B8D JUMP JUMPDEST PUSH1 0x0 PUSH2 0x14AA DUP3 DUP5 PUSH2 0x217B JUMP JUMPDEST SWAP4 SWAP3 POP POP POP JUMP JUMPDEST CALLER SWAP1 JUMP JUMPDEST DUP1 MLOAD PUSH2 0x14C8 SWAP1 PUSH1 0x1 SWAP1 PUSH1 0x20 DUP5 ADD SWAP1 PUSH2 0x1975 JUMP JUMPDEST POP PUSH32 0x8D2DF192DD17EDF92A7964B78AA322F3D717B2AB9DE00651BEE32BBC4C5DA63A DUP2 PUSH1 0x40 MLOAD PUSH2 0x14F8 SWAP2 SWAP1 PUSH2 0x1DEB JUMP JUMPDEST PUSH1 0x40 MLOAD DUP1 SWAP2 SUB SWAP1 LOG1 POP JUMP JUMPDEST PUSH1 0x0 DUP1 PUSH2 0x1510 DUP4 DUP6 PUSH2 0x217B JUMP JUMPDEST SWAP1 POP DUP4 ISZERO DUP1 PUSH2 0x1527 JUMPI POP DUP3 PUSH2 0x1525 DUP6 DUP4 PUSH2 0x2142 JUMP JUMPDEST EQ JUMPDEST PUSH2 0x1543 JUMPI PUSH1 0x40 MLOAD PUSH3 0x461BCD PUSH1 0xE5 SHL DUP2 MSTORE PUSH1 0x4 ADD PUSH2 0x28D SWAP1 PUSH2 0x20DC JUMP JUMPDEST PUSH2 0x1555 PUSH8 0xDE0B6B3A7640000 DUP3 PUSH2 0x2142 JUMP JUMPDEST SWAP5 SWAP4 POP POP POP POP JUMP JUMPDEST PUSH1 0x0 PUSH2 0x14AA DUP3 DUP5 PUSH2 0x2142 JUMP JUMPDEST PUSH1 0x0 DUP1 PUSH32 0x0 PUSH1 0x1 PUSH1 0x1 PUSH1 0xA0 SHL SUB AND PUSH4 0x2630C12F PUSH1 0x40 MLOAD DUP2 PUSH4 0xFFFFFFFF AND PUSH1 0xE0 SHL DUP2 MSTORE PUSH1 0x4 ADD PUSH1 0x20 PUSH1 0x40 MLOAD DUP1 DUP4 SUB DUP2 DUP7 DUP1 EXTCODESIZE ISZERO DUP1 ISZERO PUSH2 0x15C5 JUMPI PUSH1 0x0 DUP1 REVERT JUMPDEST POP GAS STATICCALL ISZERO DUP1 ISZERO PUSH2 0x15D9 JUMPI RETURNDATASIZE PUSH1 0x0 DUP1 RETURNDATACOPY RETURNDATASIZE PUSH1 0x0 REVERT JUMPDEST POP POP POP POP PUSH1 0x40 MLOAD RETURNDATASIZE PUSH1 0x1F NOT PUSH1 0x1F DUP3 ADD AND DUP3 ADD DUP1 PUSH1 0x40 MSTORE POP DUP2 ADD SWAP1 PUSH2 0x15FD SWAP2 SWAP1 PUSH2 0x1AD7 JUMP JUMPDEST PUSH1 0x1 PUSH1 0x1 PUSH1 0xA0 SHL SUB AND PUSH4 0xAFA99860 DUP7 DUP9 PUSH1 0x40 MLOAD DUP4 PUSH4 0xFFFFFFFF AND PUSH1 0xE0 SHL DUP2 MSTORE PUSH1 0x4 ADD PUSH2 0x162A SWAP3 SWAP2 SWAP1 PUSH2 0x1CD4 JUMP JUMPDEST PUSH1 0x20 PUSH1 0x40 MLOAD DUP1 DUP4 SUB DUP2 DUP7 DUP1 EXTCODESIZE ISZERO DUP1 ISZERO PUSH2 0x1642 JUMPI PUSH1 0x0 DUP1 REVERT JUMPDEST POP GAS STATICCALL ISZERO DUP1 ISZERO PUSH2 0x1656 JUMPI RETURNDATASIZE PUSH1 0x0 DUP1 RETURNDATACOPY RETURNDATASIZE PUSH1 0x0 REVERT JUMPDEST POP POP POP POP PUSH1 0x40 MLOAD RETURNDATASIZE PUSH1 0x1F NOT PUSH1 0x1F DUP3 ADD AND DUP3 ADD DUP1 PUSH1 0x40 MSTORE POP DUP2 ADD SWAP1 PUSH2 0x167A SWAP2 SWAP1 PUSH2 0x1B8D JUMP JUMPDEST SWAP1 POP PUSH2 0x16A1 PUSH2 0x1691 DUP5 PUSH8 0xDE0B6B3A7640000 PUSH2 0x21B8 JUMP JUMPDEST PUSH2 0x169B DUP7 DUP5 PUSH2 0x1780 JUMP JUMPDEST SWAP1 PUSH2 0x1780 JUMP JUMPDEST SWAP7 SWAP6 POP POP POP POP POP POP JUMP JUMPDEST PUSH2 0x174C DUP4 PUSH4 0xA9059CBB PUSH1 0xE0 SHL DUP5 DUP5 PUSH1 0x40 MLOAD PUSH1 0x24 ADD PUSH2 0x16CA SWAP3 SWAP2 SWAP1 PUSH2 0x1D5C JUMP JUMPDEST PUSH1 0x40 DUP1 MLOAD PUSH32 0xFFFFFFFFFFFFFFFFFFFFFFFFFFFFFFFFFFFFFFFFFFFFFFFFFFFFFFFFFFFFFFE0 DUP2 DUP5 SUB ADD DUP2 MSTORE SWAP2 SWAP1 MSTORE PUSH1 0x20 DUP2 ADD DUP1 MLOAD PUSH28 0xFFFFFFFFFFFFFFFFFFFFFFFFFFFFFFFFFFFFFFFFFFFFFFFFFFFFFFFF AND PUSH32 0xFFFFFFFF00000000000000000000000000000000000000000000000000000000 SWAP1 SWAP4 AND SWAP3 SWAP1 SWAP3 OR SWAP1 SWAP2 MSTORE PUSH2 0x17FE JUMP JUMPDEST POP POP POP JUMP JUMPDEST PUSH1 0x0 DUP1 PUSH2 0x175E DUP4 DUP6 PUSH2 0x212A JUMP JUMPDEST SWAP1 POP DUP4 DUP2 LT ISZERO PUSH2 0x14AA JUMPI PUSH1 0x40 MLOAD PUSH3 0x461BCD PUSH1 0xE5 SHL DUP2 MSTORE PUSH1 0x4 ADD PUSH2 0x28D SWAP1 PUSH2 0x1F35 JUMP JUMPDEST PUSH1 0x0 DUP1 PUSH2 0x178D DUP4 DUP6 PUSH2 0x217B JUMP JUMPDEST SWAP1 POP DUP4 ISZERO DUP1 PUSH2 0x17A4 JUMPI POP DUP3 PUSH2 0x17A2 DUP6 DUP4 PUSH2 0x2142 JUMP JUMPDEST EQ JUMPDEST PUSH2 0x17C0 JUMPI PUSH1 0x40 MLOAD PUSH3 0x461BCD PUSH1 0xE5 SHL DUP2 MSTORE PUSH1 0x4 ADD PUSH2 0x28D SWAP1 PUSH2 0x20DC JUMP JUMPDEST DUP1 ISZERO PUSH2 0x17F4 JUMPI PUSH8 0xDE0B6B3A7640000 PUSH2 0x17DA PUSH1 0x1 DUP4 PUSH2 0x21B8 JUMP JUMPDEST PUSH2 0x17E4 SWAP2 SWAP1 PUSH2 0x2142 JUMP JUMPDEST PUSH2 0x17EF SWAP1 PUSH1 0x1 PUSH2 0x212A JUMP JUMPDEST PUSH2 0x1555 JUMP JUMPDEST POP PUSH1 0x0 SWAP4 SWAP3 POP POP POP JUMP JUMPDEST PUSH1 0x0 PUSH2 0x1853 DUP3 PUSH1 0x40 MLOAD DUP1 PUSH1 0x40 ADD PUSH1 0x40 MSTORE DUP1 PUSH1 0x20 DUP2 MSTORE PUSH1 0x20 ADD PUSH32 0x5361666545524332303A206C6F772D6C6576656C2063616C6C206661696C6564 DUP2 MSTORE POP DUP6 PUSH1 0x1 PUSH1 0x1 PUSH1 0xA0 SHL SUB AND PUSH2 0x188D SWAP1 SWAP3 SWAP2 SWAP1 PUSH4 0xFFFFFFFF AND JUMP JUMPDEST DUP1 MLOAD SWAP1 SWAP2 POP ISZERO PUSH2 0x174C JUMPI DUP1 DUP1 PUSH1 0x20 ADD SWAP1 MLOAD DUP2 ADD SWAP1 PUSH2 0x1871 SWAP2 SWAP1 PUSH2 0x1AF3 JUMP JUMPDEST PUSH2 0x174C JUMPI PUSH1 0x40 MLOAD PUSH3 0x461BCD PUSH1 0xE5 SHL DUP2 MSTORE PUSH1 0x4 ADD PUSH2 0x28D SWAP1 PUSH2 0x2048 JUMP JUMPDEST PUSH1 0x60 PUSH2 0x1555 DUP5 DUP5 PUSH1 0x0 DUP6 DUP6 PUSH2 0x18A1 DUP6 PUSH2 0x1936 JUMP JUMPDEST PUSH2 0x18BD JUMPI PUSH1 0x40 MLOAD PUSH3 0x461BCD PUSH1 0xE5 SHL DUP2 MSTORE PUSH1 0x4 ADD PUSH2 0x28D SWAP1 PUSH2 0x1FA3 JUMP JUMPDEST PUSH1 0x0 DUP1 DUP7 PUSH1 0x1 PUSH1 0x1 PUSH1 0xA0 SHL SUB AND DUP6 DUP8 PUSH1 0x40 MLOAD PUSH2 0x18D9 SWAP2 SWAP1 PUSH2 0x1CA4 JUMP JUMPDEST PUSH1 0x0 PUSH1 0x40 MLOAD DUP1 DUP4 SUB DUP2 DUP6 DUP8 GAS CALL SWAP3 POP POP POP RETURNDATASIZE DUP1 PUSH1 0x0 DUP2 EQ PUSH2 0x1916 JUMPI PUSH1 0x40 MLOAD SWAP2 POP PUSH1 0x1F NOT PUSH1 0x3F RETURNDATASIZE ADD AND DUP3 ADD PUSH1 0x40 MSTORE RETURNDATASIZE DUP3 MSTORE RETURNDATASIZE PUSH1 0x0 PUSH1 0x20 DUP5 ADD RETURNDATACOPY PUSH2 0x191B JUMP JUMPDEST PUSH1 0x60 SWAP2 POP JUMPDEST POP SWAP2 POP SWAP2 POP PUSH2 0x192B DUP3 DUP3 DUP7 PUSH2 0x193C JUMP JUMPDEST SWAP8 SWAP7 POP POP POP POP POP POP POP JUMP JUMPDEST EXTCODESIZE ISZERO ISZERO SWAP1 JUMP JUMPDEST PUSH1 0x60 DUP4 ISZERO PUSH2 0x194B JUMPI POP DUP2 PUSH2 0x14AA JUMP JUMPDEST DUP3 MLOAD ISZERO PUSH2 0x195B JUMPI DUP3 MLOAD DUP1 DUP5 PUSH1 0x20 ADD REVERT JUMPDEST DUP2 PUSH1 0x40 MLOAD PUSH3 0x461BCD PUSH1 0xE5 SHL DUP2 MSTORE PUSH1 0x4 ADD PUSH2 0x28D SWAP2 SWAP1 PUSH2 0x1DEB JUMP JUMPDEST DUP3 DUP1 SLOAD PUSH2 0x1981 SWAP1 PUSH2 0x21FB JUMP JUMPDEST SWAP1 PUSH1 0x0 MSTORE PUSH1 0x20 PUSH1 0x0 KECCAK256 SWAP1 PUSH1 0x1F ADD PUSH1 0x20 SWAP1 DIV DUP2 ADD SWAP3 DUP3 PUSH2 0x19A3 JUMPI PUSH1 0x0 DUP6 SSTORE PUSH2 0x19E9 JUMP JUMPDEST DUP3 PUSH1 0x1F LT PUSH2 0x19BC JUMPI DUP1 MLOAD PUSH1 0xFF NOT AND DUP4 DUP1 ADD OR DUP6 SSTORE PUSH2 0x19E9 JUMP JUMPDEST DUP3 DUP1 ADD PUSH1 0x1 ADD DUP6 SSTORE DUP3 ISZERO PUSH2 0x19E9 JUMPI SWAP2 DUP3 ADD JUMPDEST DUP3 DUP2 GT ISZERO PUSH2 0x19E9 JUMPI DUP3 MLOAD DUP3 SSTORE SWAP2 PUSH1 0x20 ADD SWAP2 SWAP1 PUSH1 0x1 ADD SWAP1 PUSH2 0x19CE JUMP JUMPDEST POP PUSH2 0x19F5 SWAP3 SWAP2 POP PUSH2 0x19F9 JUMP JUMPDEST POP SWAP1 JUMP JUMPDEST JUMPDEST DUP1 DUP3 GT ISZERO PUSH2 0x19F5 JUMPI PUSH1 0x0 DUP2 SSTORE PUSH1 0x1 ADD PUSH2 0x19FA JUMP JUMPDEST PUSH1 0x0 PUSH8 0xFFFFFFFFFFFFFFFF DUP1 DUP5 GT ISZERO PUSH2 0x1A29 JUMPI PUSH2 0x1A29 PUSH2 0x227E JUMP JUMPDEST PUSH1 0x40 MLOAD PUSH1 0x20 PUSH32 0xFFFFFFFFFFFFFFFFFFFFFFFFFFFFFFFFFFFFFFFFFFFFFFFFFFFFFFFFFFFFFFE0 PUSH1 0x1F DUP8 ADD AND DUP3 ADD ADD DUP2 DUP2 LT DUP4 DUP3 GT OR ISZERO PUSH2 0x1A6B JUMPI PUSH2 0x1A6B PUSH2 0x227E JUMP JUMPDEST PUSH1 0x40 MSTORE DUP5 DUP2 MSTORE SWAP2 POP DUP2 DUP4 DUP6 ADD DUP7 LT ISZERO PUSH2 0x1A83 JUMPI PUSH1 0x0 DUP1 REVERT JUMPDEST DUP5 DUP5 PUSH1 0x20 DUP4 ADD CALLDATACOPY PUSH1 0x0 PUSH1 0x20 DUP7 DUP4 ADD ADD MSTORE POP POP SWAP4 SWAP3 POP POP POP JUMP JUMPDEST PUSH1 0x0 DUP3 PUSH1 0x1F DUP4 ADD SLT PUSH2 0x1AAC JUMPI DUP1 DUP2 REVERT JUMPDEST PUSH2 0x14AA DUP4 DUP4 CALLDATALOAD PUSH1 0x20 DUP6 ADD PUSH2 0x1A0E JUMP JUMPDEST PUSH1 0x0 PUSH1 0x20 DUP3 DUP5 SUB SLT ISZERO PUSH2 0x1ACC JUMPI DUP1 DUP2 REVERT JUMPDEST DUP2 CALLDATALOAD PUSH2 0x14AA DUP2 PUSH2 0x22AD JUMP JUMPDEST PUSH1 0x0 PUSH1 0x20 DUP3 DUP5 SUB SLT ISZERO PUSH2 0x1AE8 JUMPI DUP1 DUP2 REVERT JUMPDEST DUP2 MLOAD PUSH2 0x14AA DUP2 PUSH2 0x22AD JUMP JUMPDEST PUSH1 0x0 PUSH1 0x20 DUP3 DUP5 SUB SLT ISZERO PUSH2 0x1B04 JUMPI DUP1 DUP2 REVERT JUMPDEST DUP2 MLOAD PUSH2 0x14AA DUP2 PUSH2 0x22C2 JUMP JUMPDEST PUSH1 0x0 DUP1 PUSH1 0x40 DUP4 DUP6 SUB SLT ISZERO PUSH2 0x1B21 JUMPI DUP1 DUP2 REVERT JUMPDEST DUP3 CALLDATALOAD PUSH2 0x1B2C DUP2 PUSH2 0x22AD JUMP JUMPDEST SWAP2 POP PUSH1 0x20 DUP4 ADD CALLDATALOAD PUSH2 0x1B3C DUP2 PUSH2 0x22AD JUMP JUMPDEST DUP1 SWAP2 POP POP SWAP3 POP SWAP3 SWAP1 POP JUMP JUMPDEST PUSH1 0x0 PUSH1 0x20 DUP3 DUP5 SUB SLT ISZERO PUSH2 0x1B58 JUMPI DUP1 DUP2 REVERT JUMPDEST DUP2 CALLDATALOAD PUSH8 0xFFFFFFFFFFFFFFFF DUP2 GT ISZERO PUSH2 0x1B6E JUMPI DUP2 DUP3 REVERT JUMPDEST DUP3 ADD PUSH1 0x1F DUP2 ADD DUP5 SGT PUSH2 0x1B7E JUMPI DUP2 DUP3 REVERT JUMPDEST PUSH2 0x1555 DUP5 DUP3 CALLDATALOAD PUSH1 0x20 DUP5 ADD PUSH2 0x1A0E JUMP JUMPDEST PUSH1 0x0 PUSH1 0x20 DUP3 DUP5 SUB SLT ISZERO PUSH2 0x1B9E JUMPI DUP1 DUP2 REVERT JUMPDEST POP MLOAD SWAP2 SWAP1 POP JUMP JUMPDEST PUSH1 0x0 DUP1 PUSH1 0x0 PUSH1 0x60 DUP5 DUP7 SUB SLT ISZERO PUSH2 0x1BB9 JUMPI DUP1 DUP2 REVERT JUMPDEST DUP4 CALLDATALOAD SWAP3 POP PUSH1 0x20 DUP5 ADD CALLDATALOAD PUSH2 0x1BCB DUP2 PUSH2 0x22C2 JUMP JUMPDEST SWAP2 POP PUSH1 0x40 DUP5 ADD CALLDATALOAD PUSH8 0xFFFFFFFFFFFFFFFF DUP2 GT ISZERO PUSH2 0x1BE6 JUMPI DUP2 DUP3 REVERT JUMPDEST PUSH2 0x1BF2 DUP7 DUP3 DUP8 ADD PUSH2 0x1A9C JUMP JUMPDEST SWAP2 POP POP SWAP3 POP SWAP3 POP SWAP3 JUMP JUMPDEST PUSH1 0x0 DUP1 PUSH1 0x40 DUP4 DUP6 SUB SLT ISZERO PUSH2 0x1C0E JUMPI DUP2 DUP3 REVERT JUMPDEST DUP3 CALLDATALOAD SWAP2 POP PUSH1 0x20 DUP4 ADD CALLDATALOAD PUSH8 0xFFFFFFFFFFFFFFFF DUP2 GT ISZERO PUSH2 0x1C2B JUMPI DUP2 DUP3 REVERT JUMPDEST PUSH2 0x6F7 DUP6 DUP3 DUP7 ADD PUSH2 0x1A9C JUMP JUMPDEST PUSH1 0x0 DUP1 PUSH1 0x40 DUP4 DUP6 SUB SLT ISZERO PUSH2 0x1C49 JUMPI DUP2 DUP3 REVERT JUMPDEST POP POP DUP1 MLOAD PUSH1 0x20 SWAP1 SWAP2 ADD MLOAD SWAP1 SWAP3 SWAP1 SWAP2 POP JUMP JUMPDEST PUSH1 0x0 DUP2 MLOAD DUP1 DUP5 MSTORE PUSH2 0x1C72 DUP2 PUSH1 0x20 DUP7 ADD PUSH1 0x20 DUP7 ADD PUSH2 0x21CF JUMP JUMPDEST PUSH1 0x1F ADD PUSH32 0xFFFFFFFFFFFFFFFFFFFFFFFFFFFFFFFFFFFFFFFFFFFFFFFFFFFFFFFFFFFFFFE0 AND SWAP3 SWAP1 SWAP3 ADD PUSH1 0x20 ADD SWAP3 SWAP2 POP POP JUMP JUMPDEST PUSH1 0x0 DUP3 MLOAD PUSH2 0x1CB6 DUP2 DUP5 PUSH1 0x20 DUP8 ADD PUSH2 0x21CF JUMP JUMPDEST SWAP2 SWAP1 SWAP2 ADD SWAP3 SWAP2 POP POP JUMP JUMPDEST PUSH1 0x1 PUSH1 0x1 PUSH1 0xA0 SHL SUB SWAP2 SWAP1 SWAP2 AND DUP2 MSTORE PUSH1 0x20 ADD SWAP1 JUMP JUMPDEST PUSH1 0x1 PUSH1 0x1 PUSH1 0xA0 SHL SUB SWAP3 DUP4 AND DUP2 MSTORE SWAP2 AND PUSH1 0x20 DUP3 ADD MSTORE PUSH1 0x40 ADD SWAP1 JUMP JUMPDEST PUSH1 0x1 PUSH1 0x1 PUSH1 0xA0 SHL SUB SWAP4 DUP5 AND DUP2 MSTORE SWAP2 SWAP1 SWAP3 AND PUSH1 0x20 DUP3 ADD MSTORE PUSH1 0x40 DUP2 ADD SWAP2 SWAP1 SWAP2 MSTORE PUSH1 0x60 ADD SWAP1 JUMP JUMPDEST PUSH1 0x0 PUSH1 0x1 PUSH1 0x1 PUSH1 0xA0 SHL SUB DUP1 DUP10 AND DUP4 MSTORE DUP1 DUP9 AND PUSH1 0x20 DUP5 ADD MSTORE POP DUP6 PUSH1 0x40 DUP4 ADD MSTORE DUP5 PUSH1 0x60 DUP4 ADD MSTORE DUP4 PUSH1 0x80 DUP4 ADD MSTORE PUSH1 0xC0 PUSH1 0xA0 DUP4 ADD MSTORE PUSH2 0x1D50 PUSH1 0xC0 DUP4 ADD DUP5 PUSH2 0x1C5A JUMP JUMPDEST SWAP9 SWAP8 POP POP POP POP POP POP POP POP JUMP JUMPDEST PUSH1 0x1 PUSH1 0x1 PUSH1 0xA0 SHL SUB SWAP3 SWAP1 SWAP3 AND DUP3 MSTORE PUSH1 0x20 DUP3 ADD MSTORE PUSH1 0x40 ADD SWAP1 JUMP JUMPDEST PUSH1 0x1 PUSH1 0x1 PUSH1 0xA0 SHL SUB SWAP4 DUP5 AND DUP2 MSTORE PUSH1 0x20 DUP2 ADD SWAP3 SWAP1 SWAP3 MSTORE SWAP1 SWAP2 AND PUSH1 0x40 DUP3 ADD MSTORE PUSH1 0x60 ADD SWAP1 JUMP JUMPDEST PUSH1 0x1 PUSH1 0x1 PUSH1 0xA0 SHL SUB SWAP5 DUP6 AND DUP2 MSTORE PUSH1 0x20 DUP2 ADD SWAP4 SWAP1 SWAP4 MSTORE SWAP3 AND PUSH1 0x40 DUP3 ADD MSTORE PUSH2 0xFFFF SWAP1 SWAP2 AND PUSH1 0x60 DUP3 ADD MSTORE PUSH1 0x80 ADD SWAP1 JUMP JUMPDEST PUSH1 0x1 PUSH1 0x1 PUSH1 0xA0 SHL SUB SWAP5 SWAP1 SWAP5 AND DUP5 MSTORE PUSH1 0x20 DUP5 ADD SWAP3 SWAP1 SWAP3 MSTORE PUSH1 0x40 DUP4 ADD MSTORE PUSH1 0x60 DUP3 ADD MSTORE PUSH1 0x80 ADD SWAP1 JUMP JUMPDEST PUSH1 0x0 PUSH1 0x20 DUP3 MSTORE PUSH2 0x14AA PUSH1 0x20 DUP4 ADD DUP5 PUSH2 0x1C5A JUMP JUMPDEST PUSH1 0x20 DUP1 DUP3 MSTORE PUSH1 0xF SWAP1 DUP3 ADD MSTORE PUSH32 0x535741505F4D494E5F414D4F554E540000000000000000000000000000000000 PUSH1 0x40 DUP3 ADD MSTORE PUSH1 0x60 ADD SWAP1 JUMP JUMPDEST PUSH1 0x20 DUP1 DUP3 MSTORE PUSH1 0x13 SWAP1 DUP3 ADD MSTORE PUSH32 0x414156455F494E5445524E414C5F544F4B454E00000000000000000000000000 PUSH1 0x40 DUP3 ADD MSTORE PUSH1 0x60 ADD SWAP1 JUMP JUMPDEST PUSH1 0x20 DUP1 DUP3 MSTORE PUSH1 0x26 SWAP1 DUP3 ADD MSTORE PUSH32 0x4F776E61626C653A206E6577206F776E657220697320746865207A65726F2061 PUSH1 0x40 DUP3 ADD MSTORE PUSH32 0x6464726573730000000000000000000000000000000000000000000000000000 PUSH1 0x60 DUP3 ADD MSTORE PUSH1 0x80 ADD SWAP1 JUMP JUMPDEST PUSH1 0x20 DUP1 DUP3 MSTORE PUSH1 0x19 SWAP1 DUP3 ADD MSTORE PUSH32 0x535741505F494E56414C49445F52454D41494E494E475F494E00000000000000 PUSH1 0x40 DUP3 ADD MSTORE PUSH1 0x60 ADD SWAP1 JUMP JUMPDEST PUSH1 0x20 DUP1 DUP3 MSTORE DUP2 DUP2 ADD MSTORE PUSH32 0x4F776E61626C653A2063616C6C6572206973206E6F7420746865206F776E6572 PUSH1 0x40 DUP3 ADD MSTORE PUSH1 0x60 ADD SWAP1 JUMP JUMPDEST PUSH1 0x20 DUP1 DUP3 MSTORE PUSH1 0xC SWAP1 DUP3 ADD MSTORE PUSH32 0x4144445F4F564552464C4F570000000000000000000000000000000000000000 PUSH1 0x40 DUP3 ADD MSTORE PUSH1 0x60 ADD SWAP1 JUMP JUMPDEST PUSH1 0x20 DUP1 DUP3 MSTORE PUSH1 0xF SWAP1 DUP3 ADD MSTORE PUSH32 0x535741505F53414D455F544F4B454E0000000000000000000000000000000000 PUSH1 0x40 DUP3 ADD MSTORE PUSH1 0x60 ADD SWAP1 JUMP JUMPDEST PUSH1 0x20 DUP1 DUP3 MSTORE PUSH1 0x1D SWAP1 DUP3 ADD MSTORE PUSH32 0x416464726573733A2063616C6C20746F206E6F6E2D636F6E7472616374000000 PUSH1 0x40 DUP3 ADD MSTORE PUSH1 0x60 ADD SWAP1 JUMP JUMPDEST PUSH1 0x20 DUP1 DUP3 MSTORE PUSH1 0x17 SWAP1 DUP3 ADD MSTORE PUSH32 0x535741505F494E56414C49445F414D4F554E545F4F5554000000000000000000 PUSH1 0x40 DUP3 ADD MSTORE PUSH1 0x60 ADD SWAP1 JUMP JUMPDEST PUSH1 0x20 DUP1 DUP3 MSTORE PUSH1 0x18 SWAP1 DUP3 ADD MSTORE PUSH32 0x45585045435445445F535741505F4D494E5F414D4F554E540000000000000000 PUSH1 0x40 DUP3 ADD MSTORE PUSH1 0x60 ADD SWAP1 JUMP JUMPDEST PUSH1 0x20 DUP1 DUP3 MSTORE PUSH1 0x2A SWAP1 DUP3 ADD MSTORE PUSH32 0x5361666545524332303A204552433230206F7065726174696F6E20646964206E PUSH1 0x40 DUP3 ADD MSTORE PUSH32 0x6F74207375636365656400000000000000000000000000000000000000000000 PUSH1 0x60 DUP3 ADD MSTORE PUSH1 0x80 ADD SWAP1 JUMP JUMPDEST PUSH1 0x20 DUP1 DUP3 MSTORE PUSH1 0x13 SWAP1 DUP3 ADD MSTORE PUSH32 0x43414C4C45525F49535F4E4F545F5641554C5400000000000000000000000000 PUSH1 0x40 DUP3 ADD MSTORE PUSH1 0x60 ADD SWAP1 JUMP JUMPDEST PUSH1 0x20 DUP1 DUP3 MSTORE PUSH1 0xC SWAP1 DUP3 ADD MSTORE PUSH32 0x4D554C5F4F564552464C4F570000000000000000000000000000000000000000 PUSH1 0x40 DUP3 ADD MSTORE PUSH1 0x60 ADD SWAP1 JUMP JUMPDEST SWAP1 DUP2 MSTORE PUSH1 0x20 ADD SWAP1 JUMP JUMPDEST SWAP2 DUP3 MSTORE PUSH1 0x20 DUP3 ADD MSTORE PUSH1 0x40 ADD SWAP1 JUMP JUMPDEST PUSH1 0x0 DUP3 NOT DUP3 GT ISZERO PUSH2 0x213D JUMPI PUSH2 0x213D PUSH2 0x224F JUMP JUMPDEST POP ADD SWAP1 JUMP JUMPDEST PUSH1 0x0 DUP3 PUSH2 0x2176 JUMPI PUSH32 0x4E487B7100000000000000000000000000000000000000000000000000000000 DUP2 MSTORE PUSH1 0x12 PUSH1 0x4 MSTORE PUSH1 0x24 DUP2 REVERT JUMPDEST POP DIV SWAP1 JUMP JUMPDEST PUSH1 0x0 DUP2 PUSH32 0xFFFFFFFFFFFFFFFFFFFFFFFFFFFFFFFFFFFFFFFFFFFFFFFFFFFFFFFFFFFFFFFF DIV DUP4 GT DUP3 ISZERO ISZERO AND ISZERO PUSH2 0x21B3 JUMPI PUSH2 0x21B3 PUSH2 0x224F JUMP JUMPDEST POP MUL SWAP1 JUMP JUMPDEST PUSH1 0x0 DUP3 DUP3 LT ISZERO PUSH2 0x21CA JUMPI PUSH2 0x21CA PUSH2 0x224F JUMP JUMPDEST POP SUB SWAP1 JUMP JUMPDEST PUSH1 0x0 JUMPDEST DUP4 DUP2 LT ISZERO PUSH2 0x21EA JUMPI DUP2 DUP2 ADD MLOAD DUP4 DUP3 ADD MSTORE PUSH1 0x20 ADD PUSH2 0x21D2 JUMP JUMPDEST DUP4 DUP2 GT ISZERO PUSH2 0xE9A JUMPI POP POP PUSH1 0x0 SWAP2 ADD MSTORE JUMP JUMPDEST PUSH1 0x2 DUP2 DIV PUSH1 0x1 DUP3 AND DUP1 PUSH2 0x220F JUMPI PUSH1 0x7F DUP3 AND SWAP2 POP JUMPDEST PUSH1 0x20 DUP3 LT DUP2 EQ ISZERO PUSH2 0x2249 JUMPI PUSH32 0x4E487B7100000000000000000000000000000000000000000000000000000000 PUSH1 0x0 MSTORE PUSH1 0x22 PUSH1 0x4 MSTORE PUSH1 0x24 PUSH1 0x0 REVERT JUMPDEST POP SWAP2 SWAP1 POP JUMP JUMPDEST PUSH32 0x4E487B7100000000000000000000000000000000000000000000000000000000 PUSH1 0x0 MSTORE PUSH1 0x11 PUSH1 0x4 MSTORE PUSH1 0x24 PUSH1 0x0 REVERT JUMPDEST PUSH32 0x4E487B7100000000000000000000000000000000000000000000000000000000 PUSH1 0x0 MSTORE PUSH1 0x41 PUSH1 0x4 MSTORE PUSH1 0x24 PUSH1 0x0 REVERT JUMPDEST PUSH1 0x1 PUSH1 0x1 PUSH1 0xA0 SHL SUB DUP2 AND DUP2 EQ PUSH2 0x7F6 JUMPI PUSH1 0x0 DUP1 REVERT JUMPDEST DUP1 ISZERO ISZERO DUP2 EQ PUSH2 0x7F6 JUMPI PUSH1 0x0 DUP1 REVERT INVALID LOG2 PUSH5 0x6970667358 0x22 SLT KECCAK256 0xB0 SWAP11 0xE0 PUSH13 0x3660F1522F1D4FC3DDECE314ED MOD 0xC9 TIMESTAMP 0xB6 CODESIZE 0xCB 0xD4 SWAP10 0xA5 0xE8 PUSH1 0xF5 0xAB PUSH13 0x2764736F6C6343000800003300 "
        },
        "methodIdentifiers": {
          "getAToken()": "b29c55bc",
          "getLendingPool()": "0261bf8b",
          "getMetadataURI()": "86a92af7",
          "getSlippage()": "fc9cee3c",
          "getToken()": "21df0da7",
          "getTotalValue()": "caa648b4",
          "getValueRate()": "52f6bb45",
          "getVault()": "8d928af8",
          "invest(address)": "03f9c793",
          "onExit(uint256,bool,bytes)": "f35bb2e0",
          "onJoin(uint256,bytes)": "3aafc2b6",
          "owner()": "8da5cb5b",
          "renounceOwnership()": "715018a6",
          "setMetadataURI(string)": "750521f5",
          "transferOwnership(address)": "f2fde38b",
          "withdraw(address,address)": "f940e385"
        }
      }
    }
  }
}