{
  "contracts/SwapConnector.sol": {
    "SwapConnector": {
      "abi": [
        {
          "inputs": [
            {
              "internalType": "contract IPriceOracle",
              "name": "_priceOracle",
              "type": "address"
            },
            {
              "internalType": "address",
              "name": "uniswapV3Router",
              "type": "address"
            },
            {
              "internalType": "address",
              "name": "uniswapV2Router",
              "type": "address"
            },
            {
              "internalType": "address",
              "name": "balancerV2Vault",
              "type": "address"
            }
          ],
          "stateMutability": "nonpayable",
          "type": "constructor"
        },
        {
          "anonymous": false,
          "inputs": [
            {
              "indexed": true,
              "internalType": "address",
              "name": "previousOwner",
              "type": "address"
            },
            {
              "indexed": true,
              "internalType": "address",
              "name": "newOwner",
              "type": "address"
            }
          ],
          "name": "OwnershipTransferred",
          "type": "event"
        },
        {
          "anonymous": false,
          "inputs": [
            {
              "indexed": true,
              "internalType": "bytes32",
              "name": "path",
              "type": "bytes32"
            },
            {
              "indexed": false,
              "internalType": "address",
              "name": "tokenA",
              "type": "address"
            },
            {
              "indexed": false,
              "internalType": "address",
              "name": "tokenB",
              "type": "address"
            },
            {
              "indexed": false,
              "internalType": "enum BaseConnector.DEX",
              "name": "dex",
              "type": "uint8"
            }
          ],
          "name": "PathDexSet",
          "type": "event"
        },
        {
          "inputs": [
            {
              "internalType": "address",
              "name": "tokenIn",
              "type": "address"
            },
            {
              "internalType": "address",
              "name": "tokenOut",
              "type": "address"
            },
            {
              "internalType": "uint256",
              "name": "amountIn",
              "type": "uint256"
            }
          ],
          "name": "getAmountOut",
          "outputs": [
            {
              "internalType": "uint256",
              "name": "",
              "type": "uint256"
            }
          ],
          "stateMutability": "view",
          "type": "function"
        },
        {
          "inputs": [
            {
              "internalType": "address",
              "name": "tokenA",
              "type": "address"
            },
            {
              "internalType": "address",
              "name": "tokenB",
              "type": "address"
            }
          ],
          "name": "getBalancerV2Path",
          "outputs": [
            {
              "components": [
                {
                  "internalType": "bytes32",
                  "name": "poolId",
                  "type": "bytes32"
                },
                {
                  "internalType": "address[]",
                  "name": "hopTokens",
                  "type": "address[]"
                },
                {
                  "internalType": "bytes32[]",
                  "name": "hopPoolIds",
                  "type": "bytes32[]"
                }
              ],
              "internalType": "struct BalancerV2Connector.BalancerV2Path",
              "name": "",
              "type": "tuple"
            }
          ],
          "stateMutability": "view",
          "type": "function"
        },
        {
          "inputs": [
            {
              "internalType": "address",
              "name": "tokenA",
              "type": "address"
            },
            {
              "internalType": "address",
              "name": "tokenB",
              "type": "address"
            }
          ],
          "name": "getPath",
          "outputs": [
            {
              "internalType": "bytes32",
              "name": "",
              "type": "bytes32"
            }
          ],
          "stateMutability": "pure",
          "type": "function"
        },
        {
          "inputs": [
            {
              "internalType": "address",
              "name": "tokenA",
              "type": "address"
            },
            {
              "internalType": "address",
              "name": "tokenB",
              "type": "address"
            }
          ],
          "name": "getPathDex",
          "outputs": [
            {
              "internalType": "enum BaseConnector.DEX",
              "name": "",
              "type": "uint8"
            }
          ],
          "stateMutability": "view",
          "type": "function"
        },
        {
          "inputs": [
            {
              "internalType": "address",
              "name": "tokenA",
              "type": "address"
            },
            {
              "internalType": "address",
              "name": "tokenB",
              "type": "address"
            }
          ],
          "name": "getUniswapV2Path",
          "outputs": [
            {
              "components": [
                {
                  "internalType": "address[]",
                  "name": "hopTokens",
                  "type": "address[]"
                }
              ],
              "internalType": "struct UniswapV2Connector.UniswapV2Path",
              "name": "",
              "type": "tuple"
            }
          ],
          "stateMutability": "view",
          "type": "function"
        },
        {
          "inputs": [
            {
              "internalType": "address",
              "name": "tokenA",
              "type": "address"
            },
            {
              "internalType": "address",
              "name": "tokenB",
              "type": "address"
            }
          ],
          "name": "getUniswapV3Path",
          "outputs": [
            {
              "components": [
                {
                  "internalType": "uint24",
                  "name": "fee",
                  "type": "uint24"
                },
                {
                  "internalType": "bytes",
                  "name": "poolsPath",
                  "type": "bytes"
                }
              ],
              "internalType": "struct UniswapV3Connector.UniswapV3Path",
              "name": "",
              "type": "tuple"
            }
          ],
          "stateMutability": "view",
          "type": "function"
        },
        {
          "inputs": [],
          "name": "owner",
          "outputs": [
            {
              "internalType": "address",
              "name": "",
              "type": "address"
            }
          ],
          "stateMutability": "view",
          "type": "function"
        },
        {
          "inputs": [
            {
              "internalType": "bytes32",
              "name": "",
              "type": "bytes32"
            }
          ],
          "name": "pathDex",
          "outputs": [
            {
              "internalType": "enum BaseConnector.DEX",
              "name": "",
              "type": "uint8"
            }
          ],
          "stateMutability": "view",
          "type": "function"
        },
        {
          "inputs": [],
          "name": "priceOracle",
          "outputs": [
            {
              "internalType": "contract IPriceOracle",
              "name": "",
              "type": "address"
            }
          ],
          "stateMutability": "view",
          "type": "function"
        },
        {
          "inputs": [],
          "name": "renounceOwnership",
          "outputs": [],
          "stateMutability": "nonpayable",
          "type": "function"
        },
        {
          "inputs": [
            {
              "internalType": "address[]",
              "name": "tokens",
              "type": "address[]"
            },
            {
              "internalType": "bytes32[]",
              "name": "poolIds",
              "type": "bytes32[]"
            }
          ],
          "name": "setBalancerV2Path",
          "outputs": [],
          "stateMutability": "nonpayable",
          "type": "function"
        },
        {
          "inputs": [
            {
              "internalType": "address[]",
              "name": "tokens",
              "type": "address[]"
            }
          ],
          "name": "setUniswapV2Path",
          "outputs": [],
          "stateMutability": "nonpayable",
          "type": "function"
        },
        {
          "inputs": [
            {
              "internalType": "address[]",
              "name": "tokens",
              "type": "address[]"
            },
            {
              "internalType": "uint24[]",
              "name": "fees",
              "type": "uint24[]"
            }
          ],
          "name": "setUniswapV3Path",
          "outputs": [],
          "stateMutability": "nonpayable",
          "type": "function"
        },
        {
          "inputs": [
            {
              "internalType": "address",
              "name": "tokenA",
              "type": "address"
            },
            {
              "internalType": "address",
              "name": "tokenB",
              "type": "address"
            }
          ],
          "name": "sortPoolTokens",
          "outputs": [
            {
              "internalType": "address",
              "name": "token0",
              "type": "address"
            },
            {
              "internalType": "address",
              "name": "token1",
              "type": "address"
            }
          ],
          "stateMutability": "pure",
          "type": "function"
        },
        {
          "inputs": [
            {
              "internalType": "address",
              "name": "tokenIn",
              "type": "address"
            },
            {
              "internalType": "address",
              "name": "tokenOut",
              "type": "address"
            },
            {
              "internalType": "uint256",
              "name": "amountIn",
              "type": "uint256"
            },
            {
              "internalType": "uint256",
              "name": "minAmountOut",
              "type": "uint256"
            },
            {
              "internalType": "uint256",
              "name": "deadline",
              "type": "uint256"
            },
            {
              "internalType": "bytes",
              "name": "",
              "type": "bytes"
            }
          ],
          "name": "swap",
          "outputs": [
            {
              "internalType": "uint256",
              "name": "remainingIn",
              "type": "uint256"
            },
            {
              "internalType": "uint256",
              "name": "amountOut",
              "type": "uint256"
            }
          ],
          "stateMutability": "nonpayable",
          "type": "function"
        },
        {
          "inputs": [
            {
              "internalType": "address",
              "name": "newOwner",
              "type": "address"
            }
          ],
          "name": "transferOwnership",
          "outputs": [],
          "stateMutability": "nonpayable",
          "type": "function"
        }
      ],
      "evm": {
        "bytecode": {
          "linkReferences": {},
          "object": "6101006040523480156200001257600080fd5b5060405162003db638038062003db68339810160408190526200003591620000c8565b808284600062000044620000c4565b600080546001600160a01b0319166001600160a01b0383169081178255604051929350917f8be0079c531659141344cd1fd0a4f28419497f9722a3daafe3b4186f6b6457e0908290a3506001600160601b0319606091821b811660805291811b821660a05291821b811660c05294901b90931660e0525062000148915050565b3390565b60008060008060808587031215620000de578384fd5b8451620000eb816200012f565b6020860151909450620000fe816200012f565b604086015190935062000111816200012f565b606086015190925062000124816200012f565b939692955090935050565b6001600160a01b03811681146200014557600080fd5b50565b60805160601c60a05160601c60c05160601c60e05160601c613be2620001d4600039600081816105b4015261085e01526000818161108301528181611163015281816118a3015281816120ed01526122b201526000818161066c015281816116320152611669015260008181610c350152818161177b01528181611ccb0152611dd00152613be26000f3fe608060405234801561001057600080fd5b50600436106100ff5760003560e01c8063715018a611610097578063cf3c8c3f11610066578063cf3c8c3f1461023c578063d182224a1461024f578063d88e3e3b14610262578063f2fde38b14610275576100ff565b8063715018a6146101ec5780638da5cb5b146101f45780639f9b0934146101fc578063c8f9948a1461021c576100ff565b806344204966116100d3578063442049661461017857806344d9e131146101995780634aa06652146101ac5780635ee91426146101cc576100ff565b8062186ade14610104578063167257871461012d578063178e73401461014e5780632630c12f14610163575b600080fd5b610117610112366004612a3d565b610288565b6040516101249190613913565b60405180910390f35b61014061013b366004612ab5565b610317565b604051610124929190613958565b61016161015c366004612bec565b610347565b005b61016b6105b2565b6040516101249190613120565b61018b610186366004612a3d565b6105d6565b604051610124929190613134565b6101616101a7366004612bb9565b610607565b6101bf6101ba366004612a75565b610859565b60405161012491906131b4565b6101df6101da366004612a3d565b610911565b604051610124919061374f565b610161610a0b565b61016b610aac565b61020f61020a366004612a3d565b610abb565b604051610124919061392e565b61022f61022a366004612a3d565b610b8d565b60405161012491906131bd565b61016161024a366004612ca5565b610bb8565b61022f61025d366004612f0d565b610e50565b6101bf610270366004612a3d565b610e65565b610161610283366004612a05565b610eab565b610290612734565b6002600061029e8585610e65565b8152602080820192909252604090810160002081518154808502820184018452938101848152909391928492849184018282801561030557602002820191906000526020600020905b81546001600160a01b031681526001909101906020018083116102e7575b50505050508152505090505b92915050565b60008060006103268989610b8d565b9050610336818a8a8a8a8a610f83565b60009a909950975050505050505050565b61034f61104c565b6001600160a01b0316610360610aac565b6001600160a01b03161461038f5760405162461bcd60e51b815260040161038690613527565b60405180910390fd5b60028251101580156103ad575080516103a99060016139f0565b8251145b6103c95760405162461bcd60e51b815260040161038690613418565b60005b8151811015610473576104618282815181106103f857634e487b7160e01b600052603260045260246000fd5b602002602001015184838151811061042057634e487b7160e01b600052603260045260246000fd5b60200260200101518584600161043691906139f0565b8151811061045457634e487b7160e01b600052603260045260246000fd5b6020026020010151611050565b8061046b81613ae3565b9150506103cc565b50600061049261048284611219565b61048b8561124b565b600261127a565b60008181526003602052604081208451929350918491906104c357634e487b7160e01b600052603260045260246000fd5b6020908102919091010151815560015b83518110156105ab578160010185828151811061050057634e487b7160e01b600052603260045260246000fd5b60209081029190910181015182546001810184556000938452919092200180547fffffffffffffffffffffffff0000000000000000000000000000000000000000166001600160a01b039092169190911790558351600283019085908390811061057a57634e487b7160e01b600052603260045260246000fd5b60209081029190910181015182546001810184556000938452919092200155806105a381613ae3565b9150506104d3565b5050505050565b7f000000000000000000000000000000000000000000000000000000000000000081565b600080826001600160a01b0316846001600160a01b0316106105f95782846105fc565b83835b909590945092505050565b61060f61104c565b6001600160a01b0316610620610aac565b6001600160a01b0316146106465760405162461bcd60e51b815260040161038690613527565b6002815110156106685760405162461bcd60e51b815260040161038690613316565b60007f00000000000000000000000000000000000000000000000000000000000000006001600160a01b031663c45a01556040518163ffffffff1660e01b815260040160206040518083038186803b1580156106c357600080fd5b505afa1580156106d7573d6000803e3d6000fd5b505050506040513d601f19601f820116820180604052508101906106fb9190612a21565b905060005b6001835161070e9190613a65565b81101561078c5761077a8284838151811061073957634e487b7160e01b600052603260045260246000fd5b60200260200101518584600161074f91906139f0565b8151811061076d57634e487b7160e01b600052603260045260246000fd5b6020026020010151611327565b8061078481613ae3565b915050610700565b5060006107ab61079b84611219565b6107a48561124b565b600061127a565b60008181526002602081905260409091209192505b84518110156105ab5781856107d6600184613a65565b815181106107f457634e487b7160e01b600052603260045260246000fd5b60209081029190910181015182546001810184556000938452919092200180547fffffffffffffffffffffffff0000000000000000000000000000000000000000166001600160a01b039092169190911790558061085181613ae3565b9150506107c0565b6000807f00000000000000000000000000000000000000000000000000000000000000006001600160a01b031663afa9986085876040518363ffffffff1660e01b81526004016108aa929190613134565b60206040518083038186803b1580156108c257600080fd5b505afa1580156108d6573d6000803e3d6000fd5b505050506040513d601f19601f820116820180604052508101906108fa9190612f25565b905061090683826113ef565b9150505b9392505050565b610919612747565b600360006109278585610e65565b815260200190815260200160002060405180606001604052908160008201548152602001600182018054806020026020016040519081016040528092919081815260200182805480156109a357602002820191906000526020600020905b81546001600160a01b03168152600190910190602001808311610985575b505050505081526020016002820180548060200260200160405190810160405280929190818152602001828054801561030557602002820191906000526020600020905b8154815260200190600101908083116109e757505050505081525050905092915050565b610a1361104c565b6001600160a01b0316610a24610aac565b6001600160a01b031614610a4a5760405162461bcd60e51b815260040161038690613527565b600080546040516001600160a01b03909116907f8be0079c531659141344cd1fd0a4f28419497f9722a3daafe3b4186f6b6457e0908390a3600080547fffffffffffffffffffffffff0000000000000000000000000000000000000000169055565b6000546001600160a01b031690565b610ac361276b565b60016000610ad18585610e65565b815260208082019290925260409081016000208151808301909252805462ffffff1682526001810180549293919291840191610b0c90613aa8565b80601f0160208091040260200160405190810160405280929190818152602001828054610b3890613aa8565b80156103055780601f10610b5a57610100808354040283529160200191610305565b820191906000526020600020905b815481529060010190602001808311610b685750505091909252509195945050505050565b600060046000610b9d8585610e65565b815260208101919091526040016000205460ff169392505050565b610bc061104c565b6001600160a01b0316610bd1610aac565b6001600160a01b031614610bf75760405162461bcd60e51b815260040161038690613527565b6002825110158015610c1557508051610c119060016139f0565b8251145b610c315760405162461bcd60e51b815260040161038690613316565b60007f00000000000000000000000000000000000000000000000000000000000000006001600160a01b031663c45a01556040518163ffffffff1660e01b815260040160206040518083038186803b158015610c8c57600080fd5b505afa158015610ca0573d6000803e3d6000fd5b505050506040513d601f19601f82011682018060405250810190610cc49190612a21565b905060005b8251811015610d7157610d5f82858381518110610cf657634e487b7160e01b600052603260045260246000fd5b602002602001015186846001610d0c91906139f0565b81518110610d2a57634e487b7160e01b600052603260045260246000fd5b6020026020010151868581518110610d5257634e487b7160e01b600052603260045260246000fd5b602002602001015161146e565b80610d6981613ae3565b915050610cc9565b506000610d90610d8085611219565b610d898661124b565b600161127a565b60008181526001602081905260409091208551929350911480610db4576000610dde565b84600081518110610dd557634e487b7160e01b600052603260045260246000fd5b60200260200101515b82547fffffffffffffffffffffffffffffffffffffffffffffffffffffffffff0000001662ffffff9190911617825580610e2157610e1c868661154b565b610e31565b6040805160008152602081019091525b8051610e47916001850191602090910190612783565b50505050505050565b60046020526000908152604090205460ff1681565b6000806000610e7485856105d6565b915091508181604051602001610e8b929190613036565b604051602081830303815290604052805190602001209250505092915050565b610eb361104c565b6001600160a01b0316610ec4610aac565b6001600160a01b031614610eea5760405162461bcd60e51b815260040161038690613527565b6001600160a01b038116610f105760405162461bcd60e51b81526004016103869061334d565b600080546040516001600160a01b03808516939216917f8be0079c531659141344cd1fd0a4f28419497f9722a3daafe3b4186f6b6457e091a3600080547fffffffffffffffffffffffff0000000000000000000000000000000000000000166001600160a01b0392909216919091179055565b600080876002811115610fa657634e487b7160e01b600052602160045260246000fd5b1415610fc057610fb98686868686611621565b9050611042565b6001876002811115610fe257634e487b7160e01b600052602160045260246000fd5b1415610ff557610fb9868686868661176a565b600287600281111561101757634e487b7160e01b600052602160045260246000fd5b141561102a57610fb98686868686611892565b60405162461bcd60e51b81526004016103869061355c565b9695505050505050565b3390565b6040517ff6c009270000000000000000000000000000000000000000000000000000000081526000906001600160a01b037f0000000000000000000000000000000000000000000000000000000000000000169063f6c00927906110b89087906004016131b4565b604080518083038186803b1580156110cf57600080fd5b505afa1580156110e3573d6000803e3d6000fd5b505050506040513d601f19601f820116820180604052508101906111079190612b86565b5090506001600160a01b0381166111305760405162461bcd60e51b81526004016103869061344f565b6040517ff94d46680000000000000000000000000000000000000000000000000000000081526000906001600160a01b037f0000000000000000000000000000000000000000000000000000000000000000169063f94d4668906111989088906004016131b4565b60006040518083038186803b1580156111b057600080fd5b505afa1580156111c4573d6000803e3d6000fd5b505050506040513d6000823e601f3d908101601f191682016040526111ec9190810190612d5e565b509091506111fd905081858561197f565b6105ab5760405162461bcd60e51b8152600401610386906133e1565b60008160008151811061123c57634e487b7160e01b600052603260045260246000fd5b60200260200101519050919050565b6000816001835161125c9190613a65565b8151811061123c57634e487b7160e01b600052603260045260246000fd5b60006112868484610e65565b6000818152600460205260409020805491925083917fffffffffffffffffffffffffffffffffffffffffffffffffffffffffffffff001660018360028111156112df57634e487b7160e01b600052602160045260246000fd5b0217905550807f4beb98b65af89bd185858e5587b5361f51ed5ba611475d764e6c042ffa0956938585856040516113189392919061314e565b60405180910390a29392505050565b6040517fe6a439050000000000000000000000000000000000000000000000000000000081526000906001600160a01b0385169063e6a43905906113719086908690600401613134565b60206040518083038186803b15801561138957600080fd5b505afa15801561139d573d6000803e3d6000fd5b505050506040513d601f19601f820116820180604052508101906113c19190612a21565b90506001600160a01b0381166113e95760405162461bcd60e51b8152600401610386906136e1565b50505050565b6000806113fc8385613a28565b90508315806114135750826114118583613a08565b145b61142f5760405162461bcd60e51b815260040161038690613718565b801561146357670de0b6b3a7640000611449600183613a65565b6114539190613a08565b61145e9060016139f0565b611466565b60005b949350505050565b60008061147b85856105d6565b6040517f1698ee8200000000000000000000000000000000000000000000000000000000815291935091506000906001600160a01b03881690631698ee82906114cc90869086908990600401613173565b60206040518083038186803b1580156114e457600080fd5b505afa1580156114f8573d6000803e3d6000fd5b505050506040513d601f19601f8201168201806040525081019061151c9190612a21565b6001600160a01b031614156115435760405162461bcd60e51b8152600401610386906133aa565b505050505050565b60408051600080825260208201909252905b82518110156115e5576115d183828151811061158957634e487b7160e01b600052603260045260246000fd5b60200260200101516115cb8684815181106115b457634e487b7160e01b600052603260045260246000fd5b602002602001015185611a3e90919063ffffffff16565b90611a6a565b9150806115dd81613ae3565b91505061155d565b5061090a8383518151811061160a57634e487b7160e01b600052603260045260246000fd5b602002602001015182611a3e90919063ffffffff16565b60006116576001600160a01b0387167f000000000000000000000000000000000000000000000000000000000000000086611a7f565b60006116638787611bc4565b905060007f00000000000000000000000000000000000000000000000000000000000000006001600160a01b03166338ed173987878533896040518663ffffffff1660e01b81526004016116bb959493929190613966565b600060405180830381600087803b1580156116d557600080fd5b505af11580156116e9573d6000803e3d6000fd5b505050506040513d6000823e601f3d908101601f191682016040526117119190810190612eba565b905081518151146117345760405162461bcd60e51b8152600401610386906134f0565b8060018151811061175557634e487b7160e01b600052603260045260246000fd5b60200260200101519250505095945050505050565b60006117a06001600160a01b0387167f000000000000000000000000000000000000000000000000000000000000000086611a7f565b6000600160006117b08989610e65565b8152602001908152602001600020905060008160010180546117d190613aa8565b80601f01602080910402602001604051908101604052809291908181526020018280546117fd90613aa8565b801561184a5780601f1061181f5761010080835404028352916020019161184a565b820191906000526020600020905b81548152906001019060200180831161182d57829003601f168201915b5050505050905061185a81611c77565b61186f5761186a81878787611c7c565b611886565b8154611886908990899062ffffff16898989611d5a565b98975050505050505050565b60006118c86001600160a01b0387167f000000000000000000000000000000000000000000000000000000000000000086611a7f565b6000600360006118d88989610e65565b8152602001908152602001600020905061194d8160010180548060200260200160405190810160405280929190818152602001828054801561194357602002820191906000526020600020905b81546001600160a01b03168152600190910190602001808311611925575b5050505050611c77565b6119645761195f818888888888611e59565b611974565b8054611974908888888888612263565b979650505050505050565b60008080805b8651811015611a2c57856001600160a01b03168782815181106119b857634e487b7160e01b600052603260045260246000fd5b60200260200101516001600160a01b031614156119d457600192505b846001600160a01b03168782815181106119fe57634e487b7160e01b600052603260045260246000fd5b60200260200101516001600160a01b03161415611a1a57600191505b80611a2481613ae3565b915050611985565b50818015611042575095945050505050565b60608282604051602001611a5392919061308c565b604051602081830303815290604052905092915050565b60608282604051602001611a539291906130d6565b801580611b2057506040517fdd62ed3e0000000000000000000000000000000000000000000000000000000081526001600160a01b0384169063dd62ed3e90611ace9030908690600401613134565b60206040518083038186803b158015611ae657600080fd5b505afa158015611afa573d6000803e3d6000fd5b505050506040513d601f19601f82011682018060405250810190611b1e9190612f25565b155b611b3c5760405162461bcd60e51b815260040161038690613684565b611bbf8363095ea7b360e01b8484604051602401611b5b92919061319b565b60408051601f198184030181529190526020810180517bffffffffffffffffffffffffffffffffffffffffffffffffffffffff167fffffffff0000000000000000000000000000000000000000000000000000000090931692909217909152612301565b505050565b6060600060026000611bd68686610e65565b81526020019081526020016000209050600081600001805480602002602001604051908101604052809291908181526020018280548015611c4057602002820191906000526020600020905b81546001600160a01b03168152600190910190602001808311611c22575b50505050509050611c5081611c77565b611c6457611c5f858286612390565b611c6e565b611c6e8585612514565b95945050505050565b511590565b6000611c86612803565b85815260608101859052608081018490523360208201526040808201849052517fc04b8d590000000000000000000000000000000000000000000000000000000081527f00000000000000000000000000000000000000000000000000000000000000006001600160a01b03169063c04b8d5990611d089084906004016137c0565b602060405180830381600087803b158015611d2257600080fd5b505af1158015611d36573d6000803e3d6000fd5b505050506040513d601f19601f820116820180604052508101906110429190612f25565b6000611d6461283b565b6001600160a01b038089168252878116602083015262ffffff87166040808401919091523360608401526080830185905260a0830187905260c08301869052600060e0840152517f414bf3890000000000000000000000000000000000000000000000000000000081527f00000000000000000000000000000000000000000000000000000000000000009091169063414bf38990611e07908490600401613819565b602060405180830381600087803b158015611e2157600080fd5b505af1158015611e35573d6000803e3d6000fd5b505050506040513d601f19601f820116820180604052508101906118869190612f25565b600080611ec38789600101805480602002602001604051908101604052809291908181526020018280548015611eb857602002820191906000526020600020905b81546001600160a01b03168152600190910190602001808311611e9a575b505050505088612390565b9050600060018251611ed59190613a65565b905060008167ffffffffffffffff811115611f0057634e487b7160e01b600052604160045260246000fd5b604051908082528060200260200182016040528015611f3957816020015b611f2661287f565b815260200190600190039081611f1e5790505b50905060005b82811015612011576000828281518110611f6957634e487b7160e01b600052603260045260246000fd5b6020026020010151905081600014611f82576000611f84565b885b60608201528115611fcc5760028c01611f9e600184613a65565b81548110611fbc57634e487b7160e01b600052603260045260246000fd5b9060005260206000200154611fcf565b8b545b815260208101829052611fe38260016139f0565b604082810191909152805160008152602081019091526080909101528061200981613ae3565b915050611f3f565b506000835167ffffffffffffffff81111561203c57634e487b7160e01b600052604160045260246000fd5b604051908082528060200260200182016040528015612065578160200160208202803683370190505b509050612071886125be565b8160008151811061209257634e487b7160e01b600052603260045260246000fd5b6020026020010181815250506120a7876125be565b6120b090613b1c565b81600183516120bf9190613a65565b815181106120dd57634e487b7160e01b600052603260045260246000fd5b60200260200101818152505060007f00000000000000000000000000000000000000000000000000000000000000006001600160a01b031663945bcec960008588612126612603565b878d6040518763ffffffff1660e01b8152600401612149969594939291906131cb565b600060405180830381600087803b15801561216357600080fd5b505af1158015612177573d6000803e3d6000fd5b505050506040513d6000823e601f3d908101601f1916820160405261219f9190810190612e2a565b9050600081600183516121b29190613a65565b815181106121d057634e487b7160e01b600052603260045260246000fd5b60200260200101519050600081126121fa5760405162461bcd60e51b8152600401610386906134bb565b8961222c8360008151811061221f57634e487b7160e01b600052603260045260246000fd5b6020026020010151612635565b146122495760405162461bcd60e51b8152600401610386906132e1565b61225281613b1c565b9d9c50505050505050505050505050565b600061226d6128b1565b878152600060208083018290526001600160a01b03898116604080860191909152898216606086015260808501899052805193845291830190915260a08301919091527f0000000000000000000000000000000000000000000000000000000000000000166352bbbe29826122e0612603565b87876040518563ffffffff1660e01b8152600401611e079493929190613888565b6000612356826040518060400160405280602081526020017f5361666545524332303a206c6f772d6c6576656c2063616c6c206661696c6564815250856001600160a01b03166126579092919063ffffffff16565b805190915015611bbf57808060200190518101906123749190612eed565b611bbf5760405162461bcd60e51b815260040161038690613627565b6060825160026123a091906139f0565b67ffffffffffffffff8111156123c657634e487b7160e01b600052604160045260246000fd5b6040519080825280602002602001820160405280156123ef578160200160208202803683370190505b509050838160008151811061241457634e487b7160e01b600052603260045260246000fd5b60200260200101906001600160a01b031690816001600160a01b03168152505060005b83518110156124be5783818151811061246057634e487b7160e01b600052603260045260246000fd5b60200260200101518282600161247691906139f0565b8151811061249457634e487b7160e01b600052603260045260246000fd5b6001600160a01b0390921660209283029190910190910152806124b681613ae3565b915050612437565b508181845160016124cf91906139f0565b815181106124ed57634e487b7160e01b600052603260045260246000fd5b60200260200101906001600160a01b031690816001600160a01b0316815250509392505050565b6040805160028082526060808301845292602083019080368337019050509050828160008151811061255657634e487b7160e01b600052603260045260246000fd5b60200260200101906001600160a01b031690816001600160a01b031681525050818160018151811061259857634e487b7160e01b600052603260045260246000fd5b60200260200101906001600160a01b031690816001600160a01b03168152505092915050565b60007f800000000000000000000000000000000000000000000000000000000000000082106125ff5760405162461bcd60e51b8152600401610386906135ca565b5090565b61260b6128fa565b50604080516080810182523081526000602082018190523392820192909252606081019190915290565b6000808212156125ff5760405162461bcd60e51b815260040161038690613486565b606061146684846000858561266b856126f5565b6126875760405162461bcd60e51b815260040161038690613593565b600080866001600160a01b031685876040516126a39190613070565b60006040518083038185875af1925050503d80600081146126e0576040519150601f19603f3d011682016040523d82523d6000602084013e6126e5565b606091505b50915091506119748282866126fb565b3b151590565b6060831561270a57508161090a565b82511561271a5782518084602001fd5b8160405162461bcd60e51b815260040161038691906132ce565b6040518060200160405280606081525090565b60405180606001604052806000801916815260200160608152602001606081525090565b60408051808201909152600081526060602082015290565b82805461278f90613aa8565b90600052602060002090601f0160209004810192826127b157600085556127f7565b82601f106127ca57805160ff19168380011785556127f7565b828001600101855582156127f7579182015b828111156127f75782518255916020019190600101906127dc565b506125ff929150612921565b6040518060a001604052806060815260200160006001600160a01b031681526020016000815260200160008152602001600081525090565b6040805161010081018252600080825260208201819052918101829052606081018290526080810182905260a0810182905260c0810182905260e081019190915290565b6040518060a0016040528060008019168152602001600081526020016000815260200160008152602001606081525090565b6040805160c0810190915260008082526020820190815260200160006001600160a01b0316815260200160006001600160a01b0316815260200160008152602001606081525090565b60408051608081018252600080825260208201819052918101829052606081019190915290565b5b808211156125ff5760008155600101612922565b600082601f830112612946578081fd5b8135602061295b612956836139cc565b6139a2565b8281528181019085830183850287018401881015612977578586fd5b855b8581101561299e57813561298c81613b94565b84529284019290840190600101612979565b5090979650505050505050565b600082601f8301126129bb578081fd5b815160206129cb612956836139cc565b82815281810190858301838502870184018810156129e7578586fd5b855b8581101561299e578151845292840192908401906001016129e9565b600060208284031215612a16578081fd5b813561090a81613b94565b600060208284031215612a32578081fd5b815161090a81613b94565b60008060408385031215612a4f578081fd5b8235612a5a81613b94565b91506020830135612a6a81613b94565b809150509250929050565b600080600060608486031215612a89578081fd5b8335612a9481613b94565b92506020840135612aa481613b94565b929592945050506040919091013590565b60008060008060008060c08789031215612acd578384fd5b8635612ad881613b94565b9550602087810135612ae981613b94565b955060408801359450606088013593506080880135925060a088013567ffffffffffffffff80821115612b1a578384fd5b818a0191508a601f830112612b2d578384fd5b813581811115612b3f57612b3f613b7e565b612b5184601f19601f840116016139a2565b91508082528b84828501011115612b66578485fd5b808484018584013784848284010152508093505050509295509295509295565b60008060408385031215612b98578182fd5b8251612ba381613b94565b602084015190925060ff81168114612a6a578182fd5b600060208284031215612bca578081fd5b813567ffffffffffffffff811115612be0578182fd5b61146684828501612936565b60008060408385031215612bfe578182fd5b823567ffffffffffffffff80821115612c15578384fd5b612c2186838701612936565b9350602091508185013581811115612c37578384fd5b85019050601f81018613612c49578283fd5b8035612c57612956826139cc565b81815283810190838501858402850186018a1015612c73578687fd5b8694505b83851015612c95578035835260019490940193918501918501612c77565b5080955050505050509250929050565b60008060408385031215612cb7578182fd5b823567ffffffffffffffff80821115612cce578384fd5b612cda86838701612936565b9350602091508185013581811115612cf0578384fd5b85019050601f81018613612d02578283fd5b8035612d10612956826139cc565b81815283810190838501858402850186018a1015612d2c578687fd5b8694505b83851015612c9557803562ffffff81168114612d4a578788fd5b835260019490940193918501918501612d30565b600080600060608486031215612d72578081fd5b835167ffffffffffffffff80821115612d89578283fd5b818601915086601f830112612d9c578283fd5b81516020612dac612956836139cc565b82815281810190858301838502870184018c1015612dc8578788fd5b8796505b84871015612df3578051612ddf81613b94565b835260019690960195918301918301612dcc565b5091890151919750909350505080821115612e0c578283fd5b50612e19868287016129ab565b925050604084015190509250925092565b60006020808385031215612e3c578182fd5b825167ffffffffffffffff811115612e52578283fd5b8301601f81018513612e62578283fd5b8051612e70612956826139cc565b8181528381019083850185840285018601891015612e8c578687fd5b8694505b83851015612eae578051835260019490940193918501918501612e90565b50979650505050505050565b600060208284031215612ecb578081fd5b815167ffffffffffffffff811115612ee1578182fd5b611466848285016129ab565b600060208284031215612efe578081fd5b8151801515811461090a578182fd5b600060208284031215612f1e578081fd5b5035919050565b600060208284031215612f36578081fd5b5051919050565b6000815180845260208085019450808401835b83811015612f755781516001600160a01b031687529582019590820190600101612f50565b509495945050505050565b6000815180845260208085019450808401835b83811015612f7557815187529582019590820190600101612f93565b60008151808452612fc7816020860160208601613a7c565b601f01601f19169290920160200192915050565b60038110612feb57612feb613b68565b9052565b60028110612feb57612feb613b68565b6001600160a01b03808251168352602082015115156020840152806040830151166040840152506060810151151560608301525050565b7fffffffffffffffffffffffffffffffffffffffff000000000000000000000000606093841b811682529190921b16601482015260280190565b60008251613082818460208701613a7c565b9190910192915050565b6000835161309e818460208801613a7c565b60609390931b7fffffffffffffffffffffffffffffffffffffffff000000000000000000000000169190920190815260140192915050565b600083516130e8818460208801613a7c565b60e89390931b7fffffff0000000000000000000000000000000000000000000000000000000000169190920190815260030192915050565b6001600160a01b0391909116815260200190565b6001600160a01b0392831681529116602082015260400190565b6001600160a01b03848116825283166020820152606081016114666040830184612fdb565b6001600160a01b03938416815291909216602082015262ffffff909116604082015260600190565b6001600160a01b03929092168252602082015260400190565b90815260200190565b602081016103118284612fdb565b60006101208083016131dd848b612fef565b602084810192909252885190819052610140808501928281028601909101918a8201855b82811015613281578785037ffffffffffffffffffffffffffffffffffffffffffffffffffffffffffffffec00186528151805186528481015185870152604080820151908701526060808201519087015260809081015160a09187018290529061326d81880183612faf565b978601979650505090830190600101613201565b5050505083810360408501526132978189612f3d565b9150506132a76060840187612fff565b82810360e08401526132b98186612f80565b91505082610100830152979650505050505050565b60006020825261090a6020830184612faf565b6020808252818101527f42414c414e4345525f494e56414c49445f42415443485f414d4f554e545f494e604082015260600190565b6020808252601c908201527f494e56414c49445f554e49535741505f494e5055545f4c454e47544800000000604082015260600190565b60208082526026908201527f4f776e61626c653a206e6577206f776e657220697320746865207a65726f206160408201527f6464726573730000000000000000000000000000000000000000000000000000606082015260800190565b60208082526018908201527f494e56414c49445f554e49535741505f504f4f4c5f4645450000000000000000604082015260600190565b6020808252601c908201527f494e56414c49445f42414c414e4345525f504f4f4c5f544f4b454e5300000000604082015260600190565b6020808252601d908201527f494e56414c49445f42414c414e4345525f494e5055545f4c454e475448000000604082015260600190565b60208082526018908201527f494e56414c49445f42414c414e4345525f504f4f4c5f49440000000000000000604082015260600190565b6020808252818101527f53616665436173743a2076616c7565206d75737420626520706f736974697665604082015260600190565b6020808252818101527f42414c414e4345525f494e56414c49445f42415443485f414d4f554e545f4f55604082015260600190565b6020808252601f908201527f554e49535741505f494e56414c49445f524553504f4e53455f4c454e47544800604082015260600190565b6020808252818101527f4f776e61626c653a2063616c6c6572206973206e6f7420746865206f776e6572604082015260600190565b60208082526012908201527f494e56414c49445f4445585f4f5054494f4e0000000000000000000000000000604082015260600190565b6020808252601d908201527f416464726573733a2063616c6c20746f206e6f6e2d636f6e7472616374000000604082015260600190565b60208082526028908201527f53616665436173743a2076616c756520646f65736e27742066697420696e206160408201527f6e20696e74323536000000000000000000000000000000000000000000000000606082015260800190565b6020808252602a908201527f5361666545524332303a204552433230206f7065726174696f6e20646964206e60408201527f6f74207375636365656400000000000000000000000000000000000000000000606082015260800190565b60208082526036908201527f5361666545524332303a20617070726f76652066726f6d206e6f6e2d7a65726f60408201527f20746f206e6f6e2d7a65726f20616c6c6f77616e636500000000000000000000606082015260800190565b60208082526014908201527f494e56414c49445f554e49535741505f504f4f4c000000000000000000000000604082015260600190565b6020808252600c908201527f4d554c5f4f564552464c4f570000000000000000000000000000000000000000604082015260600190565b6000602080835283518184015280840151606060408501526137746080850182612f3d565b6040860151858203601f190160608701528051808352908401925084918401905b808310156137b55783518252928401926001929092019190840190613795565b509695505050505050565b600060208252825160a060208401526137dc60c0840182612faf565b90506001600160a01b0360208501511660408401526040840151606084015260608401516080840152608084015160a08401528091505092915050565b6000610100820190506001600160a01b0380845116835280602085015116602084015262ffffff60408501511660408401528060608501511660608401526080840151608084015260a084015160a084015260c084015160c08401528060e08501511660e08401525092915050565b600060e08252855160e083015260208601516138a8610100840182612fef565b5060408601516001600160a01b03908116610120840152606087015116610140830152608086015161016083015260a086015160c06101808401526138f16101a0840182612faf565b9150506139016020830186612fff565b60a082019390935260c0015292915050565b60006020825282516020808401526114666040840182612f3d565b60006020825262ffffff835116602083015260208301516040808401526114666060840182612faf565b918252602082015260400190565b600086825285602083015260a0604083015261398560a0830186612f3d565b6001600160a01b0394909416606083015250608001529392505050565b60405181810167ffffffffffffffff811182821017156139c4576139c4613b7e565b604052919050565b600067ffffffffffffffff8211156139e6576139e6613b7e565b5060209081020190565b60008219821115613a0357613a03613b52565b500190565b600082613a2357634e487b7160e01b81526012600452602481fd5b500490565b6000817fffffffffffffffffffffffffffffffffffffffffffffffffffffffffffffffff0483118215151615613a6057613a60613b52565b500290565b600082821015613a7757613a77613b52565b500390565b60005b83811015613a97578181015183820152602001613a7f565b838111156113e95750506000910152565b600281046001821680613abc57607f821691505b60208210811415613add57634e487b7160e01b600052602260045260246000fd5b50919050565b60007fffffffffffffffffffffffffffffffffffffffffffffffffffffffffffffffff821415613b1557613b15613b52565b5060010190565b60007f8000000000000000000000000000000000000000000000000000000000000000821415613b4e57613b4e613b52565b0390565b634e487b7160e01b600052601160045260246000fd5b634e487b7160e01b600052602160045260246000fd5b634e487b7160e01b600052604160045260246000fd5b6001600160a01b0381168114613ba957600080fd5b5056fea26469706673582212201aff8639b1156b73868a693dd42f9d26bc51552482fd3cf2c86be066197c2c9164736f6c63430008000033",
          "opcodes": "PUSH2 0x100 PUSH1 0x40 MSTORE CALLVALUE DUP1 ISZERO PUSH3 0x12 JUMPI PUSH1 0x0 DUP1 REVERT JUMPDEST POP PUSH1 0x40 MLOAD PUSH3 0x3DB6 CODESIZE SUB DUP1 PUSH3 0x3DB6 DUP4 CODECOPY DUP2 ADD PUSH1 0x40 DUP2 SWAP1 MSTORE PUSH3 0x35 SWAP2 PUSH3 0xC8 JUMP JUMPDEST DUP1 DUP3 DUP5 PUSH1 0x0 PUSH3 0x44 PUSH3 0xC4 JUMP JUMPDEST PUSH1 0x0 DUP1 SLOAD PUSH1 0x1 PUSH1 0x1 PUSH1 0xA0 SHL SUB NOT AND PUSH1 0x1 PUSH1 0x1 PUSH1 0xA0 SHL SUB DUP4 AND SWAP1 DUP2 OR DUP3 SSTORE PUSH1 0x40 MLOAD SWAP3 SWAP4 POP SWAP2 PUSH32 0x8BE0079C531659141344CD1FD0A4F28419497F9722A3DAAFE3B4186F6B6457E0 SWAP1 DUP3 SWAP1 LOG3 POP PUSH1 0x1 PUSH1 0x1 PUSH1 0x60 SHL SUB NOT PUSH1 0x60 SWAP2 DUP3 SHL DUP2 AND PUSH1 0x80 MSTORE SWAP2 DUP2 SHL DUP3 AND PUSH1 0xA0 MSTORE SWAP2 DUP3 SHL DUP2 AND PUSH1 0xC0 MSTORE SWAP5 SWAP1 SHL SWAP1 SWAP4 AND PUSH1 0xE0 MSTORE POP PUSH3 0x148 SWAP2 POP POP JUMP JUMPDEST CALLER SWAP1 JUMP JUMPDEST PUSH1 0x0 DUP1 PUSH1 0x0 DUP1 PUSH1 0x80 DUP6 DUP8 SUB SLT ISZERO PUSH3 0xDE JUMPI DUP4 DUP5 REVERT JUMPDEST DUP5 MLOAD PUSH3 0xEB DUP2 PUSH3 0x12F JUMP JUMPDEST PUSH1 0x20 DUP7 ADD MLOAD SWAP1 SWAP5 POP PUSH3 0xFE DUP2 PUSH3 0x12F JUMP JUMPDEST PUSH1 0x40 DUP7 ADD MLOAD SWAP1 SWAP4 POP PUSH3 0x111 DUP2 PUSH3 0x12F JUMP JUMPDEST PUSH1 0x60 DUP7 ADD MLOAD SWAP1 SWAP3 POP PUSH3 0x124 DUP2 PUSH3 0x12F JUMP JUMPDEST SWAP4 SWAP7 SWAP3 SWAP6 POP SWAP1 SWAP4 POP POP JUMP JUMPDEST PUSH1 0x1 PUSH1 0x1 PUSH1 0xA0 SHL SUB DUP2 AND DUP2 EQ PUSH3 0x145 JUMPI PUSH1 0x0 DUP1 REVERT JUMPDEST POP JUMP JUMPDEST PUSH1 0x80 MLOAD PUSH1 0x60 SHR PUSH1 0xA0 MLOAD PUSH1 0x60 SHR PUSH1 0xC0 MLOAD PUSH1 0x60 SHR PUSH1 0xE0 MLOAD PUSH1 0x60 SHR PUSH2 0x3BE2 PUSH3 0x1D4 PUSH1 0x0 CODECOPY PUSH1 0x0 DUP2 DUP2 PUSH2 0x5B4 ADD MSTORE PUSH2 0x85E ADD MSTORE PUSH1 0x0 DUP2 DUP2 PUSH2 0x1083 ADD MSTORE DUP2 DUP2 PUSH2 0x1163 ADD MSTORE DUP2 DUP2 PUSH2 0x18A3 ADD MSTORE DUP2 DUP2 PUSH2 0x20ED ADD MSTORE PUSH2 0x22B2 ADD MSTORE PUSH1 0x0 DUP2 DUP2 PUSH2 0x66C ADD MSTORE DUP2 DUP2 PUSH2 0x1632 ADD MSTORE PUSH2 0x1669 ADD MSTORE PUSH1 0x0 DUP2 DUP2 PUSH2 0xC35 ADD MSTORE DUP2 DUP2 PUSH2 0x177B ADD MSTORE DUP2 DUP2 PUSH2 0x1CCB ADD MSTORE PUSH2 0x1DD0 ADD MSTORE PUSH2 0x3BE2 PUSH1 0x0 RETURN INVALID PUSH1 0x80 PUSH1 0x40 MSTORE CALLVALUE DUP1 ISZERO PUSH2 0x10 JUMPI PUSH1 0x0 DUP1 REVERT JUMPDEST POP PUSH1 0x4 CALLDATASIZE LT PUSH2 0xFF JUMPI PUSH1 0x0 CALLDATALOAD PUSH1 0xE0 SHR DUP1 PUSH4 0x715018A6 GT PUSH2 0x97 JUMPI DUP1 PUSH4 0xCF3C8C3F GT PUSH2 0x66 JUMPI DUP1 PUSH4 0xCF3C8C3F EQ PUSH2 0x23C JUMPI DUP1 PUSH4 0xD182224A EQ PUSH2 0x24F JUMPI DUP1 PUSH4 0xD88E3E3B EQ PUSH2 0x262 JUMPI DUP1 PUSH4 0xF2FDE38B EQ PUSH2 0x275 JUMPI PUSH2 0xFF JUMP JUMPDEST DUP1 PUSH4 0x715018A6 EQ PUSH2 0x1EC JUMPI DUP1 PUSH4 0x8DA5CB5B EQ PUSH2 0x1F4 JUMPI DUP1 PUSH4 0x9F9B0934 EQ PUSH2 0x1FC JUMPI DUP1 PUSH4 0xC8F9948A EQ PUSH2 0x21C JUMPI PUSH2 0xFF JUMP JUMPDEST DUP1 PUSH4 0x44204966 GT PUSH2 0xD3 JUMPI DUP1 PUSH4 0x44204966 EQ PUSH2 0x178 JUMPI DUP1 PUSH4 0x44D9E131 EQ PUSH2 0x199 JUMPI DUP1 PUSH4 0x4AA06652 EQ PUSH2 0x1AC JUMPI DUP1 PUSH4 0x5EE91426 EQ PUSH2 0x1CC JUMPI PUSH2 0xFF JUMP JUMPDEST DUP1 PUSH3 0x186ADE EQ PUSH2 0x104 JUMPI DUP1 PUSH4 0x16725787 EQ PUSH2 0x12D JUMPI DUP1 PUSH4 0x178E7340 EQ PUSH2 0x14E JUMPI DUP1 PUSH4 0x2630C12F EQ PUSH2 0x163 JUMPI JUMPDEST PUSH1 0x0 DUP1 REVERT JUMPDEST PUSH2 0x117 PUSH2 0x112 CALLDATASIZE PUSH1 0x4 PUSH2 0x2A3D JUMP JUMPDEST PUSH2 0x288 JUMP JUMPDEST PUSH1 0x40 MLOAD PUSH2 0x124 SWAP2 SWAP1 PUSH2 0x3913 JUMP JUMPDEST PUSH1 0x40 MLOAD DUP1 SWAP2 SUB SWAP1 RETURN JUMPDEST PUSH2 0x140 PUSH2 0x13B CALLDATASIZE PUSH1 0x4 PUSH2 0x2AB5 JUMP JUMPDEST PUSH2 0x317 JUMP JUMPDEST PUSH1 0x40 MLOAD PUSH2 0x124 SWAP3 SWAP2 SWAP1 PUSH2 0x3958 JUMP JUMPDEST PUSH2 0x161 PUSH2 0x15C CALLDATASIZE PUSH1 0x4 PUSH2 0x2BEC JUMP JUMPDEST PUSH2 0x347 JUMP JUMPDEST STOP JUMPDEST PUSH2 0x16B PUSH2 0x5B2 JUMP JUMPDEST PUSH1 0x40 MLOAD PUSH2 0x124 SWAP2 SWAP1 PUSH2 0x3120 JUMP JUMPDEST PUSH2 0x18B PUSH2 0x186 CALLDATASIZE PUSH1 0x4 PUSH2 0x2A3D JUMP JUMPDEST PUSH2 0x5D6 JUMP JUMPDEST PUSH1 0x40 MLOAD PUSH2 0x124 SWAP3 SWAP2 SWAP1 PUSH2 0x3134 JUMP JUMPDEST PUSH2 0x161 PUSH2 0x1A7 CALLDATASIZE PUSH1 0x4 PUSH2 0x2BB9 JUMP JUMPDEST PUSH2 0x607 JUMP JUMPDEST PUSH2 0x1BF PUSH2 0x1BA CALLDATASIZE PUSH1 0x4 PUSH2 0x2A75 JUMP JUMPDEST PUSH2 0x859 JUMP JUMPDEST PUSH1 0x40 MLOAD PUSH2 0x124 SWAP2 SWAP1 PUSH2 0x31B4 JUMP JUMPDEST PUSH2 0x1DF PUSH2 0x1DA CALLDATASIZE PUSH1 0x4 PUSH2 0x2A3D JUMP JUMPDEST PUSH2 0x911 JUMP JUMPDEST PUSH1 0x40 MLOAD PUSH2 0x124 SWAP2 SWAP1 PUSH2 0x374F JUMP JUMPDEST PUSH2 0x161 PUSH2 0xA0B JUMP JUMPDEST PUSH2 0x16B PUSH2 0xAAC JUMP JUMPDEST PUSH2 0x20F PUSH2 0x20A CALLDATASIZE PUSH1 0x4 PUSH2 0x2A3D JUMP JUMPDEST PUSH2 0xABB JUMP JUMPDEST PUSH1 0x40 MLOAD PUSH2 0x124 SWAP2 SWAP1 PUSH2 0x392E JUMP JUMPDEST PUSH2 0x22F PUSH2 0x22A CALLDATASIZE PUSH1 0x4 PUSH2 0x2A3D JUMP JUMPDEST PUSH2 0xB8D JUMP JUMPDEST PUSH1 0x40 MLOAD PUSH2 0x124 SWAP2 SWAP1 PUSH2 0x31BD JUMP JUMPDEST PUSH2 0x161 PUSH2 0x24A CALLDATASIZE PUSH1 0x4 PUSH2 0x2CA5 JUMP JUMPDEST PUSH2 0xBB8 JUMP JUMPDEST PUSH2 0x22F PUSH2 0x25D CALLDATASIZE PUSH1 0x4 PUSH2 0x2F0D JUMP JUMPDEST PUSH2 0xE50 JUMP JUMPDEST PUSH2 0x1BF PUSH2 0x270 CALLDATASIZE PUSH1 0x4 PUSH2 0x2A3D JUMP JUMPDEST PUSH2 0xE65 JUMP JUMPDEST PUSH2 0x161 PUSH2 0x283 CALLDATASIZE PUSH1 0x4 PUSH2 0x2A05 JUMP JUMPDEST PUSH2 0xEAB JUMP JUMPDEST PUSH2 0x290 PUSH2 0x2734 JUMP JUMPDEST PUSH1 0x2 PUSH1 0x0 PUSH2 0x29E DUP6 DUP6 PUSH2 0xE65 JUMP JUMPDEST DUP2 MSTORE PUSH1 0x20 DUP1 DUP3 ADD SWAP3 SWAP1 SWAP3 MSTORE PUSH1 0x40 SWAP1 DUP2 ADD PUSH1 0x0 KECCAK256 DUP2 MLOAD DUP2 SLOAD DUP1 DUP6 MUL DUP3 ADD DUP5 ADD DUP5 MSTORE SWAP4 DUP2 ADD DUP5 DUP2 MSTORE SWAP1 SWAP4 SWAP2 SWAP3 DUP5 SWAP3 DUP5 SWAP2 DUP5 ADD DUP3 DUP3 DUP1 ISZERO PUSH2 0x305 JUMPI PUSH1 0x20 MUL DUP3 ADD SWAP2 SWAP1 PUSH1 0x0 MSTORE PUSH1 0x20 PUSH1 0x0 KECCAK256 SWAP1 JUMPDEST DUP2 SLOAD PUSH1 0x1 PUSH1 0x1 PUSH1 0xA0 SHL SUB AND DUP2 MSTORE PUSH1 0x1 SWAP1 SWAP2 ADD SWAP1 PUSH1 0x20 ADD DUP1 DUP4 GT PUSH2 0x2E7 JUMPI JUMPDEST POP POP POP POP POP DUP2 MSTORE POP POP SWAP1 POP JUMPDEST SWAP3 SWAP2 POP POP JUMP JUMPDEST PUSH1 0x0 DUP1 PUSH1 0x0 PUSH2 0x326 DUP10 DUP10 PUSH2 0xB8D JUMP JUMPDEST SWAP1 POP PUSH2 0x336 DUP2 DUP11 DUP11 DUP11 DUP11 DUP11 PUSH2 0xF83 JUMP JUMPDEST PUSH1 0x0 SWAP11 SWAP1 SWAP10 POP SWAP8 POP POP POP POP POP POP POP POP JUMP JUMPDEST PUSH2 0x34F PUSH2 0x104C JUMP JUMPDEST PUSH1 0x1 PUSH1 0x1 PUSH1 0xA0 SHL SUB AND PUSH2 0x360 PUSH2 0xAAC JUMP JUMPDEST PUSH1 0x1 PUSH1 0x1 PUSH1 0xA0 SHL SUB AND EQ PUSH2 0x38F JUMPI PUSH1 0x40 MLOAD PUSH3 0x461BCD PUSH1 0xE5 SHL DUP2 MSTORE PUSH1 0x4 ADD PUSH2 0x386 SWAP1 PUSH2 0x3527 JUMP JUMPDEST PUSH1 0x40 MLOAD DUP1 SWAP2 SUB SWAP1 REVERT JUMPDEST PUSH1 0x2 DUP3 MLOAD LT ISZERO DUP1 ISZERO PUSH2 0x3AD JUMPI POP DUP1 MLOAD PUSH2 0x3A9 SWAP1 PUSH1 0x1 PUSH2 0x39F0 JUMP JUMPDEST DUP3 MLOAD EQ JUMPDEST PUSH2 0x3C9 JUMPI PUSH1 0x40 MLOAD PUSH3 0x461BCD PUSH1 0xE5 SHL DUP2 MSTORE PUSH1 0x4 ADD PUSH2 0x386 SWAP1 PUSH2 0x3418 JUMP JUMPDEST PUSH1 0x0 JUMPDEST DUP2 MLOAD DUP2 LT ISZERO PUSH2 0x473 JUMPI PUSH2 0x461 DUP3 DUP3 DUP2 MLOAD DUP2 LT PUSH2 0x3F8 JUMPI PUSH4 0x4E487B71 PUSH1 0xE0 SHL PUSH1 0x0 MSTORE PUSH1 0x32 PUSH1 0x4 MSTORE PUSH1 0x24 PUSH1 0x0 REVERT JUMPDEST PUSH1 0x20 MUL PUSH1 0x20 ADD ADD MLOAD DUP5 DUP4 DUP2 MLOAD DUP2 LT PUSH2 0x420 JUMPI PUSH4 0x4E487B71 PUSH1 0xE0 SHL PUSH1 0x0 MSTORE PUSH1 0x32 PUSH1 0x4 MSTORE PUSH1 0x24 PUSH1 0x0 REVERT JUMPDEST PUSH1 0x20 MUL PUSH1 0x20 ADD ADD MLOAD DUP6 DUP5 PUSH1 0x1 PUSH2 0x436 SWAP2 SWAP1 PUSH2 0x39F0 JUMP JUMPDEST DUP2 MLOAD DUP2 LT PUSH2 0x454 JUMPI PUSH4 0x4E487B71 PUSH1 0xE0 SHL PUSH1 0x0 MSTORE PUSH1 0x32 PUSH1 0x4 MSTORE PUSH1 0x24 PUSH1 0x0 REVERT JUMPDEST PUSH1 0x20 MUL PUSH1 0x20 ADD ADD MLOAD PUSH2 0x1050 JUMP JUMPDEST DUP1 PUSH2 0x46B DUP2 PUSH2 0x3AE3 JUMP JUMPDEST SWAP2 POP POP PUSH2 0x3CC JUMP JUMPDEST POP PUSH1 0x0 PUSH2 0x492 PUSH2 0x482 DUP5 PUSH2 0x1219 JUMP JUMPDEST PUSH2 0x48B DUP6 PUSH2 0x124B JUMP JUMPDEST PUSH1 0x2 PUSH2 0x127A JUMP JUMPDEST PUSH1 0x0 DUP2 DUP2 MSTORE PUSH1 0x3 PUSH1 0x20 MSTORE PUSH1 0x40 DUP2 KECCAK256 DUP5 MLOAD SWAP3 SWAP4 POP SWAP2 DUP5 SWAP2 SWAP1 PUSH2 0x4C3 JUMPI PUSH4 0x4E487B71 PUSH1 0xE0 SHL PUSH1 0x0 MSTORE PUSH1 0x32 PUSH1 0x4 MSTORE PUSH1 0x24 PUSH1 0x0 REVERT JUMPDEST PUSH1 0x20 SWAP1 DUP2 MUL SWAP2 SWAP1 SWAP2 ADD ADD MLOAD DUP2 SSTORE PUSH1 0x1 JUMPDEST DUP4 MLOAD DUP2 LT ISZERO PUSH2 0x5AB JUMPI DUP2 PUSH1 0x1 ADD DUP6 DUP3 DUP2 MLOAD DUP2 LT PUSH2 0x500 JUMPI PUSH4 0x4E487B71 PUSH1 0xE0 SHL PUSH1 0x0 MSTORE PUSH1 0x32 PUSH1 0x4 MSTORE PUSH1 0x24 PUSH1 0x0 REVERT JUMPDEST PUSH1 0x20 SWAP1 DUP2 MUL SWAP2 SWAP1 SWAP2 ADD DUP2 ADD MLOAD DUP3 SLOAD PUSH1 0x1 DUP2 ADD DUP5 SSTORE PUSH1 0x0 SWAP4 DUP5 MSTORE SWAP2 SWAP1 SWAP3 KECCAK256 ADD DUP1 SLOAD PUSH32 0xFFFFFFFFFFFFFFFFFFFFFFFF0000000000000000000000000000000000000000 AND PUSH1 0x1 PUSH1 0x1 PUSH1 0xA0 SHL SUB SWAP1 SWAP3 AND SWAP2 SWAP1 SWAP2 OR SWAP1 SSTORE DUP4 MLOAD PUSH1 0x2 DUP4 ADD SWAP1 DUP6 SWAP1 DUP4 SWAP1 DUP2 LT PUSH2 0x57A JUMPI PUSH4 0x4E487B71 PUSH1 0xE0 SHL PUSH1 0x0 MSTORE PUSH1 0x32 PUSH1 0x4 MSTORE PUSH1 0x24 PUSH1 0x0 REVERT JUMPDEST PUSH1 0x20 SWAP1 DUP2 MUL SWAP2 SWAP1 SWAP2 ADD DUP2 ADD MLOAD DUP3 SLOAD PUSH1 0x1 DUP2 ADD DUP5 SSTORE PUSH1 0x0 SWAP4 DUP5 MSTORE SWAP2 SWAP1 SWAP3 KECCAK256 ADD SSTORE DUP1 PUSH2 0x5A3 DUP2 PUSH2 0x3AE3 JUMP JUMPDEST SWAP2 POP POP PUSH2 0x4D3 JUMP JUMPDEST POP POP POP POP POP JUMP JUMPDEST PUSH32 0x0 DUP2 JUMP JUMPDEST PUSH1 0x0 DUP1 DUP3 PUSH1 0x1 PUSH1 0x1 PUSH1 0xA0 SHL SUB AND DUP5 PUSH1 0x1 PUSH1 0x1 PUSH1 0xA0 SHL SUB AND LT PUSH2 0x5F9 JUMPI DUP3 DUP5 PUSH2 0x5FC JUMP JUMPDEST DUP4 DUP4 JUMPDEST SWAP1 SWAP6 SWAP1 SWAP5 POP SWAP3 POP POP POP JUMP JUMPDEST PUSH2 0x60F PUSH2 0x104C JUMP JUMPDEST PUSH1 0x1 PUSH1 0x1 PUSH1 0xA0 SHL SUB AND PUSH2 0x620 PUSH2 0xAAC JUMP JUMPDEST PUSH1 0x1 PUSH1 0x1 PUSH1 0xA0 SHL SUB AND EQ PUSH2 0x646 JUMPI PUSH1 0x40 MLOAD PUSH3 0x461BCD PUSH1 0xE5 SHL DUP2 MSTORE PUSH1 0x4 ADD PUSH2 0x386 SWAP1 PUSH2 0x3527 JUMP JUMPDEST PUSH1 0x2 DUP2 MLOAD LT ISZERO PUSH2 0x668 JUMPI PUSH1 0x40 MLOAD PUSH3 0x461BCD PUSH1 0xE5 SHL DUP2 MSTORE PUSH1 0x4 ADD PUSH2 0x386 SWAP1 PUSH2 0x3316 JUMP JUMPDEST PUSH1 0x0 PUSH32 0x0 PUSH1 0x1 PUSH1 0x1 PUSH1 0xA0 SHL SUB AND PUSH4 0xC45A0155 PUSH1 0x40 MLOAD DUP2 PUSH4 0xFFFFFFFF AND PUSH1 0xE0 SHL DUP2 MSTORE PUSH1 0x4 ADD PUSH1 0x20 PUSH1 0x40 MLOAD DUP1 DUP4 SUB DUP2 DUP7 DUP1 EXTCODESIZE ISZERO DUP1 ISZERO PUSH2 0x6C3 JUMPI PUSH1 0x0 DUP1 REVERT JUMPDEST POP GAS STATICCALL ISZERO DUP1 ISZERO PUSH2 0x6D7 JUMPI RETURNDATASIZE PUSH1 0x0 DUP1 RETURNDATACOPY RETURNDATASIZE PUSH1 0x0 REVERT JUMPDEST POP POP POP POP PUSH1 0x40 MLOAD RETURNDATASIZE PUSH1 0x1F NOT PUSH1 0x1F DUP3 ADD AND DUP3 ADD DUP1 PUSH1 0x40 MSTORE POP DUP2 ADD SWAP1 PUSH2 0x6FB SWAP2 SWAP1 PUSH2 0x2A21 JUMP JUMPDEST SWAP1 POP PUSH1 0x0 JUMPDEST PUSH1 0x1 DUP4 MLOAD PUSH2 0x70E SWAP2 SWAP1 PUSH2 0x3A65 JUMP JUMPDEST DUP2 LT ISZERO PUSH2 0x78C JUMPI PUSH2 0x77A DUP3 DUP5 DUP4 DUP2 MLOAD DUP2 LT PUSH2 0x739 JUMPI PUSH4 0x4E487B71 PUSH1 0xE0 SHL PUSH1 0x0 MSTORE PUSH1 0x32 PUSH1 0x4 MSTORE PUSH1 0x24 PUSH1 0x0 REVERT JUMPDEST PUSH1 0x20 MUL PUSH1 0x20 ADD ADD MLOAD DUP6 DUP5 PUSH1 0x1 PUSH2 0x74F SWAP2 SWAP1 PUSH2 0x39F0 JUMP JUMPDEST DUP2 MLOAD DUP2 LT PUSH2 0x76D JUMPI PUSH4 0x4E487B71 PUSH1 0xE0 SHL PUSH1 0x0 MSTORE PUSH1 0x32 PUSH1 0x4 MSTORE PUSH1 0x24 PUSH1 0x0 REVERT JUMPDEST PUSH1 0x20 MUL PUSH1 0x20 ADD ADD MLOAD PUSH2 0x1327 JUMP JUMPDEST DUP1 PUSH2 0x784 DUP2 PUSH2 0x3AE3 JUMP JUMPDEST SWAP2 POP POP PUSH2 0x700 JUMP JUMPDEST POP PUSH1 0x0 PUSH2 0x7AB PUSH2 0x79B DUP5 PUSH2 0x1219 JUMP JUMPDEST PUSH2 0x7A4 DUP6 PUSH2 0x124B JUMP JUMPDEST PUSH1 0x0 PUSH2 0x127A JUMP JUMPDEST PUSH1 0x0 DUP2 DUP2 MSTORE PUSH1 0x2 PUSH1 0x20 DUP2 SWAP1 MSTORE PUSH1 0x40 SWAP1 SWAP2 KECCAK256 SWAP2 SWAP3 POP JUMPDEST DUP5 MLOAD DUP2 LT ISZERO PUSH2 0x5AB JUMPI DUP2 DUP6 PUSH2 0x7D6 PUSH1 0x1 DUP5 PUSH2 0x3A65 JUMP JUMPDEST DUP2 MLOAD DUP2 LT PUSH2 0x7F4 JUMPI PUSH4 0x4E487B71 PUSH1 0xE0 SHL PUSH1 0x0 MSTORE PUSH1 0x32 PUSH1 0x4 MSTORE PUSH1 0x24 PUSH1 0x0 REVERT JUMPDEST PUSH1 0x20 SWAP1 DUP2 MUL SWAP2 SWAP1 SWAP2 ADD DUP2 ADD MLOAD DUP3 SLOAD PUSH1 0x1 DUP2 ADD DUP5 SSTORE PUSH1 0x0 SWAP4 DUP5 MSTORE SWAP2 SWAP1 SWAP3 KECCAK256 ADD DUP1 SLOAD PUSH32 0xFFFFFFFFFFFFFFFFFFFFFFFF0000000000000000000000000000000000000000 AND PUSH1 0x1 PUSH1 0x1 PUSH1 0xA0 SHL SUB SWAP1 SWAP3 AND SWAP2 SWAP1 SWAP2 OR SWAP1 SSTORE DUP1 PUSH2 0x851 DUP2 PUSH2 0x3AE3 JUMP JUMPDEST SWAP2 POP POP PUSH2 0x7C0 JUMP JUMPDEST PUSH1 0x0 DUP1 PUSH32 0x0 PUSH1 0x1 PUSH1 0x1 PUSH1 0xA0 SHL SUB AND PUSH4 0xAFA99860 DUP6 DUP8 PUSH1 0x40 MLOAD DUP4 PUSH4 0xFFFFFFFF AND PUSH1 0xE0 SHL DUP2 MSTORE PUSH1 0x4 ADD PUSH2 0x8AA SWAP3 SWAP2 SWAP1 PUSH2 0x3134 JUMP JUMPDEST PUSH1 0x20 PUSH1 0x40 MLOAD DUP1 DUP4 SUB DUP2 DUP7 DUP1 EXTCODESIZE ISZERO DUP1 ISZERO PUSH2 0x8C2 JUMPI PUSH1 0x0 DUP1 REVERT JUMPDEST POP GAS STATICCALL ISZERO DUP1 ISZERO PUSH2 0x8D6 JUMPI RETURNDATASIZE PUSH1 0x0 DUP1 RETURNDATACOPY RETURNDATASIZE PUSH1 0x0 REVERT JUMPDEST POP POP POP POP PUSH1 0x40 MLOAD RETURNDATASIZE PUSH1 0x1F NOT PUSH1 0x1F DUP3 ADD AND DUP3 ADD DUP1 PUSH1 0x40 MSTORE POP DUP2 ADD SWAP1 PUSH2 0x8FA SWAP2 SWAP1 PUSH2 0x2F25 JUMP JUMPDEST SWAP1 POP PUSH2 0x906 DUP4 DUP3 PUSH2 0x13EF JUMP JUMPDEST SWAP2 POP POP JUMPDEST SWAP4 SWAP3 POP POP POP JUMP JUMPDEST PUSH2 0x919 PUSH2 0x2747 JUMP JUMPDEST PUSH1 0x3 PUSH1 0x0 PUSH2 0x927 DUP6 DUP6 PUSH2 0xE65 JUMP JUMPDEST DUP2 MSTORE PUSH1 0x20 ADD SWAP1 DUP2 MSTORE PUSH1 0x20 ADD PUSH1 0x0 KECCAK256 PUSH1 0x40 MLOAD DUP1 PUSH1 0x60 ADD PUSH1 0x40 MSTORE SWAP1 DUP2 PUSH1 0x0 DUP3 ADD SLOAD DUP2 MSTORE PUSH1 0x20 ADD PUSH1 0x1 DUP3 ADD DUP1 SLOAD DUP1 PUSH1 0x20 MUL PUSH1 0x20 ADD PUSH1 0x40 MLOAD SWAP1 DUP2 ADD PUSH1 0x40 MSTORE DUP1 SWAP3 SWAP2 SWAP1 DUP2 DUP2 MSTORE PUSH1 0x20 ADD DUP3 DUP1 SLOAD DUP1 ISZERO PUSH2 0x9A3 JUMPI PUSH1 0x20 MUL DUP3 ADD SWAP2 SWAP1 PUSH1 0x0 MSTORE PUSH1 0x20 PUSH1 0x0 KECCAK256 SWAP1 JUMPDEST DUP2 SLOAD PUSH1 0x1 PUSH1 0x1 PUSH1 0xA0 SHL SUB AND DUP2 MSTORE PUSH1 0x1 SWAP1 SWAP2 ADD SWAP1 PUSH1 0x20 ADD DUP1 DUP4 GT PUSH2 0x985 JUMPI JUMPDEST POP POP POP POP POP DUP2 MSTORE PUSH1 0x20 ADD PUSH1 0x2 DUP3 ADD DUP1 SLOAD DUP1 PUSH1 0x20 MUL PUSH1 0x20 ADD PUSH1 0x40 MLOAD SWAP1 DUP2 ADD PUSH1 0x40 MSTORE DUP1 SWAP3 SWAP2 SWAP1 DUP2 DUP2 MSTORE PUSH1 0x20 ADD DUP3 DUP1 SLOAD DUP1 ISZERO PUSH2 0x305 JUMPI PUSH1 0x20 MUL DUP3 ADD SWAP2 SWAP1 PUSH1 0x0 MSTORE PUSH1 0x20 PUSH1 0x0 KECCAK256 SWAP1 JUMPDEST DUP2 SLOAD DUP2 MSTORE PUSH1 0x20 ADD SWAP1 PUSH1 0x1 ADD SWAP1 DUP1 DUP4 GT PUSH2 0x9E7 JUMPI POP POP POP POP POP DUP2 MSTORE POP POP SWAP1 POP SWAP3 SWAP2 POP POP JUMP JUMPDEST PUSH2 0xA13 PUSH2 0x104C JUMP JUMPDEST PUSH1 0x1 PUSH1 0x1 PUSH1 0xA0 SHL SUB AND PUSH2 0xA24 PUSH2 0xAAC JUMP JUMPDEST PUSH1 0x1 PUSH1 0x1 PUSH1 0xA0 SHL SUB AND EQ PUSH2 0xA4A JUMPI PUSH1 0x40 MLOAD PUSH3 0x461BCD PUSH1 0xE5 SHL DUP2 MSTORE PUSH1 0x4 ADD PUSH2 0x386 SWAP1 PUSH2 0x3527 JUMP JUMPDEST PUSH1 0x0 DUP1 SLOAD PUSH1 0x40 MLOAD PUSH1 0x1 PUSH1 0x1 PUSH1 0xA0 SHL SUB SWAP1 SWAP2 AND SWAP1 PUSH32 0x8BE0079C531659141344CD1FD0A4F28419497F9722A3DAAFE3B4186F6B6457E0 SWAP1 DUP4 SWAP1 LOG3 PUSH1 0x0 DUP1 SLOAD PUSH32 0xFFFFFFFFFFFFFFFFFFFFFFFF0000000000000000000000000000000000000000 AND SWAP1 SSTORE JUMP JUMPDEST PUSH1 0x0 SLOAD PUSH1 0x1 PUSH1 0x1 PUSH1 0xA0 SHL SUB AND SWAP1 JUMP JUMPDEST PUSH2 0xAC3 PUSH2 0x276B JUMP JUMPDEST PUSH1 0x1 PUSH1 0x0 PUSH2 0xAD1 DUP6 DUP6 PUSH2 0xE65 JUMP JUMPDEST DUP2 MSTORE PUSH1 0x20 DUP1 DUP3 ADD SWAP3 SWAP1 SWAP3 MSTORE PUSH1 0x40 SWAP1 DUP2 ADD PUSH1 0x0 KECCAK256 DUP2 MLOAD DUP1 DUP4 ADD SWAP1 SWAP3 MSTORE DUP1 SLOAD PUSH3 0xFFFFFF AND DUP3 MSTORE PUSH1 0x1 DUP2 ADD DUP1 SLOAD SWAP3 SWAP4 SWAP2 SWAP3 SWAP2 DUP5 ADD SWAP2 PUSH2 0xB0C SWAP1 PUSH2 0x3AA8 JUMP JUMPDEST DUP1 PUSH1 0x1F ADD PUSH1 0x20 DUP1 SWAP2 DIV MUL PUSH1 0x20 ADD PUSH1 0x40 MLOAD SWAP1 DUP2 ADD PUSH1 0x40 MSTORE DUP1 SWAP3 SWAP2 SWAP1 DUP2 DUP2 MSTORE PUSH1 0x20 ADD DUP3 DUP1 SLOAD PUSH2 0xB38 SWAP1 PUSH2 0x3AA8 JUMP JUMPDEST DUP1 ISZERO PUSH2 0x305 JUMPI DUP1 PUSH1 0x1F LT PUSH2 0xB5A JUMPI PUSH2 0x100 DUP1 DUP4 SLOAD DIV MUL DUP4 MSTORE SWAP2 PUSH1 0x20 ADD SWAP2 PUSH2 0x305 JUMP JUMPDEST DUP3 ADD SWAP2 SWAP1 PUSH1 0x0 MSTORE PUSH1 0x20 PUSH1 0x0 KECCAK256 SWAP1 JUMPDEST DUP2 SLOAD DUP2 MSTORE SWAP1 PUSH1 0x1 ADD SWAP1 PUSH1 0x20 ADD DUP1 DUP4 GT PUSH2 0xB68 JUMPI POP POP POP SWAP2 SWAP1 SWAP3 MSTORE POP SWAP2 SWAP6 SWAP5 POP POP POP POP POP JUMP JUMPDEST PUSH1 0x0 PUSH1 0x4 PUSH1 0x0 PUSH2 0xB9D DUP6 DUP6 PUSH2 0xE65 JUMP JUMPDEST DUP2 MSTORE PUSH1 0x20 DUP2 ADD SWAP2 SWAP1 SWAP2 MSTORE PUSH1 0x40 ADD PUSH1 0x0 KECCAK256 SLOAD PUSH1 0xFF AND SWAP4 SWAP3 POP POP POP JUMP JUMPDEST PUSH2 0xBC0 PUSH2 0x104C JUMP JUMPDEST PUSH1 0x1 PUSH1 0x1 PUSH1 0xA0 SHL SUB AND PUSH2 0xBD1 PUSH2 0xAAC JUMP JUMPDEST PUSH1 0x1 PUSH1 0x1 PUSH1 0xA0 SHL SUB AND EQ PUSH2 0xBF7 JUMPI PUSH1 0x40 MLOAD PUSH3 0x461BCD PUSH1 0xE5 SHL DUP2 MSTORE PUSH1 0x4 ADD PUSH2 0x386 SWAP1 PUSH2 0x3527 JUMP JUMPDEST PUSH1 0x2 DUP3 MLOAD LT ISZERO DUP1 ISZERO PUSH2 0xC15 JUMPI POP DUP1 MLOAD PUSH2 0xC11 SWAP1 PUSH1 0x1 PUSH2 0x39F0 JUMP JUMPDEST DUP3 MLOAD EQ JUMPDEST PUSH2 0xC31 JUMPI PUSH1 0x40 MLOAD PUSH3 0x461BCD PUSH1 0xE5 SHL DUP2 MSTORE PUSH1 0x4 ADD PUSH2 0x386 SWAP1 PUSH2 0x3316 JUMP JUMPDEST PUSH1 0x0 PUSH32 0x0 PUSH1 0x1 PUSH1 0x1 PUSH1 0xA0 SHL SUB AND PUSH4 0xC45A0155 PUSH1 0x40 MLOAD DUP2 PUSH4 0xFFFFFFFF AND PUSH1 0xE0 SHL DUP2 MSTORE PUSH1 0x4 ADD PUSH1 0x20 PUSH1 0x40 MLOAD DUP1 DUP4 SUB DUP2 DUP7 DUP1 EXTCODESIZE ISZERO DUP1 ISZERO PUSH2 0xC8C JUMPI PUSH1 0x0 DUP1 REVERT JUMPDEST POP GAS STATICCALL ISZERO DUP1 ISZERO PUSH2 0xCA0 JUMPI RETURNDATASIZE PUSH1 0x0 DUP1 RETURNDATACOPY RETURNDATASIZE PUSH1 0x0 REVERT JUMPDEST POP POP POP POP PUSH1 0x40 MLOAD RETURNDATASIZE PUSH1 0x1F NOT PUSH1 0x1F DUP3 ADD AND DUP3 ADD DUP1 PUSH1 0x40 MSTORE POP DUP2 ADD SWAP1 PUSH2 0xCC4 SWAP2 SWAP1 PUSH2 0x2A21 JUMP JUMPDEST SWAP1 POP PUSH1 0x0 JUMPDEST DUP3 MLOAD DUP2 LT ISZERO PUSH2 0xD71 JUMPI PUSH2 0xD5F DUP3 DUP6 DUP4 DUP2 MLOAD DUP2 LT PUSH2 0xCF6 JUMPI PUSH4 0x4E487B71 PUSH1 0xE0 SHL PUSH1 0x0 MSTORE PUSH1 0x32 PUSH1 0x4 MSTORE PUSH1 0x24 PUSH1 0x0 REVERT JUMPDEST PUSH1 0x20 MUL PUSH1 0x20 ADD ADD MLOAD DUP7 DUP5 PUSH1 0x1 PUSH2 0xD0C SWAP2 SWAP1 PUSH2 0x39F0 JUMP JUMPDEST DUP2 MLOAD DUP2 LT PUSH2 0xD2A JUMPI PUSH4 0x4E487B71 PUSH1 0xE0 SHL PUSH1 0x0 MSTORE PUSH1 0x32 PUSH1 0x4 MSTORE PUSH1 0x24 PUSH1 0x0 REVERT JUMPDEST PUSH1 0x20 MUL PUSH1 0x20 ADD ADD MLOAD DUP7 DUP6 DUP2 MLOAD DUP2 LT PUSH2 0xD52 JUMPI PUSH4 0x4E487B71 PUSH1 0xE0 SHL PUSH1 0x0 MSTORE PUSH1 0x32 PUSH1 0x4 MSTORE PUSH1 0x24 PUSH1 0x0 REVERT JUMPDEST PUSH1 0x20 MUL PUSH1 0x20 ADD ADD MLOAD PUSH2 0x146E JUMP JUMPDEST DUP1 PUSH2 0xD69 DUP2 PUSH2 0x3AE3 JUMP JUMPDEST SWAP2 POP POP PUSH2 0xCC9 JUMP JUMPDEST POP PUSH1 0x0 PUSH2 0xD90 PUSH2 0xD80 DUP6 PUSH2 0x1219 JUMP JUMPDEST PUSH2 0xD89 DUP7 PUSH2 0x124B JUMP JUMPDEST PUSH1 0x1 PUSH2 0x127A JUMP JUMPDEST PUSH1 0x0 DUP2 DUP2 MSTORE PUSH1 0x1 PUSH1 0x20 DUP2 SWAP1 MSTORE PUSH1 0x40 SWAP1 SWAP2 KECCAK256 DUP6 MLOAD SWAP3 SWAP4 POP SWAP2 EQ DUP1 PUSH2 0xDB4 JUMPI PUSH1 0x0 PUSH2 0xDDE JUMP JUMPDEST DUP5 PUSH1 0x0 DUP2 MLOAD DUP2 LT PUSH2 0xDD5 JUMPI PUSH4 0x4E487B71 PUSH1 0xE0 SHL PUSH1 0x0 MSTORE PUSH1 0x32 PUSH1 0x4 MSTORE PUSH1 0x24 PUSH1 0x0 REVERT JUMPDEST PUSH1 0x20 MUL PUSH1 0x20 ADD ADD MLOAD JUMPDEST DUP3 SLOAD PUSH32 0xFFFFFFFFFFFFFFFFFFFFFFFFFFFFFFFFFFFFFFFFFFFFFFFFFFFFFFFFFF000000 AND PUSH3 0xFFFFFF SWAP2 SWAP1 SWAP2 AND OR DUP3 SSTORE DUP1 PUSH2 0xE21 JUMPI PUSH2 0xE1C DUP7 DUP7 PUSH2 0x154B JUMP JUMPDEST PUSH2 0xE31 JUMP JUMPDEST PUSH1 0x40 DUP1 MLOAD PUSH1 0x0 DUP2 MSTORE PUSH1 0x20 DUP2 ADD SWAP1 SWAP2 MSTORE JUMPDEST DUP1 MLOAD PUSH2 0xE47 SWAP2 PUSH1 0x1 DUP6 ADD SWAP2 PUSH1 0x20 SWAP1 SWAP2 ADD SWAP1 PUSH2 0x2783 JUMP JUMPDEST POP POP POP POP POP POP POP JUMP JUMPDEST PUSH1 0x4 PUSH1 0x20 MSTORE PUSH1 0x0 SWAP1 DUP2 MSTORE PUSH1 0x40 SWAP1 KECCAK256 SLOAD PUSH1 0xFF AND DUP2 JUMP JUMPDEST PUSH1 0x0 DUP1 PUSH1 0x0 PUSH2 0xE74 DUP6 DUP6 PUSH2 0x5D6 JUMP JUMPDEST SWAP2 POP SWAP2 POP DUP2 DUP2 PUSH1 0x40 MLOAD PUSH1 0x20 ADD PUSH2 0xE8B SWAP3 SWAP2 SWAP1 PUSH2 0x3036 JUMP JUMPDEST PUSH1 0x40 MLOAD PUSH1 0x20 DUP2 DUP4 SUB SUB DUP2 MSTORE SWAP1 PUSH1 0x40 MSTORE DUP1 MLOAD SWAP1 PUSH1 0x20 ADD KECCAK256 SWAP3 POP POP POP SWAP3 SWAP2 POP POP JUMP JUMPDEST PUSH2 0xEB3 PUSH2 0x104C JUMP JUMPDEST PUSH1 0x1 PUSH1 0x1 PUSH1 0xA0 SHL SUB AND PUSH2 0xEC4 PUSH2 0xAAC JUMP JUMPDEST PUSH1 0x1 PUSH1 0x1 PUSH1 0xA0 SHL SUB AND EQ PUSH2 0xEEA JUMPI PUSH1 0x40 MLOAD PUSH3 0x461BCD PUSH1 0xE5 SHL DUP2 MSTORE PUSH1 0x4 ADD PUSH2 0x386 SWAP1 PUSH2 0x3527 JUMP JUMPDEST PUSH1 0x1 PUSH1 0x1 PUSH1 0xA0 SHL SUB DUP2 AND PUSH2 0xF10 JUMPI PUSH1 0x40 MLOAD PUSH3 0x461BCD PUSH1 0xE5 SHL DUP2 MSTORE PUSH1 0x4 ADD PUSH2 0x386 SWAP1 PUSH2 0x334D JUMP JUMPDEST PUSH1 0x0 DUP1 SLOAD PUSH1 0x40 MLOAD PUSH1 0x1 PUSH1 0x1 PUSH1 0xA0 SHL SUB DUP1 DUP6 AND SWAP4 SWAP3 AND SWAP2 PUSH32 0x8BE0079C531659141344CD1FD0A4F28419497F9722A3DAAFE3B4186F6B6457E0 SWAP2 LOG3 PUSH1 0x0 DUP1 SLOAD PUSH32 0xFFFFFFFFFFFFFFFFFFFFFFFF0000000000000000000000000000000000000000 AND PUSH1 0x1 PUSH1 0x1 PUSH1 0xA0 SHL SUB SWAP3 SWAP1 SWAP3 AND SWAP2 SWAP1 SWAP2 OR SWAP1 SSTORE JUMP JUMPDEST PUSH1 0x0 DUP1 DUP8 PUSH1 0x2 DUP2 GT ISZERO PUSH2 0xFA6 JUMPI PUSH4 0x4E487B71 PUSH1 0xE0 SHL PUSH1 0x0 MSTORE PUSH1 0x21 PUSH1 0x4 MSTORE PUSH1 0x24 PUSH1 0x0 REVERT JUMPDEST EQ ISZERO PUSH2 0xFC0 JUMPI PUSH2 0xFB9 DUP7 DUP7 DUP7 DUP7 DUP7 PUSH2 0x1621 JUMP JUMPDEST SWAP1 POP PUSH2 0x1042 JUMP JUMPDEST PUSH1 0x1 DUP8 PUSH1 0x2 DUP2 GT ISZERO PUSH2 0xFE2 JUMPI PUSH4 0x4E487B71 PUSH1 0xE0 SHL PUSH1 0x0 MSTORE PUSH1 0x21 PUSH1 0x4 MSTORE PUSH1 0x24 PUSH1 0x0 REVERT JUMPDEST EQ ISZERO PUSH2 0xFF5 JUMPI PUSH2 0xFB9 DUP7 DUP7 DUP7 DUP7 DUP7 PUSH2 0x176A JUMP JUMPDEST PUSH1 0x2 DUP8 PUSH1 0x2 DUP2 GT ISZERO PUSH2 0x1017 JUMPI PUSH4 0x4E487B71 PUSH1 0xE0 SHL PUSH1 0x0 MSTORE PUSH1 0x21 PUSH1 0x4 MSTORE PUSH1 0x24 PUSH1 0x0 REVERT JUMPDEST EQ ISZERO PUSH2 0x102A JUMPI PUSH2 0xFB9 DUP7 DUP7 DUP7 DUP7 DUP7 PUSH2 0x1892 JUMP JUMPDEST PUSH1 0x40 MLOAD PUSH3 0x461BCD PUSH1 0xE5 SHL DUP2 MSTORE PUSH1 0x4 ADD PUSH2 0x386 SWAP1 PUSH2 0x355C JUMP JUMPDEST SWAP7 SWAP6 POP POP POP POP POP POP JUMP JUMPDEST CALLER SWAP1 JUMP JUMPDEST PUSH1 0x40 MLOAD PUSH32 0xF6C0092700000000000000000000000000000000000000000000000000000000 DUP2 MSTORE PUSH1 0x0 SWAP1 PUSH1 0x1 PUSH1 0x1 PUSH1 0xA0 SHL SUB PUSH32 0x0 AND SWAP1 PUSH4 0xF6C00927 SWAP1 PUSH2 0x10B8 SWAP1 DUP8 SWAP1 PUSH1 0x4 ADD PUSH2 0x31B4 JUMP JUMPDEST PUSH1 0x40 DUP1 MLOAD DUP1 DUP4 SUB DUP2 DUP7 DUP1 EXTCODESIZE ISZERO DUP1 ISZERO PUSH2 0x10CF JUMPI PUSH1 0x0 DUP1 REVERT JUMPDEST POP GAS STATICCALL ISZERO DUP1 ISZERO PUSH2 0x10E3 JUMPI RETURNDATASIZE PUSH1 0x0 DUP1 RETURNDATACOPY RETURNDATASIZE PUSH1 0x0 REVERT JUMPDEST POP POP POP POP PUSH1 0x40 MLOAD RETURNDATASIZE PUSH1 0x1F NOT PUSH1 0x1F DUP3 ADD AND DUP3 ADD DUP1 PUSH1 0x40 MSTORE POP DUP2 ADD SWAP1 PUSH2 0x1107 SWAP2 SWAP1 PUSH2 0x2B86 JUMP JUMPDEST POP SWAP1 POP PUSH1 0x1 PUSH1 0x1 PUSH1 0xA0 SHL SUB DUP2 AND PUSH2 0x1130 JUMPI PUSH1 0x40 MLOAD PUSH3 0x461BCD PUSH1 0xE5 SHL DUP2 MSTORE PUSH1 0x4 ADD PUSH2 0x386 SWAP1 PUSH2 0x344F JUMP JUMPDEST PUSH1 0x40 MLOAD PUSH32 0xF94D466800000000000000000000000000000000000000000000000000000000 DUP2 MSTORE PUSH1 0x0 SWAP1 PUSH1 0x1 PUSH1 0x1 PUSH1 0xA0 SHL SUB PUSH32 0x0 AND SWAP1 PUSH4 0xF94D4668 SWAP1 PUSH2 0x1198 SWAP1 DUP9 SWAP1 PUSH1 0x4 ADD PUSH2 0x31B4 JUMP JUMPDEST PUSH1 0x0 PUSH1 0x40 MLOAD DUP1 DUP4 SUB DUP2 DUP7 DUP1 EXTCODESIZE ISZERO DUP1 ISZERO PUSH2 0x11B0 JUMPI PUSH1 0x0 DUP1 REVERT JUMPDEST POP GAS STATICCALL ISZERO DUP1 ISZERO PUSH2 0x11C4 JUMPI RETURNDATASIZE PUSH1 0x0 DUP1 RETURNDATACOPY RETURNDATASIZE PUSH1 0x0 REVERT JUMPDEST POP POP POP POP PUSH1 0x40 MLOAD RETURNDATASIZE PUSH1 0x0 DUP3 RETURNDATACOPY PUSH1 0x1F RETURNDATASIZE SWAP1 DUP2 ADD PUSH1 0x1F NOT AND DUP3 ADD PUSH1 0x40 MSTORE PUSH2 0x11EC SWAP2 SWAP1 DUP2 ADD SWAP1 PUSH2 0x2D5E JUMP JUMPDEST POP SWAP1 SWAP2 POP PUSH2 0x11FD SWAP1 POP DUP2 DUP6 DUP6 PUSH2 0x197F JUMP JUMPDEST PUSH2 0x5AB JUMPI PUSH1 0x40 MLOAD PUSH3 0x461BCD PUSH1 0xE5 SHL DUP2 MSTORE PUSH1 0x4 ADD PUSH2 0x386 SWAP1 PUSH2 0x33E1 JUMP JUMPDEST PUSH1 0x0 DUP2 PUSH1 0x0 DUP2 MLOAD DUP2 LT PUSH2 0x123C JUMPI PUSH4 0x4E487B71 PUSH1 0xE0 SHL PUSH1 0x0 MSTORE PUSH1 0x32 PUSH1 0x4 MSTORE PUSH1 0x24 PUSH1 0x0 REVERT JUMPDEST PUSH1 0x20 MUL PUSH1 0x20 ADD ADD MLOAD SWAP1 POP SWAP2 SWAP1 POP JUMP JUMPDEST PUSH1 0x0 DUP2 PUSH1 0x1 DUP4 MLOAD PUSH2 0x125C SWAP2 SWAP1 PUSH2 0x3A65 JUMP JUMPDEST DUP2 MLOAD DUP2 LT PUSH2 0x123C JUMPI PUSH4 0x4E487B71 PUSH1 0xE0 SHL PUSH1 0x0 MSTORE PUSH1 0x32 PUSH1 0x4 MSTORE PUSH1 0x24 PUSH1 0x0 REVERT JUMPDEST PUSH1 0x0 PUSH2 0x1286 DUP5 DUP5 PUSH2 0xE65 JUMP JUMPDEST PUSH1 0x0 DUP2 DUP2 MSTORE PUSH1 0x4 PUSH1 0x20 MSTORE PUSH1 0x40 SWAP1 KECCAK256 DUP1 SLOAD SWAP2 SWAP3 POP DUP4 SWAP2 PUSH32 0xFFFFFFFFFFFFFFFFFFFFFFFFFFFFFFFFFFFFFFFFFFFFFFFFFFFFFFFFFFFFFF00 AND PUSH1 0x1 DUP4 PUSH1 0x2 DUP2 GT ISZERO PUSH2 0x12DF JUMPI PUSH4 0x4E487B71 PUSH1 0xE0 SHL PUSH1 0x0 MSTORE PUSH1 0x21 PUSH1 0x4 MSTORE PUSH1 0x24 PUSH1 0x0 REVERT JUMPDEST MUL OR SWAP1 SSTORE POP DUP1 PUSH32 0x4BEB98B65AF89BD185858E5587B5361F51ED5BA611475D764E6C042FFA095693 DUP6 DUP6 DUP6 PUSH1 0x40 MLOAD PUSH2 0x1318 SWAP4 SWAP3 SWAP2 SWAP1 PUSH2 0x314E JUMP JUMPDEST PUSH1 0x40 MLOAD DUP1 SWAP2 SUB SWAP1 LOG2 SWAP4 SWAP3 POP POP POP JUMP JUMPDEST PUSH1 0x40 MLOAD PUSH32 0xE6A4390500000000000000000000000000000000000000000000000000000000 DUP2 MSTORE PUSH1 0x0 SWAP1 PUSH1 0x1 PUSH1 0x1 PUSH1 0xA0 SHL SUB DUP6 AND SWAP1 PUSH4 0xE6A43905 SWAP1 PUSH2 0x1371 SWAP1 DUP7 SWAP1 DUP7 SWAP1 PUSH1 0x4 ADD PUSH2 0x3134 JUMP JUMPDEST PUSH1 0x20 PUSH1 0x40 MLOAD DUP1 DUP4 SUB DUP2 DUP7 DUP1 EXTCODESIZE ISZERO DUP1 ISZERO PUSH2 0x1389 JUMPI PUSH1 0x0 DUP1 REVERT JUMPDEST POP GAS STATICCALL ISZERO DUP1 ISZERO PUSH2 0x139D JUMPI RETURNDATASIZE PUSH1 0x0 DUP1 RETURNDATACOPY RETURNDATASIZE PUSH1 0x0 REVERT JUMPDEST POP POP POP POP PUSH1 0x40 MLOAD RETURNDATASIZE PUSH1 0x1F NOT PUSH1 0x1F DUP3 ADD AND DUP3 ADD DUP1 PUSH1 0x40 MSTORE POP DUP2 ADD SWAP1 PUSH2 0x13C1 SWAP2 SWAP1 PUSH2 0x2A21 JUMP JUMPDEST SWAP1 POP PUSH1 0x1 PUSH1 0x1 PUSH1 0xA0 SHL SUB DUP2 AND PUSH2 0x13E9 JUMPI PUSH1 0x40 MLOAD PUSH3 0x461BCD PUSH1 0xE5 SHL DUP2 MSTORE PUSH1 0x4 ADD PUSH2 0x386 SWAP1 PUSH2 0x36E1 JUMP JUMPDEST POP POP POP POP JUMP JUMPDEST PUSH1 0x0 DUP1 PUSH2 0x13FC DUP4 DUP6 PUSH2 0x3A28 JUMP JUMPDEST SWAP1 POP DUP4 ISZERO DUP1 PUSH2 0x1413 JUMPI POP DUP3 PUSH2 0x1411 DUP6 DUP4 PUSH2 0x3A08 JUMP JUMPDEST EQ JUMPDEST PUSH2 0x142F JUMPI PUSH1 0x40 MLOAD PUSH3 0x461BCD PUSH1 0xE5 SHL DUP2 MSTORE PUSH1 0x4 ADD PUSH2 0x386 SWAP1 PUSH2 0x3718 JUMP JUMPDEST DUP1 ISZERO PUSH2 0x1463 JUMPI PUSH8 0xDE0B6B3A7640000 PUSH2 0x1449 PUSH1 0x1 DUP4 PUSH2 0x3A65 JUMP JUMPDEST PUSH2 0x1453 SWAP2 SWAP1 PUSH2 0x3A08 JUMP JUMPDEST PUSH2 0x145E SWAP1 PUSH1 0x1 PUSH2 0x39F0 JUMP JUMPDEST PUSH2 0x1466 JUMP JUMPDEST PUSH1 0x0 JUMPDEST SWAP5 SWAP4 POP POP POP POP JUMP JUMPDEST PUSH1 0x0 DUP1 PUSH2 0x147B DUP6 DUP6 PUSH2 0x5D6 JUMP JUMPDEST PUSH1 0x40 MLOAD PUSH32 0x1698EE8200000000000000000000000000000000000000000000000000000000 DUP2 MSTORE SWAP2 SWAP4 POP SWAP2 POP PUSH1 0x0 SWAP1 PUSH1 0x1 PUSH1 0x1 PUSH1 0xA0 SHL SUB DUP9 AND SWAP1 PUSH4 0x1698EE82 SWAP1 PUSH2 0x14CC SWAP1 DUP7 SWAP1 DUP7 SWAP1 DUP10 SWAP1 PUSH1 0x4 ADD PUSH2 0x3173 JUMP JUMPDEST PUSH1 0x20 PUSH1 0x40 MLOAD DUP1 DUP4 SUB DUP2 DUP7 DUP1 EXTCODESIZE ISZERO DUP1 ISZERO PUSH2 0x14E4 JUMPI PUSH1 0x0 DUP1 REVERT JUMPDEST POP GAS STATICCALL ISZERO DUP1 ISZERO PUSH2 0x14F8 JUMPI RETURNDATASIZE PUSH1 0x0 DUP1 RETURNDATACOPY RETURNDATASIZE PUSH1 0x0 REVERT JUMPDEST POP POP POP POP PUSH1 0x40 MLOAD RETURNDATASIZE PUSH1 0x1F NOT PUSH1 0x1F DUP3 ADD AND DUP3 ADD DUP1 PUSH1 0x40 MSTORE POP DUP2 ADD SWAP1 PUSH2 0x151C SWAP2 SWAP1 PUSH2 0x2A21 JUMP JUMPDEST PUSH1 0x1 PUSH1 0x1 PUSH1 0xA0 SHL SUB AND EQ ISZERO PUSH2 0x1543 JUMPI PUSH1 0x40 MLOAD PUSH3 0x461BCD PUSH1 0xE5 SHL DUP2 MSTORE PUSH1 0x4 ADD PUSH2 0x386 SWAP1 PUSH2 0x33AA JUMP JUMPDEST POP POP POP POP POP POP JUMP JUMPDEST PUSH1 0x40 DUP1 MLOAD PUSH1 0x0 DUP1 DUP3 MSTORE PUSH1 0x20 DUP3 ADD SWAP1 SWAP3 MSTORE SWAP1 JUMPDEST DUP3 MLOAD DUP2 LT ISZERO PUSH2 0x15E5 JUMPI PUSH2 0x15D1 DUP4 DUP3 DUP2 MLOAD DUP2 LT PUSH2 0x1589 JUMPI PUSH4 0x4E487B71 PUSH1 0xE0 SHL PUSH1 0x0 MSTORE PUSH1 0x32 PUSH1 0x4 MSTORE PUSH1 0x24 PUSH1 0x0 REVERT JUMPDEST PUSH1 0x20 MUL PUSH1 0x20 ADD ADD MLOAD PUSH2 0x15CB DUP7 DUP5 DUP2 MLOAD DUP2 LT PUSH2 0x15B4 JUMPI PUSH4 0x4E487B71 PUSH1 0xE0 SHL PUSH1 0x0 MSTORE PUSH1 0x32 PUSH1 0x4 MSTORE PUSH1 0x24 PUSH1 0x0 REVERT JUMPDEST PUSH1 0x20 MUL PUSH1 0x20 ADD ADD MLOAD DUP6 PUSH2 0x1A3E SWAP1 SWAP2 SWAP1 PUSH4 0xFFFFFFFF AND JUMP JUMPDEST SWAP1 PUSH2 0x1A6A JUMP JUMPDEST SWAP2 POP DUP1 PUSH2 0x15DD DUP2 PUSH2 0x3AE3 JUMP JUMPDEST SWAP2 POP POP PUSH2 0x155D JUMP JUMPDEST POP PUSH2 0x90A DUP4 DUP4 MLOAD DUP2 MLOAD DUP2 LT PUSH2 0x160A JUMPI PUSH4 0x4E487B71 PUSH1 0xE0 SHL PUSH1 0x0 MSTORE PUSH1 0x32 PUSH1 0x4 MSTORE PUSH1 0x24 PUSH1 0x0 REVERT JUMPDEST PUSH1 0x20 MUL PUSH1 0x20 ADD ADD MLOAD DUP3 PUSH2 0x1A3E SWAP1 SWAP2 SWAP1 PUSH4 0xFFFFFFFF AND JUMP JUMPDEST PUSH1 0x0 PUSH2 0x1657 PUSH1 0x1 PUSH1 0x1 PUSH1 0xA0 SHL SUB DUP8 AND PUSH32 0x0 DUP7 PUSH2 0x1A7F JUMP JUMPDEST PUSH1 0x0 PUSH2 0x1663 DUP8 DUP8 PUSH2 0x1BC4 JUMP JUMPDEST SWAP1 POP PUSH1 0x0 PUSH32 0x0 PUSH1 0x1 PUSH1 0x1 PUSH1 0xA0 SHL SUB AND PUSH4 0x38ED1739 DUP8 DUP8 DUP6 CALLER DUP10 PUSH1 0x40 MLOAD DUP7 PUSH4 0xFFFFFFFF AND PUSH1 0xE0 SHL DUP2 MSTORE PUSH1 0x4 ADD PUSH2 0x16BB SWAP6 SWAP5 SWAP4 SWAP3 SWAP2 SWAP1 PUSH2 0x3966 JUMP JUMPDEST PUSH1 0x0 PUSH1 0x40 MLOAD DUP1 DUP4 SUB DUP2 PUSH1 0x0 DUP8 DUP1 EXTCODESIZE ISZERO DUP1 ISZERO PUSH2 0x16D5 JUMPI PUSH1 0x0 DUP1 REVERT JUMPDEST POP GAS CALL ISZERO DUP1 ISZERO PUSH2 0x16E9 JUMPI RETURNDATASIZE PUSH1 0x0 DUP1 RETURNDATACOPY RETURNDATASIZE PUSH1 0x0 REVERT JUMPDEST POP POP POP POP PUSH1 0x40 MLOAD RETURNDATASIZE PUSH1 0x0 DUP3 RETURNDATACOPY PUSH1 0x1F RETURNDATASIZE SWAP1 DUP2 ADD PUSH1 0x1F NOT AND DUP3 ADD PUSH1 0x40 MSTORE PUSH2 0x1711 SWAP2 SWAP1 DUP2 ADD SWAP1 PUSH2 0x2EBA JUMP JUMPDEST SWAP1 POP DUP2 MLOAD DUP2 MLOAD EQ PUSH2 0x1734 JUMPI PUSH1 0x40 MLOAD PUSH3 0x461BCD PUSH1 0xE5 SHL DUP2 MSTORE PUSH1 0x4 ADD PUSH2 0x386 SWAP1 PUSH2 0x34F0 JUMP JUMPDEST DUP1 PUSH1 0x1 DUP2 MLOAD DUP2 LT PUSH2 0x1755 JUMPI PUSH4 0x4E487B71 PUSH1 0xE0 SHL PUSH1 0x0 MSTORE PUSH1 0x32 PUSH1 0x4 MSTORE PUSH1 0x24 PUSH1 0x0 REVERT JUMPDEST PUSH1 0x20 MUL PUSH1 0x20 ADD ADD MLOAD SWAP3 POP POP POP SWAP6 SWAP5 POP POP POP POP POP JUMP JUMPDEST PUSH1 0x0 PUSH2 0x17A0 PUSH1 0x1 PUSH1 0x1 PUSH1 0xA0 SHL SUB DUP8 AND PUSH32 0x0 DUP7 PUSH2 0x1A7F JUMP JUMPDEST PUSH1 0x0 PUSH1 0x1 PUSH1 0x0 PUSH2 0x17B0 DUP10 DUP10 PUSH2 0xE65 JUMP JUMPDEST DUP2 MSTORE PUSH1 0x20 ADD SWAP1 DUP2 MSTORE PUSH1 0x20 ADD PUSH1 0x0 KECCAK256 SWAP1 POP PUSH1 0x0 DUP2 PUSH1 0x1 ADD DUP1 SLOAD PUSH2 0x17D1 SWAP1 PUSH2 0x3AA8 JUMP JUMPDEST DUP1 PUSH1 0x1F ADD PUSH1 0x20 DUP1 SWAP2 DIV MUL PUSH1 0x20 ADD PUSH1 0x40 MLOAD SWAP1 DUP2 ADD PUSH1 0x40 MSTORE DUP1 SWAP3 SWAP2 SWAP1 DUP2 DUP2 MSTORE PUSH1 0x20 ADD DUP3 DUP1 SLOAD PUSH2 0x17FD SWAP1 PUSH2 0x3AA8 JUMP JUMPDEST DUP1 ISZERO PUSH2 0x184A JUMPI DUP1 PUSH1 0x1F LT PUSH2 0x181F JUMPI PUSH2 0x100 DUP1 DUP4 SLOAD DIV MUL DUP4 MSTORE SWAP2 PUSH1 0x20 ADD SWAP2 PUSH2 0x184A JUMP JUMPDEST DUP3 ADD SWAP2 SWAP1 PUSH1 0x0 MSTORE PUSH1 0x20 PUSH1 0x0 KECCAK256 SWAP1 JUMPDEST DUP2 SLOAD DUP2 MSTORE SWAP1 PUSH1 0x1 ADD SWAP1 PUSH1 0x20 ADD DUP1 DUP4 GT PUSH2 0x182D JUMPI DUP3 SWAP1 SUB PUSH1 0x1F AND DUP3 ADD SWAP2 JUMPDEST POP POP POP POP POP SWAP1 POP PUSH2 0x185A DUP2 PUSH2 0x1C77 JUMP JUMPDEST PUSH2 0x186F JUMPI PUSH2 0x186A DUP2 DUP8 DUP8 DUP8 PUSH2 0x1C7C JUMP JUMPDEST PUSH2 0x1886 JUMP JUMPDEST DUP2 SLOAD PUSH2 0x1886 SWAP1 DUP10 SWAP1 DUP10 SWAP1 PUSH3 0xFFFFFF AND DUP10 DUP10 DUP10 PUSH2 0x1D5A JUMP JUMPDEST SWAP9 SWAP8 POP POP POP POP POP POP POP POP JUMP JUMPDEST PUSH1 0x0 PUSH2 0x18C8 PUSH1 0x1 PUSH1 0x1 PUSH1 0xA0 SHL SUB DUP8 AND PUSH32 0x0 DUP7 PUSH2 0x1A7F JUMP JUMPDEST PUSH1 0x0 PUSH1 0x3 PUSH1 0x0 PUSH2 0x18D8 DUP10 DUP10 PUSH2 0xE65 JUMP JUMPDEST DUP2 MSTORE PUSH1 0x20 ADD SWAP1 DUP2 MSTORE PUSH1 0x20 ADD PUSH1 0x0 KECCAK256 SWAP1 POP PUSH2 0x194D DUP2 PUSH1 0x1 ADD DUP1 SLOAD DUP1 PUSH1 0x20 MUL PUSH1 0x20 ADD PUSH1 0x40 MLOAD SWAP1 DUP2 ADD PUSH1 0x40 MSTORE DUP1 SWAP3 SWAP2 SWAP1 DUP2 DUP2 MSTORE PUSH1 0x20 ADD DUP3 DUP1 SLOAD DUP1 ISZERO PUSH2 0x1943 JUMPI PUSH1 0x20 MUL DUP3 ADD SWAP2 SWAP1 PUSH1 0x0 MSTORE PUSH1 0x20 PUSH1 0x0 KECCAK256 SWAP1 JUMPDEST DUP2 SLOAD PUSH1 0x1 PUSH1 0x1 PUSH1 0xA0 SHL SUB AND DUP2 MSTORE PUSH1 0x1 SWAP1 SWAP2 ADD SWAP1 PUSH1 0x20 ADD DUP1 DUP4 GT PUSH2 0x1925 JUMPI JUMPDEST POP POP POP POP POP PUSH2 0x1C77 JUMP JUMPDEST PUSH2 0x1964 JUMPI PUSH2 0x195F DUP2 DUP9 DUP9 DUP9 DUP9 DUP9 PUSH2 0x1E59 JUMP JUMPDEST PUSH2 0x1974 JUMP JUMPDEST DUP1 SLOAD PUSH2 0x1974 SWAP1 DUP9 DUP9 DUP9 DUP9 DUP9 PUSH2 0x2263 JUMP JUMPDEST SWAP8 SWAP7 POP POP POP POP POP POP POP JUMP JUMPDEST PUSH1 0x0 DUP1 DUP1 DUP1 JUMPDEST DUP7 MLOAD DUP2 LT ISZERO PUSH2 0x1A2C JUMPI DUP6 PUSH1 0x1 PUSH1 0x1 PUSH1 0xA0 SHL SUB AND DUP8 DUP3 DUP2 MLOAD DUP2 LT PUSH2 0x19B8 JUMPI PUSH4 0x4E487B71 PUSH1 0xE0 SHL PUSH1 0x0 MSTORE PUSH1 0x32 PUSH1 0x4 MSTORE PUSH1 0x24 PUSH1 0x0 REVERT JUMPDEST PUSH1 0x20 MUL PUSH1 0x20 ADD ADD MLOAD PUSH1 0x1 PUSH1 0x1 PUSH1 0xA0 SHL SUB AND EQ ISZERO PUSH2 0x19D4 JUMPI PUSH1 0x1 SWAP3 POP JUMPDEST DUP5 PUSH1 0x1 PUSH1 0x1 PUSH1 0xA0 SHL SUB AND DUP8 DUP3 DUP2 MLOAD DUP2 LT PUSH2 0x19FE JUMPI PUSH4 0x4E487B71 PUSH1 0xE0 SHL PUSH1 0x0 MSTORE PUSH1 0x32 PUSH1 0x4 MSTORE PUSH1 0x24 PUSH1 0x0 REVERT JUMPDEST PUSH1 0x20 MUL PUSH1 0x20 ADD ADD MLOAD PUSH1 0x1 PUSH1 0x1 PUSH1 0xA0 SHL SUB AND EQ ISZERO PUSH2 0x1A1A JUMPI PUSH1 0x1 SWAP2 POP JUMPDEST DUP1 PUSH2 0x1A24 DUP2 PUSH2 0x3AE3 JUMP JUMPDEST SWAP2 POP POP PUSH2 0x1985 JUMP JUMPDEST POP DUP2 DUP1 ISZERO PUSH2 0x1042 JUMPI POP SWAP6 SWAP5 POP POP POP POP POP JUMP JUMPDEST PUSH1 0x60 DUP3 DUP3 PUSH1 0x40 MLOAD PUSH1 0x20 ADD PUSH2 0x1A53 SWAP3 SWAP2 SWAP1 PUSH2 0x308C JUMP JUMPDEST PUSH1 0x40 MLOAD PUSH1 0x20 DUP2 DUP4 SUB SUB DUP2 MSTORE SWAP1 PUSH1 0x40 MSTORE SWAP1 POP SWAP3 SWAP2 POP POP JUMP JUMPDEST PUSH1 0x60 DUP3 DUP3 PUSH1 0x40 MLOAD PUSH1 0x20 ADD PUSH2 0x1A53 SWAP3 SWAP2 SWAP1 PUSH2 0x30D6 JUMP JUMPDEST DUP1 ISZERO DUP1 PUSH2 0x1B20 JUMPI POP PUSH1 0x40 MLOAD PUSH32 0xDD62ED3E00000000000000000000000000000000000000000000000000000000 DUP2 MSTORE PUSH1 0x1 PUSH1 0x1 PUSH1 0xA0 SHL SUB DUP5 AND SWAP1 PUSH4 0xDD62ED3E SWAP1 PUSH2 0x1ACE SWAP1 ADDRESS SWAP1 DUP7 SWAP1 PUSH1 0x4 ADD PUSH2 0x3134 JUMP JUMPDEST PUSH1 0x20 PUSH1 0x40 MLOAD DUP1 DUP4 SUB DUP2 DUP7 DUP1 EXTCODESIZE ISZERO DUP1 ISZERO PUSH2 0x1AE6 JUMPI PUSH1 0x0 DUP1 REVERT JUMPDEST POP GAS STATICCALL ISZERO DUP1 ISZERO PUSH2 0x1AFA JUMPI RETURNDATASIZE PUSH1 0x0 DUP1 RETURNDATACOPY RETURNDATASIZE PUSH1 0x0 REVERT JUMPDEST POP POP POP POP PUSH1 0x40 MLOAD RETURNDATASIZE PUSH1 0x1F NOT PUSH1 0x1F DUP3 ADD AND DUP3 ADD DUP1 PUSH1 0x40 MSTORE POP DUP2 ADD SWAP1 PUSH2 0x1B1E SWAP2 SWAP1 PUSH2 0x2F25 JUMP JUMPDEST ISZERO JUMPDEST PUSH2 0x1B3C JUMPI PUSH1 0x40 MLOAD PUSH3 0x461BCD PUSH1 0xE5 SHL DUP2 MSTORE PUSH1 0x4 ADD PUSH2 0x386 SWAP1 PUSH2 0x3684 JUMP JUMPDEST PUSH2 0x1BBF DUP4 PUSH4 0x95EA7B3 PUSH1 0xE0 SHL DUP5 DUP5 PUSH1 0x40 MLOAD PUSH1 0x24 ADD PUSH2 0x1B5B SWAP3 SWAP2 SWAP1 PUSH2 0x319B JUMP JUMPDEST PUSH1 0x40 DUP1 MLOAD PUSH1 0x1F NOT DUP2 DUP5 SUB ADD DUP2 MSTORE SWAP2 SWAP1 MSTORE PUSH1 0x20 DUP2 ADD DUP1 MLOAD PUSH28 0xFFFFFFFFFFFFFFFFFFFFFFFFFFFFFFFFFFFFFFFFFFFFFFFFFFFFFFFF AND PUSH32 0xFFFFFFFF00000000000000000000000000000000000000000000000000000000 SWAP1 SWAP4 AND SWAP3 SWAP1 SWAP3 OR SWAP1 SWAP2 MSTORE PUSH2 0x2301 JUMP JUMPDEST POP POP POP JUMP JUMPDEST PUSH1 0x60 PUSH1 0x0 PUSH1 0x2 PUSH1 0x0 PUSH2 0x1BD6 DUP7 DUP7 PUSH2 0xE65 JUMP JUMPDEST DUP2 MSTORE PUSH1 0x20 ADD SWAP1 DUP2 MSTORE PUSH1 0x20 ADD PUSH1 0x0 KECCAK256 SWAP1 POP PUSH1 0x0 DUP2 PUSH1 0x0 ADD DUP1 SLOAD DUP1 PUSH1 0x20 MUL PUSH1 0x20 ADD PUSH1 0x40 MLOAD SWAP1 DUP2 ADD PUSH1 0x40 MSTORE DUP1 SWAP3 SWAP2 SWAP1 DUP2 DUP2 MSTORE PUSH1 0x20 ADD DUP3 DUP1 SLOAD DUP1 ISZERO PUSH2 0x1C40 JUMPI PUSH1 0x20 MUL DUP3 ADD SWAP2 SWAP1 PUSH1 0x0 MSTORE PUSH1 0x20 PUSH1 0x0 KECCAK256 SWAP1 JUMPDEST DUP2 SLOAD PUSH1 0x1 PUSH1 0x1 PUSH1 0xA0 SHL SUB AND DUP2 MSTORE PUSH1 0x1 SWAP1 SWAP2 ADD SWAP1 PUSH1 0x20 ADD DUP1 DUP4 GT PUSH2 0x1C22 JUMPI JUMPDEST POP POP POP POP POP SWAP1 POP PUSH2 0x1C50 DUP2 PUSH2 0x1C77 JUMP JUMPDEST PUSH2 0x1C64 JUMPI PUSH2 0x1C5F DUP6 DUP3 DUP7 PUSH2 0x2390 JUMP JUMPDEST PUSH2 0x1C6E JUMP JUMPDEST PUSH2 0x1C6E DUP6 DUP6 PUSH2 0x2514 JUMP JUMPDEST SWAP6 SWAP5 POP POP POP POP POP JUMP JUMPDEST MLOAD ISZERO SWAP1 JUMP JUMPDEST PUSH1 0x0 PUSH2 0x1C86 PUSH2 0x2803 JUMP JUMPDEST DUP6 DUP2 MSTORE PUSH1 0x60 DUP2 ADD DUP6 SWAP1 MSTORE PUSH1 0x80 DUP2 ADD DUP5 SWAP1 MSTORE CALLER PUSH1 0x20 DUP3 ADD MSTORE PUSH1 0x40 DUP1 DUP3 ADD DUP5 SWAP1 MSTORE MLOAD PUSH32 0xC04B8D5900000000000000000000000000000000000000000000000000000000 DUP2 MSTORE PUSH32 0x0 PUSH1 0x1 PUSH1 0x1 PUSH1 0xA0 SHL SUB AND SWAP1 PUSH4 0xC04B8D59 SWAP1 PUSH2 0x1D08 SWAP1 DUP5 SWAP1 PUSH1 0x4 ADD PUSH2 0x37C0 JUMP JUMPDEST PUSH1 0x20 PUSH1 0x40 MLOAD DUP1 DUP4 SUB DUP2 PUSH1 0x0 DUP8 DUP1 EXTCODESIZE ISZERO DUP1 ISZERO PUSH2 0x1D22 JUMPI PUSH1 0x0 DUP1 REVERT JUMPDEST POP GAS CALL ISZERO DUP1 ISZERO PUSH2 0x1D36 JUMPI RETURNDATASIZE PUSH1 0x0 DUP1 RETURNDATACOPY RETURNDATASIZE PUSH1 0x0 REVERT JUMPDEST POP POP POP POP PUSH1 0x40 MLOAD RETURNDATASIZE PUSH1 0x1F NOT PUSH1 0x1F DUP3 ADD AND DUP3 ADD DUP1 PUSH1 0x40 MSTORE POP DUP2 ADD SWAP1 PUSH2 0x1042 SWAP2 SWAP1 PUSH2 0x2F25 JUMP JUMPDEST PUSH1 0x0 PUSH2 0x1D64 PUSH2 0x283B JUMP JUMPDEST PUSH1 0x1 PUSH1 0x1 PUSH1 0xA0 SHL SUB DUP1 DUP10 AND DUP3 MSTORE DUP8 DUP2 AND PUSH1 0x20 DUP4 ADD MSTORE PUSH3 0xFFFFFF DUP8 AND PUSH1 0x40 DUP1 DUP5 ADD SWAP2 SWAP1 SWAP2 MSTORE CALLER PUSH1 0x60 DUP5 ADD MSTORE PUSH1 0x80 DUP4 ADD DUP6 SWAP1 MSTORE PUSH1 0xA0 DUP4 ADD DUP8 SWAP1 MSTORE PUSH1 0xC0 DUP4 ADD DUP7 SWAP1 MSTORE PUSH1 0x0 PUSH1 0xE0 DUP5 ADD MSTORE MLOAD PUSH32 0x414BF38900000000000000000000000000000000000000000000000000000000 DUP2 MSTORE PUSH32 0x0 SWAP1 SWAP2 AND SWAP1 PUSH4 0x414BF389 SWAP1 PUSH2 0x1E07 SWAP1 DUP5 SWAP1 PUSH1 0x4 ADD PUSH2 0x3819 JUMP JUMPDEST PUSH1 0x20 PUSH1 0x40 MLOAD DUP1 DUP4 SUB DUP2 PUSH1 0x0 DUP8 DUP1 EXTCODESIZE ISZERO DUP1 ISZERO PUSH2 0x1E21 JUMPI PUSH1 0x0 DUP1 REVERT JUMPDEST POP GAS CALL ISZERO DUP1 ISZERO PUSH2 0x1E35 JUMPI RETURNDATASIZE PUSH1 0x0 DUP1 RETURNDATACOPY RETURNDATASIZE PUSH1 0x0 REVERT JUMPDEST POP POP POP POP PUSH1 0x40 MLOAD RETURNDATASIZE PUSH1 0x1F NOT PUSH1 0x1F DUP3 ADD AND DUP3 ADD DUP1 PUSH1 0x40 MSTORE POP DUP2 ADD SWAP1 PUSH2 0x1886 SWAP2 SWAP1 PUSH2 0x2F25 JUMP JUMPDEST PUSH1 0x0 DUP1 PUSH2 0x1EC3 DUP8 DUP10 PUSH1 0x1 ADD DUP1 SLOAD DUP1 PUSH1 0x20 MUL PUSH1 0x20 ADD PUSH1 0x40 MLOAD SWAP1 DUP2 ADD PUSH1 0x40 MSTORE DUP1 SWAP3 SWAP2 SWAP1 DUP2 DUP2 MSTORE PUSH1 0x20 ADD DUP3 DUP1 SLOAD DUP1 ISZERO PUSH2 0x1EB8 JUMPI PUSH1 0x20 MUL DUP3 ADD SWAP2 SWAP1 PUSH1 0x0 MSTORE PUSH1 0x20 PUSH1 0x0 KECCAK256 SWAP1 JUMPDEST DUP2 SLOAD PUSH1 0x1 PUSH1 0x1 PUSH1 0xA0 SHL SUB AND DUP2 MSTORE PUSH1 0x1 SWAP1 SWAP2 ADD SWAP1 PUSH1 0x20 ADD DUP1 DUP4 GT PUSH2 0x1E9A JUMPI JUMPDEST POP POP POP POP POP DUP9 PUSH2 0x2390 JUMP JUMPDEST SWAP1 POP PUSH1 0x0 PUSH1 0x1 DUP3 MLOAD PUSH2 0x1ED5 SWAP2 SWAP1 PUSH2 0x3A65 JUMP JUMPDEST SWAP1 POP PUSH1 0x0 DUP2 PUSH8 0xFFFFFFFFFFFFFFFF DUP2 GT ISZERO PUSH2 0x1F00 JUMPI PUSH4 0x4E487B71 PUSH1 0xE0 SHL PUSH1 0x0 MSTORE PUSH1 0x41 PUSH1 0x4 MSTORE PUSH1 0x24 PUSH1 0x0 REVERT JUMPDEST PUSH1 0x40 MLOAD SWAP1 DUP1 DUP3 MSTORE DUP1 PUSH1 0x20 MUL PUSH1 0x20 ADD DUP3 ADD PUSH1 0x40 MSTORE DUP1 ISZERO PUSH2 0x1F39 JUMPI DUP2 PUSH1 0x20 ADD JUMPDEST PUSH2 0x1F26 PUSH2 0x287F JUMP JUMPDEST DUP2 MSTORE PUSH1 0x20 ADD SWAP1 PUSH1 0x1 SWAP1 SUB SWAP1 DUP2 PUSH2 0x1F1E JUMPI SWAP1 POP JUMPDEST POP SWAP1 POP PUSH1 0x0 JUMPDEST DUP3 DUP2 LT ISZERO PUSH2 0x2011 JUMPI PUSH1 0x0 DUP3 DUP3 DUP2 MLOAD DUP2 LT PUSH2 0x1F69 JUMPI PUSH4 0x4E487B71 PUSH1 0xE0 SHL PUSH1 0x0 MSTORE PUSH1 0x32 PUSH1 0x4 MSTORE PUSH1 0x24 PUSH1 0x0 REVERT JUMPDEST PUSH1 0x20 MUL PUSH1 0x20 ADD ADD MLOAD SWAP1 POP DUP2 PUSH1 0x0 EQ PUSH2 0x1F82 JUMPI PUSH1 0x0 PUSH2 0x1F84 JUMP JUMPDEST DUP9 JUMPDEST PUSH1 0x60 DUP3 ADD MSTORE DUP2 ISZERO PUSH2 0x1FCC JUMPI PUSH1 0x2 DUP13 ADD PUSH2 0x1F9E PUSH1 0x1 DUP5 PUSH2 0x3A65 JUMP JUMPDEST DUP2 SLOAD DUP2 LT PUSH2 0x1FBC JUMPI PUSH4 0x4E487B71 PUSH1 0xE0 SHL PUSH1 0x0 MSTORE PUSH1 0x32 PUSH1 0x4 MSTORE PUSH1 0x24 PUSH1 0x0 REVERT JUMPDEST SWAP1 PUSH1 0x0 MSTORE PUSH1 0x20 PUSH1 0x0 KECCAK256 ADD SLOAD PUSH2 0x1FCF JUMP JUMPDEST DUP12 SLOAD JUMPDEST DUP2 MSTORE PUSH1 0x20 DUP2 ADD DUP3 SWAP1 MSTORE PUSH2 0x1FE3 DUP3 PUSH1 0x1 PUSH2 0x39F0 JUMP JUMPDEST PUSH1 0x40 DUP3 DUP2 ADD SWAP2 SWAP1 SWAP2 MSTORE DUP1 MLOAD PUSH1 0x0 DUP2 MSTORE PUSH1 0x20 DUP2 ADD SWAP1 SWAP2 MSTORE PUSH1 0x80 SWAP1 SWAP2 ADD MSTORE DUP1 PUSH2 0x2009 DUP2 PUSH2 0x3AE3 JUMP JUMPDEST SWAP2 POP POP PUSH2 0x1F3F JUMP JUMPDEST POP PUSH1 0x0 DUP4 MLOAD PUSH8 0xFFFFFFFFFFFFFFFF DUP2 GT ISZERO PUSH2 0x203C JUMPI PUSH4 0x4E487B71 PUSH1 0xE0 SHL PUSH1 0x0 MSTORE PUSH1 0x41 PUSH1 0x4 MSTORE PUSH1 0x24 PUSH1 0x0 REVERT JUMPDEST PUSH1 0x40 MLOAD SWAP1 DUP1 DUP3 MSTORE DUP1 PUSH1 0x20 MUL PUSH1 0x20 ADD DUP3 ADD PUSH1 0x40 MSTORE DUP1 ISZERO PUSH2 0x2065 JUMPI DUP2 PUSH1 0x20 ADD PUSH1 0x20 DUP3 MUL DUP1 CALLDATASIZE DUP4 CALLDATACOPY ADD SWAP1 POP JUMPDEST POP SWAP1 POP PUSH2 0x2071 DUP9 PUSH2 0x25BE JUMP JUMPDEST DUP2 PUSH1 0x0 DUP2 MLOAD DUP2 LT PUSH2 0x2092 JUMPI PUSH4 0x4E487B71 PUSH1 0xE0 SHL PUSH1 0x0 MSTORE PUSH1 0x32 PUSH1 0x4 MSTORE PUSH1 0x24 PUSH1 0x0 REVERT JUMPDEST PUSH1 0x20 MUL PUSH1 0x20 ADD ADD DUP2 DUP2 MSTORE POP POP PUSH2 0x20A7 DUP8 PUSH2 0x25BE JUMP JUMPDEST PUSH2 0x20B0 SWAP1 PUSH2 0x3B1C JUMP JUMPDEST DUP2 PUSH1 0x1 DUP4 MLOAD PUSH2 0x20BF SWAP2 SWAP1 PUSH2 0x3A65 JUMP JUMPDEST DUP2 MLOAD DUP2 LT PUSH2 0x20DD JUMPI PUSH4 0x4E487B71 PUSH1 0xE0 SHL PUSH1 0x0 MSTORE PUSH1 0x32 PUSH1 0x4 MSTORE PUSH1 0x24 PUSH1 0x0 REVERT JUMPDEST PUSH1 0x20 MUL PUSH1 0x20 ADD ADD DUP2 DUP2 MSTORE POP POP PUSH1 0x0 PUSH32 0x0 PUSH1 0x1 PUSH1 0x1 PUSH1 0xA0 SHL SUB AND PUSH4 0x945BCEC9 PUSH1 0x0 DUP6 DUP9 PUSH2 0x2126 PUSH2 0x2603 JUMP JUMPDEST DUP8 DUP14 PUSH1 0x40 MLOAD DUP8 PUSH4 0xFFFFFFFF AND PUSH1 0xE0 SHL DUP2 MSTORE PUSH1 0x4 ADD PUSH2 0x2149 SWAP7 SWAP6 SWAP5 SWAP4 SWAP3 SWAP2 SWAP1 PUSH2 0x31CB JUMP JUMPDEST PUSH1 0x0 PUSH1 0x40 MLOAD DUP1 DUP4 SUB DUP2 PUSH1 0x0 DUP8 DUP1 EXTCODESIZE ISZERO DUP1 ISZERO PUSH2 0x2163 JUMPI PUSH1 0x0 DUP1 REVERT JUMPDEST POP GAS CALL ISZERO DUP1 ISZERO PUSH2 0x2177 JUMPI RETURNDATASIZE PUSH1 0x0 DUP1 RETURNDATACOPY RETURNDATASIZE PUSH1 0x0 REVERT JUMPDEST POP POP POP POP PUSH1 0x40 MLOAD RETURNDATASIZE PUSH1 0x0 DUP3 RETURNDATACOPY PUSH1 0x1F RETURNDATASIZE SWAP1 DUP2 ADD PUSH1 0x1F NOT AND DUP3 ADD PUSH1 0x40 MSTORE PUSH2 0x219F SWAP2 SWAP1 DUP2 ADD SWAP1 PUSH2 0x2E2A JUMP JUMPDEST SWAP1 POP PUSH1 0x0 DUP2 PUSH1 0x1 DUP4 MLOAD PUSH2 0x21B2 SWAP2 SWAP1 PUSH2 0x3A65 JUMP JUMPDEST DUP2 MLOAD DUP2 LT PUSH2 0x21D0 JUMPI PUSH4 0x4E487B71 PUSH1 0xE0 SHL PUSH1 0x0 MSTORE PUSH1 0x32 PUSH1 0x4 MSTORE PUSH1 0x24 PUSH1 0x0 REVERT JUMPDEST PUSH1 0x20 MUL PUSH1 0x20 ADD ADD MLOAD SWAP1 POP PUSH1 0x0 DUP2 SLT PUSH2 0x21FA JUMPI PUSH1 0x40 MLOAD PUSH3 0x461BCD PUSH1 0xE5 SHL DUP2 MSTORE PUSH1 0x4 ADD PUSH2 0x386 SWAP1 PUSH2 0x34BB JUMP JUMPDEST DUP10 PUSH2 0x222C DUP4 PUSH1 0x0 DUP2 MLOAD DUP2 LT PUSH2 0x221F JUMPI PUSH4 0x4E487B71 PUSH1 0xE0 SHL PUSH1 0x0 MSTORE PUSH1 0x32 PUSH1 0x4 MSTORE PUSH1 0x24 PUSH1 0x0 REVERT JUMPDEST PUSH1 0x20 MUL PUSH1 0x20 ADD ADD MLOAD PUSH2 0x2635 JUMP JUMPDEST EQ PUSH2 0x2249 JUMPI PUSH1 0x40 MLOAD PUSH3 0x461BCD PUSH1 0xE5 SHL DUP2 MSTORE PUSH1 0x4 ADD PUSH2 0x386 SWAP1 PUSH2 0x32E1 JUMP JUMPDEST PUSH2 0x2252 DUP2 PUSH2 0x3B1C JUMP JUMPDEST SWAP14 SWAP13 POP POP POP POP POP POP POP POP POP POP POP POP POP JUMP JUMPDEST PUSH1 0x0 PUSH2 0x226D PUSH2 0x28B1 JUMP JUMPDEST DUP8 DUP2 MSTORE PUSH1 0x0 PUSH1 0x20 DUP1 DUP4 ADD DUP3 SWAP1 MSTORE PUSH1 0x1 PUSH1 0x1 PUSH1 0xA0 SHL SUB DUP10 DUP2 AND PUSH1 0x40 DUP1 DUP7 ADD SWAP2 SWAP1 SWAP2 MSTORE DUP10 DUP3 AND PUSH1 0x60 DUP7 ADD MSTORE PUSH1 0x80 DUP6 ADD DUP10 SWAP1 MSTORE DUP1 MLOAD SWAP4 DUP5 MSTORE SWAP2 DUP4 ADD SWAP1 SWAP2 MSTORE PUSH1 0xA0 DUP4 ADD SWAP2 SWAP1 SWAP2 MSTORE PUSH32 0x0 AND PUSH4 0x52BBBE29 DUP3 PUSH2 0x22E0 PUSH2 0x2603 JUMP JUMPDEST DUP8 DUP8 PUSH1 0x40 MLOAD DUP6 PUSH4 0xFFFFFFFF AND PUSH1 0xE0 SHL DUP2 MSTORE PUSH1 0x4 ADD PUSH2 0x1E07 SWAP5 SWAP4 SWAP3 SWAP2 SWAP1 PUSH2 0x3888 JUMP JUMPDEST PUSH1 0x0 PUSH2 0x2356 DUP3 PUSH1 0x40 MLOAD DUP1 PUSH1 0x40 ADD PUSH1 0x40 MSTORE DUP1 PUSH1 0x20 DUP2 MSTORE PUSH1 0x20 ADD PUSH32 0x5361666545524332303A206C6F772D6C6576656C2063616C6C206661696C6564 DUP2 MSTORE POP DUP6 PUSH1 0x1 PUSH1 0x1 PUSH1 0xA0 SHL SUB AND PUSH2 0x2657 SWAP1 SWAP3 SWAP2 SWAP1 PUSH4 0xFFFFFFFF AND JUMP JUMPDEST DUP1 MLOAD SWAP1 SWAP2 POP ISZERO PUSH2 0x1BBF JUMPI DUP1 DUP1 PUSH1 0x20 ADD SWAP1 MLOAD DUP2 ADD SWAP1 PUSH2 0x2374 SWAP2 SWAP1 PUSH2 0x2EED JUMP JUMPDEST PUSH2 0x1BBF JUMPI PUSH1 0x40 MLOAD PUSH3 0x461BCD PUSH1 0xE5 SHL DUP2 MSTORE PUSH1 0x4 ADD PUSH2 0x386 SWAP1 PUSH2 0x3627 JUMP JUMPDEST PUSH1 0x60 DUP3 MLOAD PUSH1 0x2 PUSH2 0x23A0 SWAP2 SWAP1 PUSH2 0x39F0 JUMP JUMPDEST PUSH8 0xFFFFFFFFFFFFFFFF DUP2 GT ISZERO PUSH2 0x23C6 JUMPI PUSH4 0x4E487B71 PUSH1 0xE0 SHL PUSH1 0x0 MSTORE PUSH1 0x41 PUSH1 0x4 MSTORE PUSH1 0x24 PUSH1 0x0 REVERT JUMPDEST PUSH1 0x40 MLOAD SWAP1 DUP1 DUP3 MSTORE DUP1 PUSH1 0x20 MUL PUSH1 0x20 ADD DUP3 ADD PUSH1 0x40 MSTORE DUP1 ISZERO PUSH2 0x23EF JUMPI DUP2 PUSH1 0x20 ADD PUSH1 0x20 DUP3 MUL DUP1 CALLDATASIZE DUP4 CALLDATACOPY ADD SWAP1 POP JUMPDEST POP SWAP1 POP DUP4 DUP2 PUSH1 0x0 DUP2 MLOAD DUP2 LT PUSH2 0x2414 JUMPI PUSH4 0x4E487B71 PUSH1 0xE0 SHL PUSH1 0x0 MSTORE PUSH1 0x32 PUSH1 0x4 MSTORE PUSH1 0x24 PUSH1 0x0 REVERT JUMPDEST PUSH1 0x20 MUL PUSH1 0x20 ADD ADD SWAP1 PUSH1 0x1 PUSH1 0x1 PUSH1 0xA0 SHL SUB AND SWAP1 DUP2 PUSH1 0x1 PUSH1 0x1 PUSH1 0xA0 SHL SUB AND DUP2 MSTORE POP POP PUSH1 0x0 JUMPDEST DUP4 MLOAD DUP2 LT ISZERO PUSH2 0x24BE JUMPI DUP4 DUP2 DUP2 MLOAD DUP2 LT PUSH2 0x2460 JUMPI PUSH4 0x4E487B71 PUSH1 0xE0 SHL PUSH1 0x0 MSTORE PUSH1 0x32 PUSH1 0x4 MSTORE PUSH1 0x24 PUSH1 0x0 REVERT JUMPDEST PUSH1 0x20 MUL PUSH1 0x20 ADD ADD MLOAD DUP3 DUP3 PUSH1 0x1 PUSH2 0x2476 SWAP2 SWAP1 PUSH2 0x39F0 JUMP JUMPDEST DUP2 MLOAD DUP2 LT PUSH2 0x2494 JUMPI PUSH4 0x4E487B71 PUSH1 0xE0 SHL PUSH1 0x0 MSTORE PUSH1 0x32 PUSH1 0x4 MSTORE PUSH1 0x24 PUSH1 0x0 REVERT JUMPDEST PUSH1 0x1 PUSH1 0x1 PUSH1 0xA0 SHL SUB SWAP1 SWAP3 AND PUSH1 0x20 SWAP3 DUP4 MUL SWAP2 SWAP1 SWAP2 ADD SWAP1 SWAP2 ADD MSTORE DUP1 PUSH2 0x24B6 DUP2 PUSH2 0x3AE3 JUMP JUMPDEST SWAP2 POP POP PUSH2 0x2437 JUMP JUMPDEST POP DUP2 DUP2 DUP5 MLOAD PUSH1 0x1 PUSH2 0x24CF SWAP2 SWAP1 PUSH2 0x39F0 JUMP JUMPDEST DUP2 MLOAD DUP2 LT PUSH2 0x24ED JUMPI PUSH4 0x4E487B71 PUSH1 0xE0 SHL PUSH1 0x0 MSTORE PUSH1 0x32 PUSH1 0x4 MSTORE PUSH1 0x24 PUSH1 0x0 REVERT JUMPDEST PUSH1 0x20 MUL PUSH1 0x20 ADD ADD SWAP1 PUSH1 0x1 PUSH1 0x1 PUSH1 0xA0 SHL SUB AND SWAP1 DUP2 PUSH1 0x1 PUSH1 0x1 PUSH1 0xA0 SHL SUB AND DUP2 MSTORE POP POP SWAP4 SWAP3 POP POP POP JUMP JUMPDEST PUSH1 0x40 DUP1 MLOAD PUSH1 0x2 DUP1 DUP3 MSTORE PUSH1 0x60 DUP1 DUP4 ADD DUP5 MSTORE SWAP3 PUSH1 0x20 DUP4 ADD SWAP1 DUP1 CALLDATASIZE DUP4 CALLDATACOPY ADD SWAP1 POP POP SWAP1 POP DUP3 DUP2 PUSH1 0x0 DUP2 MLOAD DUP2 LT PUSH2 0x2556 JUMPI PUSH4 0x4E487B71 PUSH1 0xE0 SHL PUSH1 0x0 MSTORE PUSH1 0x32 PUSH1 0x4 MSTORE PUSH1 0x24 PUSH1 0x0 REVERT JUMPDEST PUSH1 0x20 MUL PUSH1 0x20 ADD ADD SWAP1 PUSH1 0x1 PUSH1 0x1 PUSH1 0xA0 SHL SUB AND SWAP1 DUP2 PUSH1 0x1 PUSH1 0x1 PUSH1 0xA0 SHL SUB AND DUP2 MSTORE POP POP DUP2 DUP2 PUSH1 0x1 DUP2 MLOAD DUP2 LT PUSH2 0x2598 JUMPI PUSH4 0x4E487B71 PUSH1 0xE0 SHL PUSH1 0x0 MSTORE PUSH1 0x32 PUSH1 0x4 MSTORE PUSH1 0x24 PUSH1 0x0 REVERT JUMPDEST PUSH1 0x20 MUL PUSH1 0x20 ADD ADD SWAP1 PUSH1 0x1 PUSH1 0x1 PUSH1 0xA0 SHL SUB AND SWAP1 DUP2 PUSH1 0x1 PUSH1 0x1 PUSH1 0xA0 SHL SUB AND DUP2 MSTORE POP POP SWAP3 SWAP2 POP POP JUMP JUMPDEST PUSH1 0x0 PUSH32 0x8000000000000000000000000000000000000000000000000000000000000000 DUP3 LT PUSH2 0x25FF JUMPI PUSH1 0x40 MLOAD PUSH3 0x461BCD PUSH1 0xE5 SHL DUP2 MSTORE PUSH1 0x4 ADD PUSH2 0x386 SWAP1 PUSH2 0x35CA JUMP JUMPDEST POP SWAP1 JUMP JUMPDEST PUSH2 0x260B PUSH2 0x28FA JUMP JUMPDEST POP PUSH1 0x40 DUP1 MLOAD PUSH1 0x80 DUP2 ADD DUP3 MSTORE ADDRESS DUP2 MSTORE PUSH1 0x0 PUSH1 0x20 DUP3 ADD DUP2 SWAP1 MSTORE CALLER SWAP3 DUP3 ADD SWAP3 SWAP1 SWAP3 MSTORE PUSH1 0x60 DUP2 ADD SWAP2 SWAP1 SWAP2 MSTORE SWAP1 JUMP JUMPDEST PUSH1 0x0 DUP1 DUP3 SLT ISZERO PUSH2 0x25FF JUMPI PUSH1 0x40 MLOAD PUSH3 0x461BCD PUSH1 0xE5 SHL DUP2 MSTORE PUSH1 0x4 ADD PUSH2 0x386 SWAP1 PUSH2 0x3486 JUMP JUMPDEST PUSH1 0x60 PUSH2 0x1466 DUP5 DUP5 PUSH1 0x0 DUP6 DUP6 PUSH2 0x266B DUP6 PUSH2 0x26F5 JUMP JUMPDEST PUSH2 0x2687 JUMPI PUSH1 0x40 MLOAD PUSH3 0x461BCD PUSH1 0xE5 SHL DUP2 MSTORE PUSH1 0x4 ADD PUSH2 0x386 SWAP1 PUSH2 0x3593 JUMP JUMPDEST PUSH1 0x0 DUP1 DUP7 PUSH1 0x1 PUSH1 0x1 PUSH1 0xA0 SHL SUB AND DUP6 DUP8 PUSH1 0x40 MLOAD PUSH2 0x26A3 SWAP2 SWAP1 PUSH2 0x3070 JUMP JUMPDEST PUSH1 0x0 PUSH1 0x40 MLOAD DUP1 DUP4 SUB DUP2 DUP6 DUP8 GAS CALL SWAP3 POP POP POP RETURNDATASIZE DUP1 PUSH1 0x0 DUP2 EQ PUSH2 0x26E0 JUMPI PUSH1 0x40 MLOAD SWAP2 POP PUSH1 0x1F NOT PUSH1 0x3F RETURNDATASIZE ADD AND DUP3 ADD PUSH1 0x40 MSTORE RETURNDATASIZE DUP3 MSTORE RETURNDATASIZE PUSH1 0x0 PUSH1 0x20 DUP5 ADD RETURNDATACOPY PUSH2 0x26E5 JUMP JUMPDEST PUSH1 0x60 SWAP2 POP JUMPDEST POP SWAP2 POP SWAP2 POP PUSH2 0x1974 DUP3 DUP3 DUP7 PUSH2 0x26FB JUMP JUMPDEST EXTCODESIZE ISZERO ISZERO SWAP1 JUMP JUMPDEST PUSH1 0x60 DUP4 ISZERO PUSH2 0x270A JUMPI POP DUP2 PUSH2 0x90A JUMP JUMPDEST DUP3 MLOAD ISZERO PUSH2 0x271A JUMPI DUP3 MLOAD DUP1 DUP5 PUSH1 0x20 ADD REVERT JUMPDEST DUP2 PUSH1 0x40 MLOAD PUSH3 0x461BCD PUSH1 0xE5 SHL DUP2 MSTORE PUSH1 0x4 ADD PUSH2 0x386 SWAP2 SWAP1 PUSH2 0x32CE JUMP JUMPDEST PUSH1 0x40 MLOAD DUP1 PUSH1 0x20 ADD PUSH1 0x40 MSTORE DUP1 PUSH1 0x60 DUP2 MSTORE POP SWAP1 JUMP JUMPDEST PUSH1 0x40 MLOAD DUP1 PUSH1 0x60 ADD PUSH1 0x40 MSTORE DUP1 PUSH1 0x0 DUP1 NOT AND DUP2 MSTORE PUSH1 0x20 ADD PUSH1 0x60 DUP2 MSTORE PUSH1 0x20 ADD PUSH1 0x60 DUP2 MSTORE POP SWAP1 JUMP JUMPDEST PUSH1 0x40 DUP1 MLOAD DUP1 DUP3 ADD SWAP1 SWAP2 MSTORE PUSH1 0x0 DUP2 MSTORE PUSH1 0x60 PUSH1 0x20 DUP3 ADD MSTORE SWAP1 JUMP JUMPDEST DUP3 DUP1 SLOAD PUSH2 0x278F SWAP1 PUSH2 0x3AA8 JUMP JUMPDEST SWAP1 PUSH1 0x0 MSTORE PUSH1 0x20 PUSH1 0x0 KECCAK256 SWAP1 PUSH1 0x1F ADD PUSH1 0x20 SWAP1 DIV DUP2 ADD SWAP3 DUP3 PUSH2 0x27B1 JUMPI PUSH1 0x0 DUP6 SSTORE PUSH2 0x27F7 JUMP JUMPDEST DUP3 PUSH1 0x1F LT PUSH2 0x27CA JUMPI DUP1 MLOAD PUSH1 0xFF NOT AND DUP4 DUP1 ADD OR DUP6 SSTORE PUSH2 0x27F7 JUMP JUMPDEST DUP3 DUP1 ADD PUSH1 0x1 ADD DUP6 SSTORE DUP3 ISZERO PUSH2 0x27F7 JUMPI SWAP2 DUP3 ADD JUMPDEST DUP3 DUP2 GT ISZERO PUSH2 0x27F7 JUMPI DUP3 MLOAD DUP3 SSTORE SWAP2 PUSH1 0x20 ADD SWAP2 SWAP1 PUSH1 0x1 ADD SWAP1 PUSH2 0x27DC JUMP JUMPDEST POP PUSH2 0x25FF SWAP3 SWAP2 POP PUSH2 0x2921 JUMP JUMPDEST PUSH1 0x40 MLOAD DUP1 PUSH1 0xA0 ADD PUSH1 0x40 MSTORE DUP1 PUSH1 0x60 DUP2 MSTORE PUSH1 0x20 ADD PUSH1 0x0 PUSH1 0x1 PUSH1 0x1 PUSH1 0xA0 SHL SUB AND DUP2 MSTORE PUSH1 0x20 ADD PUSH1 0x0 DUP2 MSTORE PUSH1 0x20 ADD PUSH1 0x0 DUP2 MSTORE PUSH1 0x20 ADD PUSH1 0x0 DUP2 MSTORE POP SWAP1 JUMP JUMPDEST PUSH1 0x40 DUP1 MLOAD PUSH2 0x100 DUP2 ADD DUP3 MSTORE PUSH1 0x0 DUP1 DUP3 MSTORE PUSH1 0x20 DUP3 ADD DUP2 SWAP1 MSTORE SWAP2 DUP2 ADD DUP3 SWAP1 MSTORE PUSH1 0x60 DUP2 ADD DUP3 SWAP1 MSTORE PUSH1 0x80 DUP2 ADD DUP3 SWAP1 MSTORE PUSH1 0xA0 DUP2 ADD DUP3 SWAP1 MSTORE PUSH1 0xC0 DUP2 ADD DUP3 SWAP1 MSTORE PUSH1 0xE0 DUP2 ADD SWAP2 SWAP1 SWAP2 MSTORE SWAP1 JUMP JUMPDEST PUSH1 0x40 MLOAD DUP1 PUSH1 0xA0 ADD PUSH1 0x40 MSTORE DUP1 PUSH1 0x0 DUP1 NOT AND DUP2 MSTORE PUSH1 0x20 ADD PUSH1 0x0 DUP2 MSTORE PUSH1 0x20 ADD PUSH1 0x0 DUP2 MSTORE PUSH1 0x20 ADD PUSH1 0x0 DUP2 MSTORE PUSH1 0x20 ADD PUSH1 0x60 DUP2 MSTORE POP SWAP1 JUMP JUMPDEST PUSH1 0x40 DUP1 MLOAD PUSH1 0xC0 DUP2 ADD SWAP1 SWAP2 MSTORE PUSH1 0x0 DUP1 DUP3 MSTORE PUSH1 0x20 DUP3 ADD SWAP1 DUP2 MSTORE PUSH1 0x20 ADD PUSH1 0x0 PUSH1 0x1 PUSH1 0x1 PUSH1 0xA0 SHL SUB AND DUP2 MSTORE PUSH1 0x20 ADD PUSH1 0x0 PUSH1 0x1 PUSH1 0x1 PUSH1 0xA0 SHL SUB AND DUP2 MSTORE PUSH1 0x20 ADD PUSH1 0x0 DUP2 MSTORE PUSH1 0x20 ADD PUSH1 0x60 DUP2 MSTORE POP SWAP1 JUMP JUMPDEST PUSH1 0x40 DUP1 MLOAD PUSH1 0x80 DUP2 ADD DUP3 MSTORE PUSH1 0x0 DUP1 DUP3 MSTORE PUSH1 0x20 DUP3 ADD DUP2 SWAP1 MSTORE SWAP2 DUP2 ADD DUP3 SWAP1 MSTORE PUSH1 0x60 DUP2 ADD SWAP2 SWAP1 SWAP2 MSTORE SWAP1 JUMP JUMPDEST JUMPDEST DUP1 DUP3 GT ISZERO PUSH2 0x25FF JUMPI PUSH1 0x0 DUP2 SSTORE PUSH1 0x1 ADD PUSH2 0x2922 JUMP JUMPDEST PUSH1 0x0 DUP3 PUSH1 0x1F DUP4 ADD SLT PUSH2 0x2946 JUMPI DUP1 DUP2 REVERT JUMPDEST DUP2 CALLDATALOAD PUSH1 0x20 PUSH2 0x295B PUSH2 0x2956 DUP4 PUSH2 0x39CC JUMP JUMPDEST PUSH2 0x39A2 JUMP JUMPDEST DUP3 DUP2 MSTORE DUP2 DUP2 ADD SWAP1 DUP6 DUP4 ADD DUP4 DUP6 MUL DUP8 ADD DUP5 ADD DUP9 LT ISZERO PUSH2 0x2977 JUMPI DUP6 DUP7 REVERT JUMPDEST DUP6 JUMPDEST DUP6 DUP2 LT ISZERO PUSH2 0x299E JUMPI DUP2 CALLDATALOAD PUSH2 0x298C DUP2 PUSH2 0x3B94 JUMP JUMPDEST DUP5 MSTORE SWAP3 DUP5 ADD SWAP3 SWAP1 DUP5 ADD SWAP1 PUSH1 0x1 ADD PUSH2 0x2979 JUMP JUMPDEST POP SWAP1 SWAP8 SWAP7 POP POP POP POP POP POP POP JUMP JUMPDEST PUSH1 0x0 DUP3 PUSH1 0x1F DUP4 ADD SLT PUSH2 0x29BB JUMPI DUP1 DUP2 REVERT JUMPDEST DUP2 MLOAD PUSH1 0x20 PUSH2 0x29CB PUSH2 0x2956 DUP4 PUSH2 0x39CC JUMP JUMPDEST DUP3 DUP2 MSTORE DUP2 DUP2 ADD SWAP1 DUP6 DUP4 ADD DUP4 DUP6 MUL DUP8 ADD DUP5 ADD DUP9 LT ISZERO PUSH2 0x29E7 JUMPI DUP6 DUP7 REVERT JUMPDEST DUP6 JUMPDEST DUP6 DUP2 LT ISZERO PUSH2 0x299E JUMPI DUP2 MLOAD DUP5 MSTORE SWAP3 DUP5 ADD SWAP3 SWAP1 DUP5 ADD SWAP1 PUSH1 0x1 ADD PUSH2 0x29E9 JUMP JUMPDEST PUSH1 0x0 PUSH1 0x20 DUP3 DUP5 SUB SLT ISZERO PUSH2 0x2A16 JUMPI DUP1 DUP2 REVERT JUMPDEST DUP2 CALLDATALOAD PUSH2 0x90A DUP2 PUSH2 0x3B94 JUMP JUMPDEST PUSH1 0x0 PUSH1 0x20 DUP3 DUP5 SUB SLT ISZERO PUSH2 0x2A32 JUMPI DUP1 DUP2 REVERT JUMPDEST DUP2 MLOAD PUSH2 0x90A DUP2 PUSH2 0x3B94 JUMP JUMPDEST PUSH1 0x0 DUP1 PUSH1 0x40 DUP4 DUP6 SUB SLT ISZERO PUSH2 0x2A4F JUMPI DUP1 DUP2 REVERT JUMPDEST DUP3 CALLDATALOAD PUSH2 0x2A5A DUP2 PUSH2 0x3B94 JUMP JUMPDEST SWAP2 POP PUSH1 0x20 DUP4 ADD CALLDATALOAD PUSH2 0x2A6A DUP2 PUSH2 0x3B94 JUMP JUMPDEST DUP1 SWAP2 POP POP SWAP3 POP SWAP3 SWAP1 POP JUMP JUMPDEST PUSH1 0x0 DUP1 PUSH1 0x0 PUSH1 0x60 DUP5 DUP7 SUB SLT ISZERO PUSH2 0x2A89 JUMPI DUP1 DUP2 REVERT JUMPDEST DUP4 CALLDATALOAD PUSH2 0x2A94 DUP2 PUSH2 0x3B94 JUMP JUMPDEST SWAP3 POP PUSH1 0x20 DUP5 ADD CALLDATALOAD PUSH2 0x2AA4 DUP2 PUSH2 0x3B94 JUMP JUMPDEST SWAP3 SWAP6 SWAP3 SWAP5 POP POP POP PUSH1 0x40 SWAP2 SWAP1 SWAP2 ADD CALLDATALOAD SWAP1 JUMP JUMPDEST PUSH1 0x0 DUP1 PUSH1 0x0 DUP1 PUSH1 0x0 DUP1 PUSH1 0xC0 DUP8 DUP10 SUB SLT ISZERO PUSH2 0x2ACD JUMPI DUP4 DUP5 REVERT JUMPDEST DUP7 CALLDATALOAD PUSH2 0x2AD8 DUP2 PUSH2 0x3B94 JUMP JUMPDEST SWAP6 POP PUSH1 0x20 DUP8 DUP2 ADD CALLDATALOAD PUSH2 0x2AE9 DUP2 PUSH2 0x3B94 JUMP JUMPDEST SWAP6 POP PUSH1 0x40 DUP9 ADD CALLDATALOAD SWAP5 POP PUSH1 0x60 DUP9 ADD CALLDATALOAD SWAP4 POP PUSH1 0x80 DUP9 ADD CALLDATALOAD SWAP3 POP PUSH1 0xA0 DUP9 ADD CALLDATALOAD PUSH8 0xFFFFFFFFFFFFFFFF DUP1 DUP3 GT ISZERO PUSH2 0x2B1A JUMPI DUP4 DUP5 REVERT JUMPDEST DUP2 DUP11 ADD SWAP2 POP DUP11 PUSH1 0x1F DUP4 ADD SLT PUSH2 0x2B2D JUMPI DUP4 DUP5 REVERT JUMPDEST DUP2 CALLDATALOAD DUP2 DUP2 GT ISZERO PUSH2 0x2B3F JUMPI PUSH2 0x2B3F PUSH2 0x3B7E JUMP JUMPDEST PUSH2 0x2B51 DUP5 PUSH1 0x1F NOT PUSH1 0x1F DUP5 ADD AND ADD PUSH2 0x39A2 JUMP JUMPDEST SWAP2 POP DUP1 DUP3 MSTORE DUP12 DUP5 DUP3 DUP6 ADD ADD GT ISZERO PUSH2 0x2B66 JUMPI DUP5 DUP6 REVERT JUMPDEST DUP1 DUP5 DUP5 ADD DUP6 DUP5 ADD CALLDATACOPY DUP5 DUP5 DUP3 DUP5 ADD ADD MSTORE POP DUP1 SWAP4 POP POP POP POP SWAP3 SWAP6 POP SWAP3 SWAP6 POP SWAP3 SWAP6 JUMP JUMPDEST PUSH1 0x0 DUP1 PUSH1 0x40 DUP4 DUP6 SUB SLT ISZERO PUSH2 0x2B98 JUMPI DUP2 DUP3 REVERT JUMPDEST DUP3 MLOAD PUSH2 0x2BA3 DUP2 PUSH2 0x3B94 JUMP JUMPDEST PUSH1 0x20 DUP5 ADD MLOAD SWAP1 SWAP3 POP PUSH1 0xFF DUP2 AND DUP2 EQ PUSH2 0x2A6A JUMPI DUP2 DUP3 REVERT JUMPDEST PUSH1 0x0 PUSH1 0x20 DUP3 DUP5 SUB SLT ISZERO PUSH2 0x2BCA JUMPI DUP1 DUP2 REVERT JUMPDEST DUP2 CALLDATALOAD PUSH8 0xFFFFFFFFFFFFFFFF DUP2 GT ISZERO PUSH2 0x2BE0 JUMPI DUP2 DUP3 REVERT JUMPDEST PUSH2 0x1466 DUP5 DUP3 DUP6 ADD PUSH2 0x2936 JUMP JUMPDEST PUSH1 0x0 DUP1 PUSH1 0x40 DUP4 DUP6 SUB SLT ISZERO PUSH2 0x2BFE JUMPI DUP2 DUP3 REVERT JUMPDEST DUP3 CALLDATALOAD PUSH8 0xFFFFFFFFFFFFFFFF DUP1 DUP3 GT ISZERO PUSH2 0x2C15 JUMPI DUP4 DUP5 REVERT JUMPDEST PUSH2 0x2C21 DUP7 DUP4 DUP8 ADD PUSH2 0x2936 JUMP JUMPDEST SWAP4 POP PUSH1 0x20 SWAP2 POP DUP2 DUP6 ADD CALLDATALOAD DUP2 DUP2 GT ISZERO PUSH2 0x2C37 JUMPI DUP4 DUP5 REVERT JUMPDEST DUP6 ADD SWAP1 POP PUSH1 0x1F DUP2 ADD DUP7 SGT PUSH2 0x2C49 JUMPI DUP3 DUP4 REVERT JUMPDEST DUP1 CALLDATALOAD PUSH2 0x2C57 PUSH2 0x2956 DUP3 PUSH2 0x39CC JUMP JUMPDEST DUP2 DUP2 MSTORE DUP4 DUP2 ADD SWAP1 DUP4 DUP6 ADD DUP6 DUP5 MUL DUP6 ADD DUP7 ADD DUP11 LT ISZERO PUSH2 0x2C73 JUMPI DUP7 DUP8 REVERT JUMPDEST DUP7 SWAP5 POP JUMPDEST DUP4 DUP6 LT ISZERO PUSH2 0x2C95 JUMPI DUP1 CALLDATALOAD DUP4 MSTORE PUSH1 0x1 SWAP5 SWAP1 SWAP5 ADD SWAP4 SWAP2 DUP6 ADD SWAP2 DUP6 ADD PUSH2 0x2C77 JUMP JUMPDEST POP DUP1 SWAP6 POP POP POP POP POP POP SWAP3 POP SWAP3 SWAP1 POP JUMP JUMPDEST PUSH1 0x0 DUP1 PUSH1 0x40 DUP4 DUP6 SUB SLT ISZERO PUSH2 0x2CB7 JUMPI DUP2 DUP3 REVERT JUMPDEST DUP3 CALLDATALOAD PUSH8 0xFFFFFFFFFFFFFFFF DUP1 DUP3 GT ISZERO PUSH2 0x2CCE JUMPI DUP4 DUP5 REVERT JUMPDEST PUSH2 0x2CDA DUP7 DUP4 DUP8 ADD PUSH2 0x2936 JUMP JUMPDEST SWAP4 POP PUSH1 0x20 SWAP2 POP DUP2 DUP6 ADD CALLDATALOAD DUP2 DUP2 GT ISZERO PUSH2 0x2CF0 JUMPI DUP4 DUP5 REVERT JUMPDEST DUP6 ADD SWAP1 POP PUSH1 0x1F DUP2 ADD DUP7 SGT PUSH2 0x2D02 JUMPI DUP3 DUP4 REVERT JUMPDEST DUP1 CALLDATALOAD PUSH2 0x2D10 PUSH2 0x2956 DUP3 PUSH2 0x39CC JUMP JUMPDEST DUP2 DUP2 MSTORE DUP4 DUP2 ADD SWAP1 DUP4 DUP6 ADD DUP6 DUP5 MUL DUP6 ADD DUP7 ADD DUP11 LT ISZERO PUSH2 0x2D2C JUMPI DUP7 DUP8 REVERT JUMPDEST DUP7 SWAP5 POP JUMPDEST DUP4 DUP6 LT ISZERO PUSH2 0x2C95 JUMPI DUP1 CALLDATALOAD PUSH3 0xFFFFFF DUP2 AND DUP2 EQ PUSH2 0x2D4A JUMPI DUP8 DUP9 REVERT JUMPDEST DUP4 MSTORE PUSH1 0x1 SWAP5 SWAP1 SWAP5 ADD SWAP4 SWAP2 DUP6 ADD SWAP2 DUP6 ADD PUSH2 0x2D30 JUMP JUMPDEST PUSH1 0x0 DUP1 PUSH1 0x0 PUSH1 0x60 DUP5 DUP7 SUB SLT ISZERO PUSH2 0x2D72 JUMPI DUP1 DUP2 REVERT JUMPDEST DUP4 MLOAD PUSH8 0xFFFFFFFFFFFFFFFF DUP1 DUP3 GT ISZERO PUSH2 0x2D89 JUMPI DUP3 DUP4 REVERT JUMPDEST DUP2 DUP7 ADD SWAP2 POP DUP7 PUSH1 0x1F DUP4 ADD SLT PUSH2 0x2D9C JUMPI DUP3 DUP4 REVERT JUMPDEST DUP2 MLOAD PUSH1 0x20 PUSH2 0x2DAC PUSH2 0x2956 DUP4 PUSH2 0x39CC JUMP JUMPDEST DUP3 DUP2 MSTORE DUP2 DUP2 ADD SWAP1 DUP6 DUP4 ADD DUP4 DUP6 MUL DUP8 ADD DUP5 ADD DUP13 LT ISZERO PUSH2 0x2DC8 JUMPI DUP8 DUP9 REVERT JUMPDEST DUP8 SWAP7 POP JUMPDEST DUP5 DUP8 LT ISZERO PUSH2 0x2DF3 JUMPI DUP1 MLOAD PUSH2 0x2DDF DUP2 PUSH2 0x3B94 JUMP JUMPDEST DUP4 MSTORE PUSH1 0x1 SWAP7 SWAP1 SWAP7 ADD SWAP6 SWAP2 DUP4 ADD SWAP2 DUP4 ADD PUSH2 0x2DCC JUMP JUMPDEST POP SWAP2 DUP10 ADD MLOAD SWAP2 SWAP8 POP SWAP1 SWAP4 POP POP POP DUP1 DUP3 GT ISZERO PUSH2 0x2E0C JUMPI DUP3 DUP4 REVERT JUMPDEST POP PUSH2 0x2E19 DUP7 DUP3 DUP8 ADD PUSH2 0x29AB JUMP JUMPDEST SWAP3 POP POP PUSH1 0x40 DUP5 ADD MLOAD SWAP1 POP SWAP3 POP SWAP3 POP SWAP3 JUMP JUMPDEST PUSH1 0x0 PUSH1 0x20 DUP1 DUP4 DUP6 SUB SLT ISZERO PUSH2 0x2E3C JUMPI DUP2 DUP3 REVERT JUMPDEST DUP3 MLOAD PUSH8 0xFFFFFFFFFFFFFFFF DUP2 GT ISZERO PUSH2 0x2E52 JUMPI DUP3 DUP4 REVERT JUMPDEST DUP4 ADD PUSH1 0x1F DUP2 ADD DUP6 SGT PUSH2 0x2E62 JUMPI DUP3 DUP4 REVERT JUMPDEST DUP1 MLOAD PUSH2 0x2E70 PUSH2 0x2956 DUP3 PUSH2 0x39CC JUMP JUMPDEST DUP2 DUP2 MSTORE DUP4 DUP2 ADD SWAP1 DUP4 DUP6 ADD DUP6 DUP5 MUL DUP6 ADD DUP7 ADD DUP10 LT ISZERO PUSH2 0x2E8C JUMPI DUP7 DUP8 REVERT JUMPDEST DUP7 SWAP5 POP JUMPDEST DUP4 DUP6 LT ISZERO PUSH2 0x2EAE JUMPI DUP1 MLOAD DUP4 MSTORE PUSH1 0x1 SWAP5 SWAP1 SWAP5 ADD SWAP4 SWAP2 DUP6 ADD SWAP2 DUP6 ADD PUSH2 0x2E90 JUMP JUMPDEST POP SWAP8 SWAP7 POP POP POP POP POP POP POP JUMP JUMPDEST PUSH1 0x0 PUSH1 0x20 DUP3 DUP5 SUB SLT ISZERO PUSH2 0x2ECB JUMPI DUP1 DUP2 REVERT JUMPDEST DUP2 MLOAD PUSH8 0xFFFFFFFFFFFFFFFF DUP2 GT ISZERO PUSH2 0x2EE1 JUMPI DUP2 DUP3 REVERT JUMPDEST PUSH2 0x1466 DUP5 DUP3 DUP6 ADD PUSH2 0x29AB JUMP JUMPDEST PUSH1 0x0 PUSH1 0x20 DUP3 DUP5 SUB SLT ISZERO PUSH2 0x2EFE JUMPI DUP1 DUP2 REVERT JUMPDEST DUP2 MLOAD DUP1 ISZERO ISZERO DUP2 EQ PUSH2 0x90A JUMPI DUP2 DUP3 REVERT JUMPDEST PUSH1 0x0 PUSH1 0x20 DUP3 DUP5 SUB SLT ISZERO PUSH2 0x2F1E JUMPI DUP1 DUP2 REVERT JUMPDEST POP CALLDATALOAD SWAP2 SWAP1 POP JUMP JUMPDEST PUSH1 0x0 PUSH1 0x20 DUP3 DUP5 SUB SLT ISZERO PUSH2 0x2F36 JUMPI DUP1 DUP2 REVERT JUMPDEST POP MLOAD SWAP2 SWAP1 POP JUMP JUMPDEST PUSH1 0x0 DUP2 MLOAD DUP1 DUP5 MSTORE PUSH1 0x20 DUP1 DUP6 ADD SWAP5 POP DUP1 DUP5 ADD DUP4 JUMPDEST DUP4 DUP2 LT ISZERO PUSH2 0x2F75 JUMPI DUP2 MLOAD PUSH1 0x1 PUSH1 0x1 PUSH1 0xA0 SHL SUB AND DUP8 MSTORE SWAP6 DUP3 ADD SWAP6 SWAP1 DUP3 ADD SWAP1 PUSH1 0x1 ADD PUSH2 0x2F50 JUMP JUMPDEST POP SWAP5 SWAP6 SWAP5 POP POP POP POP POP JUMP JUMPDEST PUSH1 0x0 DUP2 MLOAD DUP1 DUP5 MSTORE PUSH1 0x20 DUP1 DUP6 ADD SWAP5 POP DUP1 DUP5 ADD DUP4 JUMPDEST DUP4 DUP2 LT ISZERO PUSH2 0x2F75 JUMPI DUP2 MLOAD DUP8 MSTORE SWAP6 DUP3 ADD SWAP6 SWAP1 DUP3 ADD SWAP1 PUSH1 0x1 ADD PUSH2 0x2F93 JUMP JUMPDEST PUSH1 0x0 DUP2 MLOAD DUP1 DUP5 MSTORE PUSH2 0x2FC7 DUP2 PUSH1 0x20 DUP7 ADD PUSH1 0x20 DUP7 ADD PUSH2 0x3A7C JUMP JUMPDEST PUSH1 0x1F ADD PUSH1 0x1F NOT AND SWAP3 SWAP1 SWAP3 ADD PUSH1 0x20 ADD SWAP3 SWAP2 POP POP JUMP JUMPDEST PUSH1 0x3 DUP2 LT PUSH2 0x2FEB JUMPI PUSH2 0x2FEB PUSH2 0x3B68 JUMP JUMPDEST SWAP1 MSTORE JUMP JUMPDEST PUSH1 0x2 DUP2 LT PUSH2 0x2FEB JUMPI PUSH2 0x2FEB PUSH2 0x3B68 JUMP JUMPDEST PUSH1 0x1 PUSH1 0x1 PUSH1 0xA0 SHL SUB DUP1 DUP3 MLOAD AND DUP4 MSTORE PUSH1 0x20 DUP3 ADD MLOAD ISZERO ISZERO PUSH1 0x20 DUP5 ADD MSTORE DUP1 PUSH1 0x40 DUP4 ADD MLOAD AND PUSH1 0x40 DUP5 ADD MSTORE POP PUSH1 0x60 DUP2 ADD MLOAD ISZERO ISZERO PUSH1 0x60 DUP4 ADD MSTORE POP POP JUMP JUMPDEST PUSH32 0xFFFFFFFFFFFFFFFFFFFFFFFFFFFFFFFFFFFFFFFF000000000000000000000000 PUSH1 0x60 SWAP4 DUP5 SHL DUP2 AND DUP3 MSTORE SWAP2 SWAP1 SWAP3 SHL AND PUSH1 0x14 DUP3 ADD MSTORE PUSH1 0x28 ADD SWAP1 JUMP JUMPDEST PUSH1 0x0 DUP3 MLOAD PUSH2 0x3082 DUP2 DUP5 PUSH1 0x20 DUP8 ADD PUSH2 0x3A7C JUMP JUMPDEST SWAP2 SWAP1 SWAP2 ADD SWAP3 SWAP2 POP POP JUMP JUMPDEST PUSH1 0x0 DUP4 MLOAD PUSH2 0x309E DUP2 DUP5 PUSH1 0x20 DUP9 ADD PUSH2 0x3A7C JUMP JUMPDEST PUSH1 0x60 SWAP4 SWAP1 SWAP4 SHL PUSH32 0xFFFFFFFFFFFFFFFFFFFFFFFFFFFFFFFFFFFFFFFF000000000000000000000000 AND SWAP2 SWAP1 SWAP3 ADD SWAP1 DUP2 MSTORE PUSH1 0x14 ADD SWAP3 SWAP2 POP POP JUMP JUMPDEST PUSH1 0x0 DUP4 MLOAD PUSH2 0x30E8 DUP2 DUP5 PUSH1 0x20 DUP9 ADD PUSH2 0x3A7C JUMP JUMPDEST PUSH1 0xE8 SWAP4 SWAP1 SWAP4 SHL PUSH32 0xFFFFFF0000000000000000000000000000000000000000000000000000000000 AND SWAP2 SWAP1 SWAP3 ADD SWAP1 DUP2 MSTORE PUSH1 0x3 ADD SWAP3 SWAP2 POP POP JUMP JUMPDEST PUSH1 0x1 PUSH1 0x1 PUSH1 0xA0 SHL SUB SWAP2 SWAP1 SWAP2 AND DUP2 MSTORE PUSH1 0x20 ADD SWAP1 JUMP JUMPDEST PUSH1 0x1 PUSH1 0x1 PUSH1 0xA0 SHL SUB SWAP3 DUP4 AND DUP2 MSTORE SWAP2 AND PUSH1 0x20 DUP3 ADD MSTORE PUSH1 0x40 ADD SWAP1 JUMP JUMPDEST PUSH1 0x1 PUSH1 0x1 PUSH1 0xA0 SHL SUB DUP5 DUP2 AND DUP3 MSTORE DUP4 AND PUSH1 0x20 DUP3 ADD MSTORE PUSH1 0x60 DUP2 ADD PUSH2 0x1466 PUSH1 0x40 DUP4 ADD DUP5 PUSH2 0x2FDB JUMP JUMPDEST PUSH1 0x1 PUSH1 0x1 PUSH1 0xA0 SHL SUB SWAP4 DUP5 AND DUP2 MSTORE SWAP2 SWAP1 SWAP3 AND PUSH1 0x20 DUP3 ADD MSTORE PUSH3 0xFFFFFF SWAP1 SWAP2 AND PUSH1 0x40 DUP3 ADD MSTORE PUSH1 0x60 ADD SWAP1 JUMP JUMPDEST PUSH1 0x1 PUSH1 0x1 PUSH1 0xA0 SHL SUB SWAP3 SWAP1 SWAP3 AND DUP3 MSTORE PUSH1 0x20 DUP3 ADD MSTORE PUSH1 0x40 ADD SWAP1 JUMP JUMPDEST SWAP1 DUP2 MSTORE PUSH1 0x20 ADD SWAP1 JUMP JUMPDEST PUSH1 0x20 DUP2 ADD PUSH2 0x311 DUP3 DUP5 PUSH2 0x2FDB JUMP JUMPDEST PUSH1 0x0 PUSH2 0x120 DUP1 DUP4 ADD PUSH2 0x31DD DUP5 DUP12 PUSH2 0x2FEF JUMP JUMPDEST PUSH1 0x20 DUP5 DUP2 ADD SWAP3 SWAP1 SWAP3 MSTORE DUP9 MLOAD SWAP1 DUP2 SWAP1 MSTORE PUSH2 0x140 DUP1 DUP6 ADD SWAP3 DUP3 DUP2 MUL DUP7 ADD SWAP1 SWAP2 ADD SWAP2 DUP11 DUP3 ADD DUP6 JUMPDEST DUP3 DUP2 LT ISZERO PUSH2 0x3281 JUMPI DUP8 DUP6 SUB PUSH32 0xFFFFFFFFFFFFFFFFFFFFFFFFFFFFFFFFFFFFFFFFFFFFFFFFFFFFFFFFFFFFFEC0 ADD DUP7 MSTORE DUP2 MLOAD DUP1 MLOAD DUP7 MSTORE DUP5 DUP2 ADD MLOAD DUP6 DUP8 ADD MSTORE PUSH1 0x40 DUP1 DUP3 ADD MLOAD SWAP1 DUP8 ADD MSTORE PUSH1 0x60 DUP1 DUP3 ADD MLOAD SWAP1 DUP8 ADD MSTORE PUSH1 0x80 SWAP1 DUP2 ADD MLOAD PUSH1 0xA0 SWAP2 DUP8 ADD DUP3 SWAP1 MSTORE SWAP1 PUSH2 0x326D DUP2 DUP9 ADD DUP4 PUSH2 0x2FAF JUMP JUMPDEST SWAP8 DUP7 ADD SWAP8 SWAP7 POP POP POP SWAP1 DUP4 ADD SWAP1 PUSH1 0x1 ADD PUSH2 0x3201 JUMP JUMPDEST POP POP POP POP DUP4 DUP2 SUB PUSH1 0x40 DUP6 ADD MSTORE PUSH2 0x3297 DUP2 DUP10 PUSH2 0x2F3D JUMP JUMPDEST SWAP2 POP POP PUSH2 0x32A7 PUSH1 0x60 DUP5 ADD DUP8 PUSH2 0x2FFF JUMP JUMPDEST DUP3 DUP2 SUB PUSH1 0xE0 DUP5 ADD MSTORE PUSH2 0x32B9 DUP2 DUP7 PUSH2 0x2F80 JUMP JUMPDEST SWAP2 POP POP DUP3 PUSH2 0x100 DUP4 ADD MSTORE SWAP8 SWAP7 POP POP POP POP POP POP POP JUMP JUMPDEST PUSH1 0x0 PUSH1 0x20 DUP3 MSTORE PUSH2 0x90A PUSH1 0x20 DUP4 ADD DUP5 PUSH2 0x2FAF JUMP JUMPDEST PUSH1 0x20 DUP1 DUP3 MSTORE DUP2 DUP2 ADD MSTORE PUSH32 0x42414C414E4345525F494E56414C49445F42415443485F414D4F554E545F494E PUSH1 0x40 DUP3 ADD MSTORE PUSH1 0x60 ADD SWAP1 JUMP JUMPDEST PUSH1 0x20 DUP1 DUP3 MSTORE PUSH1 0x1C SWAP1 DUP3 ADD MSTORE PUSH32 0x494E56414C49445F554E49535741505F494E5055545F4C454E47544800000000 PUSH1 0x40 DUP3 ADD MSTORE PUSH1 0x60 ADD SWAP1 JUMP JUMPDEST PUSH1 0x20 DUP1 DUP3 MSTORE PUSH1 0x26 SWAP1 DUP3 ADD MSTORE PUSH32 0x4F776E61626C653A206E6577206F776E657220697320746865207A65726F2061 PUSH1 0x40 DUP3 ADD MSTORE PUSH32 0x6464726573730000000000000000000000000000000000000000000000000000 PUSH1 0x60 DUP3 ADD MSTORE PUSH1 0x80 ADD SWAP1 JUMP JUMPDEST PUSH1 0x20 DUP1 DUP3 MSTORE PUSH1 0x18 SWAP1 DUP3 ADD MSTORE PUSH32 0x494E56414C49445F554E49535741505F504F4F4C5F4645450000000000000000 PUSH1 0x40 DUP3 ADD MSTORE PUSH1 0x60 ADD SWAP1 JUMP JUMPDEST PUSH1 0x20 DUP1 DUP3 MSTORE PUSH1 0x1C SWAP1 DUP3 ADD MSTORE PUSH32 0x494E56414C49445F42414C414E4345525F504F4F4C5F544F4B454E5300000000 PUSH1 0x40 DUP3 ADD MSTORE PUSH1 0x60 ADD SWAP1 JUMP JUMPDEST PUSH1 0x20 DUP1 DUP3 MSTORE PUSH1 0x1D SWAP1 DUP3 ADD MSTORE PUSH32 0x494E56414C49445F42414C414E4345525F494E5055545F4C454E475448000000 PUSH1 0x40 DUP3 ADD MSTORE PUSH1 0x60 ADD SWAP1 JUMP JUMPDEST PUSH1 0x20 DUP1 DUP3 MSTORE PUSH1 0x18 SWAP1 DUP3 ADD MSTORE PUSH32 0x494E56414C49445F42414C414E4345525F504F4F4C5F49440000000000000000 PUSH1 0x40 DUP3 ADD MSTORE PUSH1 0x60 ADD SWAP1 JUMP JUMPDEST PUSH1 0x20 DUP1 DUP3 MSTORE DUP2 DUP2 ADD MSTORE PUSH32 0x53616665436173743A2076616C7565206D75737420626520706F736974697665 PUSH1 0x40 DUP3 ADD MSTORE PUSH1 0x60 ADD SWAP1 JUMP JUMPDEST PUSH1 0x20 DUP1 DUP3 MSTORE DUP2 DUP2 ADD MSTORE PUSH32 0x42414C414E4345525F494E56414C49445F42415443485F414D4F554E545F4F55 PUSH1 0x40 DUP3 ADD MSTORE PUSH1 0x60 ADD SWAP1 JUMP JUMPDEST PUSH1 0x20 DUP1 DUP3 MSTORE PUSH1 0x1F SWAP1 DUP3 ADD MSTORE PUSH32 0x554E49535741505F494E56414C49445F524553504F4E53455F4C454E47544800 PUSH1 0x40 DUP3 ADD MSTORE PUSH1 0x60 ADD SWAP1 JUMP JUMPDEST PUSH1 0x20 DUP1 DUP3 MSTORE DUP2 DUP2 ADD MSTORE PUSH32 0x4F776E61626C653A2063616C6C6572206973206E6F7420746865206F776E6572 PUSH1 0x40 DUP3 ADD MSTORE PUSH1 0x60 ADD SWAP1 JUMP JUMPDEST PUSH1 0x20 DUP1 DUP3 MSTORE PUSH1 0x12 SWAP1 DUP3 ADD MSTORE PUSH32 0x494E56414C49445F4445585F4F5054494F4E0000000000000000000000000000 PUSH1 0x40 DUP3 ADD MSTORE PUSH1 0x60 ADD SWAP1 JUMP JUMPDEST PUSH1 0x20 DUP1 DUP3 MSTORE PUSH1 0x1D SWAP1 DUP3 ADD MSTORE PUSH32 0x416464726573733A2063616C6C20746F206E6F6E2D636F6E7472616374000000 PUSH1 0x40 DUP3 ADD MSTORE PUSH1 0x60 ADD SWAP1 JUMP JUMPDEST PUSH1 0x20 DUP1 DUP3 MSTORE PUSH1 0x28 SWAP1 DUP3 ADD MSTORE PUSH32 0x53616665436173743A2076616C756520646F65736E27742066697420696E2061 PUSH1 0x40 DUP3 ADD MSTORE PUSH32 0x6E20696E74323536000000000000000000000000000000000000000000000000 PUSH1 0x60 DUP3 ADD MSTORE PUSH1 0x80 ADD SWAP1 JUMP JUMPDEST PUSH1 0x20 DUP1 DUP3 MSTORE PUSH1 0x2A SWAP1 DUP3 ADD MSTORE PUSH32 0x5361666545524332303A204552433230206F7065726174696F6E20646964206E PUSH1 0x40 DUP3 ADD MSTORE PUSH32 0x6F74207375636365656400000000000000000000000000000000000000000000 PUSH1 0x60 DUP3 ADD MSTORE PUSH1 0x80 ADD SWAP1 JUMP JUMPDEST PUSH1 0x20 DUP1 DUP3 MSTORE PUSH1 0x36 SWAP1 DUP3 ADD MSTORE PUSH32 0x5361666545524332303A20617070726F76652066726F6D206E6F6E2D7A65726F PUSH1 0x40 DUP3 ADD MSTORE PUSH32 0x20746F206E6F6E2D7A65726F20616C6C6F77616E636500000000000000000000 PUSH1 0x60 DUP3 ADD MSTORE PUSH1 0x80 ADD SWAP1 JUMP JUMPDEST PUSH1 0x20 DUP1 DUP3 MSTORE PUSH1 0x14 SWAP1 DUP3 ADD MSTORE PUSH32 0x494E56414C49445F554E49535741505F504F4F4C000000000000000000000000 PUSH1 0x40 DUP3 ADD MSTORE PUSH1 0x60 ADD SWAP1 JUMP JUMPDEST PUSH1 0x20 DUP1 DUP3 MSTORE PUSH1 0xC SWAP1 DUP3 ADD MSTORE PUSH32 0x4D554C5F4F564552464C4F570000000000000000000000000000000000000000 PUSH1 0x40 DUP3 ADD MSTORE PUSH1 0x60 ADD SWAP1 JUMP JUMPDEST PUSH1 0x0 PUSH1 0x20 DUP1 DUP4 MSTORE DUP4 MLOAD DUP2 DUP5 ADD MSTORE DUP1 DUP5 ADD MLOAD PUSH1 0x60 PUSH1 0x40 DUP6 ADD MSTORE PUSH2 0x3774 PUSH1 0x80 DUP6 ADD DUP3 PUSH2 0x2F3D JUMP JUMPDEST PUSH1 0x40 DUP7 ADD MLOAD DUP6 DUP3 SUB PUSH1 0x1F NOT ADD PUSH1 0x60 DUP8 ADD MSTORE DUP1 MLOAD DUP1 DUP4 MSTORE SWAP1 DUP5 ADD SWAP3 POP DUP5 SWAP2 DUP5 ADD SWAP1 JUMPDEST DUP1 DUP4 LT ISZERO PUSH2 0x37B5 JUMPI DUP4 MLOAD DUP3 MSTORE SWAP3 DUP5 ADD SWAP3 PUSH1 0x1 SWAP3 SWAP1 SWAP3 ADD SWAP2 SWAP1 DUP5 ADD SWAP1 PUSH2 0x3795 JUMP JUMPDEST POP SWAP7 SWAP6 POP POP POP POP POP POP JUMP JUMPDEST PUSH1 0x0 PUSH1 0x20 DUP3 MSTORE DUP3 MLOAD PUSH1 0xA0 PUSH1 0x20 DUP5 ADD MSTORE PUSH2 0x37DC PUSH1 0xC0 DUP5 ADD DUP3 PUSH2 0x2FAF JUMP JUMPDEST SWAP1 POP PUSH1 0x1 PUSH1 0x1 PUSH1 0xA0 SHL SUB PUSH1 0x20 DUP6 ADD MLOAD AND PUSH1 0x40 DUP5 ADD MSTORE PUSH1 0x40 DUP5 ADD MLOAD PUSH1 0x60 DUP5 ADD MSTORE PUSH1 0x60 DUP5 ADD MLOAD PUSH1 0x80 DUP5 ADD MSTORE PUSH1 0x80 DUP5 ADD MLOAD PUSH1 0xA0 DUP5 ADD MSTORE DUP1 SWAP2 POP POP SWAP3 SWAP2 POP POP JUMP JUMPDEST PUSH1 0x0 PUSH2 0x100 DUP3 ADD SWAP1 POP PUSH1 0x1 PUSH1 0x1 PUSH1 0xA0 SHL SUB DUP1 DUP5 MLOAD AND DUP4 MSTORE DUP1 PUSH1 0x20 DUP6 ADD MLOAD AND PUSH1 0x20 DUP5 ADD MSTORE PUSH3 0xFFFFFF PUSH1 0x40 DUP6 ADD MLOAD AND PUSH1 0x40 DUP5 ADD MSTORE DUP1 PUSH1 0x60 DUP6 ADD MLOAD AND PUSH1 0x60 DUP5 ADD MSTORE PUSH1 0x80 DUP5 ADD MLOAD PUSH1 0x80 DUP5 ADD MSTORE PUSH1 0xA0 DUP5 ADD MLOAD PUSH1 0xA0 DUP5 ADD MSTORE PUSH1 0xC0 DUP5 ADD MLOAD PUSH1 0xC0 DUP5 ADD MSTORE DUP1 PUSH1 0xE0 DUP6 ADD MLOAD AND PUSH1 0xE0 DUP5 ADD MSTORE POP SWAP3 SWAP2 POP POP JUMP JUMPDEST PUSH1 0x0 PUSH1 0xE0 DUP3 MSTORE DUP6 MLOAD PUSH1 0xE0 DUP4 ADD MSTORE PUSH1 0x20 DUP7 ADD MLOAD PUSH2 0x38A8 PUSH2 0x100 DUP5 ADD DUP3 PUSH2 0x2FEF JUMP JUMPDEST POP PUSH1 0x40 DUP7 ADD MLOAD PUSH1 0x1 PUSH1 0x1 PUSH1 0xA0 SHL SUB SWAP1 DUP2 AND PUSH2 0x120 DUP5 ADD MSTORE PUSH1 0x60 DUP8 ADD MLOAD AND PUSH2 0x140 DUP4 ADD MSTORE PUSH1 0x80 DUP7 ADD MLOAD PUSH2 0x160 DUP4 ADD MSTORE PUSH1 0xA0 DUP7 ADD MLOAD PUSH1 0xC0 PUSH2 0x180 DUP5 ADD MSTORE PUSH2 0x38F1 PUSH2 0x1A0 DUP5 ADD DUP3 PUSH2 0x2FAF JUMP JUMPDEST SWAP2 POP POP PUSH2 0x3901 PUSH1 0x20 DUP4 ADD DUP7 PUSH2 0x2FFF JUMP JUMPDEST PUSH1 0xA0 DUP3 ADD SWAP4 SWAP1 SWAP4 MSTORE PUSH1 0xC0 ADD MSTORE SWAP3 SWAP2 POP POP JUMP JUMPDEST PUSH1 0x0 PUSH1 0x20 DUP3 MSTORE DUP3 MLOAD PUSH1 0x20 DUP1 DUP5 ADD MSTORE PUSH2 0x1466 PUSH1 0x40 DUP5 ADD DUP3 PUSH2 0x2F3D JUMP JUMPDEST PUSH1 0x0 PUSH1 0x20 DUP3 MSTORE PUSH3 0xFFFFFF DUP4 MLOAD AND PUSH1 0x20 DUP4 ADD MSTORE PUSH1 0x20 DUP4 ADD MLOAD PUSH1 0x40 DUP1 DUP5 ADD MSTORE PUSH2 0x1466 PUSH1 0x60 DUP5 ADD DUP3 PUSH2 0x2FAF JUMP JUMPDEST SWAP2 DUP3 MSTORE PUSH1 0x20 DUP3 ADD MSTORE PUSH1 0x40 ADD SWAP1 JUMP JUMPDEST PUSH1 0x0 DUP7 DUP3 MSTORE DUP6 PUSH1 0x20 DUP4 ADD MSTORE PUSH1 0xA0 PUSH1 0x40 DUP4 ADD MSTORE PUSH2 0x3985 PUSH1 0xA0 DUP4 ADD DUP7 PUSH2 0x2F3D JUMP JUMPDEST PUSH1 0x1 PUSH1 0x1 PUSH1 0xA0 SHL SUB SWAP5 SWAP1 SWAP5 AND PUSH1 0x60 DUP4 ADD MSTORE POP PUSH1 0x80 ADD MSTORE SWAP4 SWAP3 POP POP POP JUMP JUMPDEST PUSH1 0x40 MLOAD DUP2 DUP2 ADD PUSH8 0xFFFFFFFFFFFFFFFF DUP2 GT DUP3 DUP3 LT OR ISZERO PUSH2 0x39C4 JUMPI PUSH2 0x39C4 PUSH2 0x3B7E JUMP JUMPDEST PUSH1 0x40 MSTORE SWAP2 SWAP1 POP JUMP JUMPDEST PUSH1 0x0 PUSH8 0xFFFFFFFFFFFFFFFF DUP3 GT ISZERO PUSH2 0x39E6 JUMPI PUSH2 0x39E6 PUSH2 0x3B7E JUMP JUMPDEST POP PUSH1 0x20 SWAP1 DUP2 MUL ADD SWAP1 JUMP JUMPDEST PUSH1 0x0 DUP3 NOT DUP3 GT ISZERO PUSH2 0x3A03 JUMPI PUSH2 0x3A03 PUSH2 0x3B52 JUMP JUMPDEST POP ADD SWAP1 JUMP JUMPDEST PUSH1 0x0 DUP3 PUSH2 0x3A23 JUMPI PUSH4 0x4E487B71 PUSH1 0xE0 SHL DUP2 MSTORE PUSH1 0x12 PUSH1 0x4 MSTORE PUSH1 0x24 DUP2 REVERT JUMPDEST POP DIV SWAP1 JUMP JUMPDEST PUSH1 0x0 DUP2 PUSH32 0xFFFFFFFFFFFFFFFFFFFFFFFFFFFFFFFFFFFFFFFFFFFFFFFFFFFFFFFFFFFFFFFF DIV DUP4 GT DUP3 ISZERO ISZERO AND ISZERO PUSH2 0x3A60 JUMPI PUSH2 0x3A60 PUSH2 0x3B52 JUMP JUMPDEST POP MUL SWAP1 JUMP JUMPDEST PUSH1 0x0 DUP3 DUP3 LT ISZERO PUSH2 0x3A77 JUMPI PUSH2 0x3A77 PUSH2 0x3B52 JUMP JUMPDEST POP SUB SWAP1 JUMP JUMPDEST PUSH1 0x0 JUMPDEST DUP4 DUP2 LT ISZERO PUSH2 0x3A97 JUMPI DUP2 DUP2 ADD MLOAD DUP4 DUP3 ADD MSTORE PUSH1 0x20 ADD PUSH2 0x3A7F JUMP JUMPDEST DUP4 DUP2 GT ISZERO PUSH2 0x13E9 JUMPI POP POP PUSH1 0x0 SWAP2 ADD MSTORE JUMP JUMPDEST PUSH1 0x2 DUP2 DIV PUSH1 0x1 DUP3 AND DUP1 PUSH2 0x3ABC JUMPI PUSH1 0x7F DUP3 AND SWAP2 POP JUMPDEST PUSH1 0x20 DUP3 LT DUP2 EQ ISZERO PUSH2 0x3ADD JUMPI PUSH4 0x4E487B71 PUSH1 0xE0 SHL PUSH1 0x0 MSTORE PUSH1 0x22 PUSH1 0x4 MSTORE PUSH1 0x24 PUSH1 0x0 REVERT JUMPDEST POP SWAP2 SWAP1 POP JUMP JUMPDEST PUSH1 0x0 PUSH32 0xFFFFFFFFFFFFFFFFFFFFFFFFFFFFFFFFFFFFFFFFFFFFFFFFFFFFFFFFFFFFFFFF DUP3 EQ ISZERO PUSH2 0x3B15 JUMPI PUSH2 0x3B15 PUSH2 0x3B52 JUMP JUMPDEST POP PUSH1 0x1 ADD SWAP1 JUMP JUMPDEST PUSH1 0x0 PUSH32 0x8000000000000000000000000000000000000000000000000000000000000000 DUP3 EQ ISZERO PUSH2 0x3B4E JUMPI PUSH2 0x3B4E PUSH2 0x3B52 JUMP JUMPDEST SUB SWAP1 JUMP JUMPDEST PUSH4 0x4E487B71 PUSH1 0xE0 SHL PUSH1 0x0 MSTORE PUSH1 0x11 PUSH1 0x4 MSTORE PUSH1 0x24 PUSH1 0x0 REVERT JUMPDEST PUSH4 0x4E487B71 PUSH1 0xE0 SHL PUSH1 0x0 MSTORE PUSH1 0x21 PUSH1 0x4 MSTORE PUSH1 0x24 PUSH1 0x0 REVERT JUMPDEST PUSH4 0x4E487B71 PUSH1 0xE0 SHL PUSH1 0x0 MSTORE PUSH1 0x41 PUSH1 0x4 MSTORE PUSH1 0x24 PUSH1 0x0 REVERT JUMPDEST PUSH1 0x1 PUSH1 0x1 PUSH1 0xA0 SHL SUB DUP2 AND DUP2 EQ PUSH2 0x3BA9 JUMPI PUSH1 0x0 DUP1 REVERT JUMPDEST POP JUMP INVALID LOG2 PUSH5 0x6970667358 0x22 SLT KECCAK256 BYTE SELFDESTRUCT DUP7 CODECOPY 0xB1 ISZERO PUSH12 0x73868A693DD42F9D26BC5155 0x24 DUP3 REVERT EXTCODECOPY CALLCODE 0xC8 PUSH12 0xE066197C2C9164736F6C6343 STOP ADDMOD STOP STOP CALLER "
        },
        "methodIdentifiers": {
          "getAmountOut(address,address,uint256)": "4aa06652",
          "getBalancerV2Path(address,address)": "5ee91426",
          "getPath(address,address)": "d88e3e3b",
          "getPathDex(address,address)": "c8f9948a",
          "getUniswapV2Path(address,address)": "00186ade",
          "getUniswapV3Path(address,address)": "9f9b0934",
          "owner()": "8da5cb5b",
          "pathDex(bytes32)": "d182224a",
          "priceOracle()": "2630c12f",
          "renounceOwnership()": "715018a6",
          "setBalancerV2Path(address[],bytes32[])": "178e7340",
          "setUniswapV2Path(address[])": "44d9e131",
          "setUniswapV3Path(address[],uint24[])": "cf3c8c3f",
          "sortPoolTokens(address,address)": "44204966",
          "swap(address,address,uint256,uint256,uint256,bytes)": "16725787",
          "transferOwnership(address)": "f2fde38b"
        }
      }
    }
  }
}